:020000040800F2
:10000000683400209D010008711600086B1200087A
:100010004D1500083D0D00087B4B00080000000056
:10002000000000000000000000000000E54700089C
:10003000F11000080000000085450008D5480008C0
:10004000B7010008B7010008B7010008B7010008B0
:10005000B7010008B7010008B7010008B7010008A0
:10006000B7010008B7010008B7010008B701000890
:10007000B7010008B7010008B7010008B701000880
:10008000B7010008E90D0008B7010008B701000832
:10009000B7010008B7010008B7010008B701000860
:1000A000B7010008B7010008B7010008B701000850
:1000B000B7010008B7010008B7010008B701000840
:1000C000B7010008B7010008B7010008B701000830
:1000D000B70100085D4900087D490008B701000824
:1000E000B7010008B7010008B7010008B701000810
:1000F000B7010008B7010008B7010008B701000800
:10010000B7010008B7010008B7010008B7010008EF
:10011000B7010008B7010008B7010008B7010008DF
:10012000B7010008B7010008B7010008B7010008CF
:10013000B7010008B7010008B7010008B7010008BF
:10014000B7010008B7010008B7010008B7010008AF
:10015000B7010008B7010008210E0008B701000828
:10016000B7010008B7010008B7010008B70100088F
:10017000B7010008B7010008B7010008B70100087F
:10018000B7010008B7010008DFF80CD000F00EFB43
:10019000004800474D5A0008683400200648804750
:1001A00006480047FEE7FEE7FEE7FEE7FEE7FEE75C
:1001B000FEE7FEE7FEE7FEE7DD48000889010008EC
:1001C00072B6704762B67047EFF3108072B6704730
:1001D00080F31088704730BF704720BF7047B0FA77
:1001E00080F0704790FAA0F0B0FA80F0704790FA73
:1001F000A0F070472DE9FE4F804681EA0300C00F52
:100200000C46009021F0004123F00045B8EB0200BD
:10021000A94105D24046214690461C460B4602465F
:1002200023F00040104347D0270DC7F30A00C3F363
:100230000A510290401A019040286BDAC3F3130070
:1002400040F4801B0098924620B10023D2EB030AB1
:1002500063EB0B0B01985946C0F14002504600F089
:1002600011F906460D4650465946019A00F029F903
:1002700010EB08006141002487EA115284EAE77319
:100280001A4340D0009A62B3019A012A4FEA0752FA
:1002900015DC001B61EB02014FF0004202EA07523D
:1002A000CDE90042001C41F5801132462B4600F09A
:1002B00060F903B0BDE8F08F40462146F9E7001B26
:1002C00061EB0201001C41F5801300185B4120180E
:1002D000A2F5001747EB030140EAD570B6196D414E
:1002E00011E06D084FEA360645EAC0754FEA07523D
:1002F000001B61EB0201001C41F5801149084FEA27
:1003000030000019514132462B4603B0BDE8F04F92
:1003100000F020B90098012240000023D0EB020237
:1003200063EBE073009821464FEAE074B8EB0000FD
:1003300061EB0401E9E783F000435BE781F00041F2
:1003400058E72DE9FE4F81EA030404F0004421F050
:10035000004100944FF0000B23F0004350EA0104E9
:100360005ED052EA03045BD0C3F30A54C1F30A55CA
:100370002C44A4F2F3340194A0FB0254C1F3130102
:1003800041F48011C3F3130343F4801301FB0244CF
:1003900000FB034E840A970A44EA815447EA8357D4
:1003A000A4FB076802958D0A05FB07854FEA932C8D
:1003B00004FB0C542705029D4FEA065847EA1637FE
:1003C000B5EB08056EEB070C870E920E47EA811716
:1003D00042EA8312A7FB0201B6EB0B0164EB0004B7
:1003E0002B0D43EA0C335E1844EB1C50DA465146A1
:1003F000E7FB0201C5F313044FEA0B3343EA14533E
:100400004FEA0432019C43EA0603A4F10C0402946F
:10041000009CCDE900B400F0ACF803B0BDE8F08F6B
:1004200000200146F9E700F0004230F000400AD019
:10043000C10D01F56071C0F3160042EA0151C20816
:1004400040071143704700200146704701F0004308
:1004500030B421F0004150EA010206D00A0DA2F5A5
:100460006072C1F31301002A02DC30BC0020704727
:10047000440F44EAC104C100E01830BC00EBC25094
:1004800000F031B8202A04DB203A00FA02F1002003
:1004900070479140C2F1200320FA03F319439040C2
:1004A0007047202A04DB203A21FA02F0002170472D
:1004B00021FA02F3D040C2F12002914008431946CC
:1004C0007047202A06DBCB17203A41FA02F043EAB4
:1004D000E07306E041FA02F3D040C2F120029140FD
:1004E0000843194670470029A8BF7047401C4900BF
:1004F00008BF20F00100704710B4B0FA80FC00FA89
:100500000CF050EA010404BF10BC704749B1CCF1B3
:10051000200421FA04F411FA0CF118BF012121433F
:100520000843A3EB0C01CB1D4FEA00614FEA1020FA
:1005300042BF002010BC704700EBC350104400299C
:10054000A4BF10BC7047401C490008BF20F0010048
:1005500010BC704710B5141E73F1000408DA401C7B
:1005600041F1000192185B411A4301D120F00100D2
:1005700010BD2DE9F04D92469B4611B1B1FA81F2C2
:1005800002E0B0FA80F220329046FFF77BFF04468B
:100590000F4640EA0A0041EA0B0153465A46084317
:1005A00013D0114653EA010019D0C8F14002504659
:1005B000FFF777FF05460E46504659464246FFF77D
:1005C00061FF084305D0012004E020463946BDE81C
:1005D000F08D0020054346EAE0762C4337430A9825
:1005E0006305E40AA0EB08000022FD0A44EA475430
:1005F0000A3002D500200146E9E7010510196941DA
:10060000DDE9084500196941BDE8F04DA2E72DE993
:10061000F04D81EA030404F0004B21F0004514463C
:100620004FF0000A23F0004150EA050220D054EABE
:1006300001021DD0C5F30A570246C5F31303C1F3E7
:100640001300C1F30A5640F4801543F48013A7EB5E
:100650000608101BD64608F2FD3873EB050002D3DE
:1006600008F1010801E092185B41B8F1000F03DACC
:1006700000200146BDE8F08D00204FF480110646B1
:1006800084460EE0171B73EB050705D3121B63EBC3
:10069000050306434CEA010C49084FEA3000921862
:1006A0005B4150EA0107EDD152EA030012D082EA21
:1006B000040083EA0501084305D0101BAB4106D2B4
:1006C0000122002306E000224FF0004302E06FF019
:1006D000010253101AEB06004CEB085110EB0A0014
:1006E00041EB0B01BDE8F04DFFF734BF0EB5C10F74
:1006F00080EAE0700844CA07002140F233438DE8E5
:100700000E000A460B46FFF734FF03B000BD70B57C
:10071000C1F30A5201F000450024C1F3130140F275
:10072000FF3341F480119A4201DA002070BD40F29B
:1007300033439A42A2F2334203DC5242FFF7B1FE46
:1007400000E090402C43F1D0404270BD30B5041E13
:1007500071F1000404DB4FF00044404264EB0101FE
:10076000141E73F1000405DB1C464FF00043524297
:1007700063EB04038B4208BF824230BD30B5041ED8
:1007800071F1000404DB4FF00044404264EB0101CE
:10079000141E73F1000405DB1C464FF00043524267
:1007A00063EB0403994208BF904230BD064C074DED
:1007B00006E0E06840F0010394E807009847103431
:1007C000AC42F6D3FFF7E4FC405E0008605E000830
:1007D0000EB540F2334102910021CDE900110A46E5
:1007E0000B46FFF7C6FE03B000BD70B58C1810F8BD
:1007F000015B15F0070301D110F8013B2A1106D166
:1008000010F8012B03E010F8016B01F8016B5B1E7F
:10081000F9D12B0705D40023521E0DD401F8013B5A
:10082000FAE710F8013BCB1A921C03E013F8015BC6
:1008300001F8015B521EF9D5A142D8D3002070BD4A
:10084000EFF3098141B1F1EE101A40F8041D20EDDB
:10085000200A3B490A6810607047B0EC200A02C8C1
:10086000E1EE101A37490A681060704772B64EF60A
:100870002250CEF2000040F2FF01C0F200010170F0
:1008800040F2EC20C2F20000016881F3088840F2D7
:100890006220C2F2000040F26321C2F200010A7835
:1008A000027040F2E425C2F2000540F2E821C2F2F3
:1008B00000010A682A60106880F30988EFF3148049
:1008C00040F0020080F31488BFF36F8FBDE8F00F93
:1008D0000FBCBDE8005006BC62B608471A484FF08E
:1008E00080510160704718484FF080510160704797
:1008F00072B6EFF3098020E9F00F40F2E425C2F26E
:1009000000052E683060744602F050F840F2622014
:10091000C2F2000040F26321C2F200010A780270C4
:1009200040F2E821C2F200010A682A6044F0F40EA5
:100930001068B0E8F00F80F3098862B670470000D5
:10094000E4020020E802002004ED00E000B58BB0D6
:100950000AA8072100220592CDE906210890114638
:100960004FF400720848D0F8CC00074BCDE90130B5
:10097000CDE9032104200023044A05A10090084882
:1009800001F082FB0BB000BD74060020D109000805
:10099000465020204571756174696F6E20310000EA
:1009A000B40500200EB500F071F900F0B9F902A805
:1009B00001F0E8FAFFF7CAFF08E002A8002164236B
:1009C0000A46CDE90010084602F09EF8F5E700005F
:1009D0002DED108B86B045E19FEDA3DAB0EE080A4D
:1009E000B0EE408AB1EE000AF0EE40AA38EE6A0A94
:1009F000B0EE40AA0024B5EEC0AAF1EE10FA05D27E
:100A0000BFEE000A2AEE000AB0EE40AA19E138EE65
:100A10002A0AF0EE000AC0EE208A18EE100AFFF74C
:100A200002FD41EC1B0BB0EE4B0AF0EE6B0A04F03A
:100A30000BF9B0EE40CAF0EE60CA9FED8C0B53ECA0
:100A4000102B51EC1C0BFFF77CFC41EC1E0B18EE3D
:100A5000100AFFF7E8FC41EC1C0BB0EE4C0AF0EE7C
:100A60006C0A04F001FBB0EE40BAF0EE60BA9FED04
:100A7000810B53EC102B51EC1B0BFFF762FC41EC8C
:100A80001F0B53EC1E2BFFF756FCBFEE000A28EE9F
:100A9000000ACDE9020110EE101A0846FFF7C3FC68
:100AA00041EC1B0BB0EE4B0AF0EE6B0A04F030F990
:100AB0008DED000B9DED020B53EC102B9DED000B0B
:100AC00051EC100BFFF73DFCCDE904019DED040B4B
:100AD00051EC100BFFF7BAFC09EE900A18EE900AE1
:100AE000FFF7A1FC41EC1C0BB0EE4C0AF0EE6C0AD7
:100AF00004F0AAF8B0EE40BAF0EE60BA9FED5B0BDE
:100B000053EC102B51EC1B0BFFF71BFC41EC1E0BA5
:100B100018EE900AFFF787FC41EC1C0BB0EE4C0A74
:100B2000F0EE6C0A04F0A0FAB0EE40BAF0EE60BA53
:100B30009FED500B53EC102B51EC1B0BFFF701FCFE
:100B400053EC1E2BCDE900019DED000B51EC100B79
:100B5000FFF7F1FB41EC1F0BBFEE000A28EE800A05
:100B600010EE101A0846FFF75EFC41EC1B0BB0EECE
:100B70004B0AF0EE6B0A04F0CBF88DED020B53EC50
:100B80001F2B9DED020B51EC100BFFF7DAFBCDE9AB
:100B900004019DED040B51EC100BFFF757FC09EE1F
:100BA000100AF5EEC09AF1EE10FA04DDB5EEC09A27
:100BB000F1EE10FA09D3F5EEC09AF1EE10FA07D271
:100BC000B5EEC09AF1EE10FA02DDF0EE68AA17E079
:100BD000F5EEC09AF1EE10FA04DDB5EEC09AF1EE32
:100BE00010FA09DCF5EEC09AF1EE10FA07D2B5EE74
:100BF000C09AF1EE10FA02D2B0EE688A00E02DE061
:100C000038EE6A0AB0EE40AAB5EEC0AAF1EE10FACC
:100C100005D2BFEE000A2AEE000AB0EE40AA601C20
:100C2000C4B200F055FC05464FF47A70B5FBF0F104
:100C300000FB115500E06D1E002DFCD1102C00D9D9
:100C40000CE0B0EE000A2DEE000AB4EECA0AF1EE96
:100C500010FAFFF4DCAE142C3FF6D9AE00BF102C16
:100C600000D100BFB8E60000ACC527370000000087
:100C70000000E03F000000A0999909401FB56846B8
:100C800003F0C2FC019804B010BD000070B51F480D
:100C900003F0BAFC1D4840686422B0FBF2F1481E24
:100CA000B0F1807F00D31BE0481E4FF0E02250617E
:100CB00050170F22002807DA13071D0E144B00F0FF
:100CC0000F04241F1D5503E013071C0E114B1C5469
:100CD00000BF00204FF0E02290610720106100BFAC
:100CE0004FF4A06000F002FD00F008FB00F0C4FB30
:100CF0004FF4165003F0FCFC03F042FF4FF4E130D8
:100D000004F050FE00F0F6F970BD000074100020F1
:100D100018ED00E000E400E010B5FFF751FA10BD57
:100D200070B5FFF7ABFF044603480068B4FBF0F56D
:100D3000284601F0AFFF70BD245B000800BFFEE74E
:100D400010B500F021F800F019F810BD10B500241E
:100D500000BF00BFFFF738FA044600BF00BF1021F4
:100D6000054800F0F5FB00BF00BF2046FFF730FA52
:100D700000BF00BF10BD00008410002010B5FFF7B9
:100D8000E5FF10BD00BFFEE710B500200249086076
:100D900000F00AF810BD00001402002001490860AC
:100DA000704700001402002010B5FFF767FF0446EB
:100DB0000848006840F08070064908600020064935
:100DC00048600846006840F0010008602046FFF7D0
:100DD000E5FF10BDFCED00E0001000E001494868AF
:100DE00070470000001000E010B50A490A4800F002
:100DF00003F968B10749084800F02EF84021074878
:100E000003F0DEFD012240F22661044803F020FEDB
:100E100010BD000000802020A0600240004400407F
:100E200010B50A490A4800F0E7F868B107490848D0
:100E300000F012F84021074803F0C2FD012240F201
:100E40002661044803F004FE10BD00000080002865
:100E5000B8640240001001400246094B9A4201D298
:100E6000084801E00648103801F000531BB1064B5A
:100E70000B40C36002E0044B0B40836070470000EE
:100E800010640240006002407D0F7D0F016821F078
:100E9000010101600021016041608160C160016168
:100EA000212141614A49884204D13D21484A103AF2
:100EB00091608CE046491831884205D14FF4746145
:100EC000434A103A916082E041493031884205D16D
:100ED0004FF474113E4A103A916078E03C49483131
:100EE000884205D14FF07461394A103A91606EE042
:100EF00037496031884204D13649354A103AD160C9
:100F000065E033497831884204D13349304A103A98
:100F1000D1605CE02E499031884204D12F492C4A9F
:100F2000103AD16053E02A49A831884205D14FF0E8
:100F30003D51274A103AD16049E02949884204D1FD
:100F40003D21274A083A116041E02549183188427D
:100F500005D14FF47461224A083A116037E0204904
:100F60003031884205D14FF474111D4A083A11609E
:100F70002DE01B494831884205D14FF07461184A71
:100F8000083A116023E016496031884204D11149C2
:100F9000134A121F11601AE011497831884204D1B6
:100FA0000D490F4A121F116011E00D49903188421E
:100FB00004D10A490A4A121F116008E00849A83101
:100FC000884204D14FF03D51054A121F116070470D
:100FD000106002403D000020400F002000003D2036
:100FE00010640240014600200A6802F001020AB1C2
:100FF000012000E00020704770B502460020002468
:101000000025124EB24201D2114B01E00F4B103BB2
:10101000104E0E4036B11E2606EAD124166806EAA6
:10102000040502E0566906F0800501F000560EB195
:101030005C6800E01C68084E344004EA010616B102
:101040000DB1012000E0002070BD000010640240DE
:10105000006002403C0F3C0F7D0F7D0F10B501F08A
:1010600080034BB122B1436943F08003436103E045
:10107000436923F08003436180290BD02AB10368C0
:1010800001F01E042343036004E0036801F01E0422
:10109000A343036010BD000010B500220268134B8B
:1010A0001A40CC680B6823434C6923438C69234363
:1010B000CC6923430C6A23434C6A23438C6A234341
:1010C0004C6B23438C6B23431A430260426922F02A
:1010D0000702D1E90B3423431A4342610B69436091
:1010E0004B6883608B68C36010BD00003F801CF0BC
:1010F0007047000000B591B00121880503F044FA63
:101100001F48FFF7C3FE00BF1D48FFF76BFF002815
:10111000FAD14FF0006002901A4803901A480490E8
:1011200040200590C0000690002007904FF480609A
:101130000890002009900A900B904FF480300C909A
:1011400000200D9003200E9000200F90109002A917
:101150000B48FFF7A1FF46208DF8040001208DF811
:10116000070003208DF805008DF8060001A800F0A7
:1011700081FA012210210248FFF770FF11B000BD73
:10118000B864024004100140740E0020F0B50A4615
:1011900000210023002400BF3DE0012505FA01F3F2
:1011A000156805EA03049C4234D105684F00032604
:1011B000BE40B543056015794E00B540066835431D
:1011C00005601579012D02D01579022D16D185689B
:1011D0004F000326BE40B543856055794E00B540AB
:1011E000866835438560456801268E40B543456075
:1011F000456896798E40B6B235434560C5684F0064
:101200000326BE40B543C560D5794E00B540C668DB
:101210003543C560491C1029BFD3F0BDF0B500238C
:1012200000244D07ED0E02FA05F3CE1000F1200563
:1012300055F826504E07F70E0F26BE40B543CF1087
:1012400000F1200646F82750CE1000F1200555F891
:10125000265045EA0304CE1000F1200545F826404B
:10126000F0BD418370470183704700BFFEE7000077
:101270001FB50F4800F05CF80020ADF804004BF6F5
:10128000FF70ADF80600A020ADF808004FF48060B4
:10129000ADF80A000001ADF80C0006480090694660
:1012A000034800F075F80121014800F035F81FBD32
:1012B00000540040801A06001CB54FF440700090A6
:1012C00002208DF8040001208DF8060003208DF81F
:1012D000050001208DF8070069460748FFF756FF13
:1012E000042208210448FFF799FF0422092102483B
:1012F000FFF794FF1CBD00000004024010B501215F
:10130000480503F051F90121022003F03DF9FFF7F0
:10131000D3FFFFF7ADFF10BD21B1028842F00102FB
:10132000028004E002884FF6FE731A400280704784
:1013300010B504461348844209D10121480503F041
:1013400043F900214FF4001003F03EF918E00E4875
:10135000844209D10121880503F036F900214FF4B8
:10136000800003F031F90BE00848844208D10121E4
:10137000C80503F029F900214FF4000003F024F917
:1013800010BD00000054004000580040005C0040C8
:101390002DE9FF4704460D460026B1460427DFF835
:1013A000CC80A6884FF6C0700640684603F02CF942
:1013B000DDF808802E48B8FBF0F01FFA80F946EA05
:1013C0000906A68020884FF6FE710840208000267E
:1013D0002849286888420CD828684000B8FBF0F0FB
:1013E00087B2042F00DA04273E4309F1010020846C
:1013F00027E0E8884BF6FF71884206D1286800EBA9
:101400004000B8FBF0F087B209E0286800EBC001AB
:1014100001EB0010B8FBF0F087B247F48047C7F348
:101420000B0008B947F0010747F4004006434FF4AA
:10143000967009FB00F04FF47A7190FBF1F0401CBC
:101440002084A683208840F00100208026884FF663
:10145000F5300640A8886989084306432680A88994
:10146000298908432081BDE8FF87000000127A0027
:1014700040420F00A08601001CB50121202003F08E
:1014800083F84FF4C060009001208DF80400002024
:101490008DF8060001208DF8070003208DF8050067
:1014A00069460748FFF772FE4FF400710448FFF7E2
:1014B000DAFE4FF480610248FFF7D5FE1CBD000044
:1014C0000014024010B5012000F02AF810BD000001
:1014D00070B5002600BF00BFFEF776FE064600BFCF
:1014E00000BF08480568284600F00EF80446054885
:1014F000046000BF00BF3046FEF76AFE00BF00BFB9
:10150000204670BD18020020014643F23902034B09
:1015100003FB012222F00040704700006D4EC641DF
:1015200070B50446002500BF00BFFEF74DFE05461E
:1015300000BF00BF0448046000BF00BF2846FEF79C
:1015400047FE00BF00BF70BD1802002000BFFEE7CD
:1015500030B505460C4622460021284600F05EF8CC
:1015600030BD00003EB500200C4908600C4C02A8BC
:1015700001214FF440632246CDE9001009490AA039
:1015800000F016F8BDF8080042F21071884203D04E
:1015900000BFFFF7F7FB00BF3EBD00001C020020AC
:1015A00094100020941C0020486561700000000029
:1015B0002DE9F84F05460E4617461C46DDE90A8917
:1015C0004FF0000A00BF00BFFEF7FEFD824600BFDD
:1015D00000BF43463A4631462846009400F00EF8D4
:1015E00000BF00BF5046FEF7F3FD00BF00BF42F250
:1015F0001070A9F80000BDE8F88F000030B5039C1A
:101600000A60651E15444D608A60034D2D68CD60EB
:101610000B61014D296030BD1C0200202DE9F04115
:1016200005460B4694460027002402E03F021F4374
:10163000641C042CFAD3604605F00306294646B123
:10164000344603E001F8013B401E641C08B1042C41
:10165000F8D30A4601E080C2001F0428FBD21146DD
:1016600002E001F8013B401E0028FAD1BDE8F081FC
:101670007047000070B5002100230F22C4781CB30E
:10168000174C246804F4E064C4F5E064C4F3072153
:10169000C1F10404E3B20A4144789C40E1B2847889
:1016A000144021430C07210E0E4C05786155047837
:1016B00004F01F050124AC4005786D11AD0005F163
:1016C000E025C5F8004109E0047804F01F05012475
:1016D000AC40054D0678761145F8264070BD0000F7
:1016E0000CED00E000E400E080E100E0024901438D
:1016F000024A1160704700000000FA050CED00E09E
:101700007047000010B50348006810B10148006838
:10171000804710BD3402002070B5044600F0AEF8DA
:101720000020414908704149087041490870414909
:1017300008604149086041490870414908704149C1
:1017400008704149086041490860414908604148C2
:10175000006858B14048056845B13E48066803E056
:10176000761E002028602D1D002EF9D100203B4957
:1017700008603B4908603B4908603B4908603B49B9
:1017800008603B4908603B4908603B49087001F02C
:1017900071FE01F0ABFE204601F068FB208800B12D
:1017A00070BD204601F0C8FB208800B1F8E7204654
:1017B00001F0CEFB208800B1F2E7204601F0A0FC4A
:1017C000208800B1ECE7204601F084FE208800B1BB
:1017D000E6E7204601F04AFF208800B1E0E7204616
:1017E00002F0F0F9208800B1DAE7204601F06CFB46
:1017F000208800B1D4E7204602F042FD208800B1E5
:10180000CEE7204602F0B2F8208800B1C8E72046B3
:1018100002F09AFD208800B1C2E701F053FAFFF709
:101820006FFF00BFBCE70000480200204902002013
:101830007C020020E4020020E80200206202002076
:101840006302002064020020700200207402002065
:1018500078020020F45A0008F05A000828020020FC
:101860002C02002030020020340200203802002028
:101870003C02002040020020AA0200200648006826
:101880000649096800EB81000549086008460068C0
:1018900020F0070008607047F05A0008F45A00086A
:1018A000EC0200202DE9F04104460E4615460027C3
:1018B00024B945F6C3502880BDE8F08100BF00BFC1
:1018C000FEF782FC074600BF00BF1048206066603C
:1018D00000202062606284F82800E06204F10800C1
:1018E00001F0BFFC204601F09BFB09480088401C2A
:1018F0000749088000BF00BF3846FEF769FC00BFFB
:1019000000BF0020288000BFD6E700004D55545886
:10191000600200202DE9F04788B005468946174649
:101920001C46109E4FF0000A2DB945F6C35030807A
:1019300008B0BDE8F0871FB1B7F5004F02D100E055
:1019400000BF03E045F625603080F1E700BF624943
:101950002868884203D045F6C4503080E8E70CB1CF
:101960000020206000BF00BFFEF72EFC824600BFB3
:1019700000BF95F82800B8B958480068686201208F
:1019800085F828000CB1E86A2060294653480068B1
:1019900001F05EFB00BF00BF5046FEF719FC00BF20
:1019A00000BF00203080C3E74C49686A096888425C
:1019B00012D195F82800401C85F828000CB1E86A7F
:1019C000206000BF00BF5046FEF702FC00BF00BF12
:1019D00045F282703080ABE707F4004050B100BFA1
:1019E00000BF5046FEF7F4FB00BF00BF46F2B01048
:1019F00030809DE73A48007800280ADD00BF00BF2C
:101A00005046FEF7E5FB00BF00BF46F6635030804E
:101A10008EE7D5F8248098F837003049096891F8A6
:101A20003710884206DD2D48006890F83710404690
:101A300002F018F84B4604222946684601F06CFB78
:101A400000BF00BF5046FEF7C3FB00BF00BF00F061
:101A50000FF900BF00BFFEF7B7FB824600BF00BF13
:101A60001E48006890F8350030B101280CD00228DB
:101A70001AD0032821D110E01CB118480068806CEE
:101A80002060002030801CE01CB114480068806C8D
:101A9000206046F2A910308013E00CB100202060D5
:101AA00047F2D92030800CE01CB10C480068806CF3
:101AB000206045F6C250308003E046F62E6030804C
:101AC00000BF00BF00BF00BF5046FEF781FB00BF54
:101AD00000BF00BF2CE700004D555458E402002021
:101AE0007C0200202DE9F84F0446894615464FF048
:101AF000000B24B945F6C3502880BDE8F88FB9F132
:101B0000000F03D0B9F5004F02D100E000BF03E0A1
:101B100045F625602880F0E700BF524920688842DA
:101B200003D045F6C4502880E7E700BF00BFFEF7AA
:101B30004BFB834600BF00BF4B49606A096888427F
:101B40000AD000BF00BF5846FEF742FB00BF00BFEF
:101B500045F281702880D0E7FFF740F980462834AD
:101B6000C4F804802078401E207014F8280900284A
:101B70000ADD00BF00BF5846FEF72AFB00BF00BFCA
:101B800045F283702880B8E721463748006801F0A5
:101B9000A9FA04F1080ABAF8080068B900206062DE
:101BA00084F8280000BF00BF5846FEF711FB00BFB5
:101BB00000BF00202880A0E72B48006890F837007D
:101BC0002949096891F83810884228D026480068C9
:101BD00001F072FA06462448006890F83810B142C5
:101BE00004DA2148006890F8380000E030460646E4
:101BF0001D48006890F83700B04210DA1A480068B3
:101C000001F0DAFC1848006880F83760304601F0CF
:101C10003DFC1548006801F0B1FC14480670DAF884
:101C2000000087686762012084F828002146384652
:101C300001F00EFA00231A4639462046CDF80080FE
:101C400001F082FB00BF00BF5846FEF7C1FA00BF9B
:101C500000BF09F4004008B900F00AF8002028800D
:101C600000BF4AE74D555458E402002062020020AC
:101C700010B5002420480078002800DD10BD1F4862
:101C80000078002800DDF9E700BFFEF79DFA044662
:101C900000BF01F0DBFB1A4908700846007800EB32
:101CA0004000184951F820001749086008460068AC
:101CB00016490968884205D100BF2046FEF788FA18
:101CC00000BFDBE710480068D0F88C00401C0E49CC
:101CD0000968C1F88C000E480068401C0C49086077
:101CE000FEF7FCFD00BF2046FEF772FA00BFBFF30F
:101CF0006F8F00BFC2E70000480200207C02002076
:101D000063020020F42A0020E8020020E402002000
:101D1000A002002070B50446002514480078012870
:101D200003D045F68960208070BD11480078FA28FC
:101D300003DB45F209202080F6E700BF00BFFEF775
:101D400043FA054600BF00BF09480078401C084917
:101D5000087001F05FFC00BF00BF2846FEF738FAAC
:101D600000BF00BF0020208000BFDDE74902002047
:101D70007C02002070B5044600251C48007801282C
:101D800003D045F68960208070BD1948007818B9E5
:101D900046F664502080F7E700BF00BFFEF714FA54
:101DA000054600BF00BF12480078401E1049087069
:101DB0000846007800280ADD00BF00BF2846FEF76D
:101DC00007FA00BF00BF46F663502080DCE701F051
:101DD0002FFC00BF00BF2846FEF7FAF900BF00BF86
:101DE000FFF746FF0020208000BFCDE7490200201A
:101DF0007C02002010B5044612480078E8B901F0D2
:101E000025FB1149087008460078104908700E48F3
:101E1000007800EB40000E4951F820000D490860A1
:101E2000084600680C490860012006490870FEF762
:101E30001DFD43F69920208002E045F68A6020804F
:101E400010BD000049020020630200206202002051
:101E5000F42A0020E8020020E40200202DE9F041ED
:101E600007464FF0000800BF00BFFEF7ADF98046FF
:101E700000BF00BF00203B4908803B4908603B4948
:101E800008603B4908603B4908603B49088100BF46
:101E900000BF4046FEF79CF900BF00BF00BF00BF77
:101EA000FEF792F9804600BF00BF3448046800BFC7
:101EB00000BF4046FEF78CF900BF00BF21E000BF25
:101EC00000BFFEF781F9804600BF00BF00207434D8
:101ED000E06320602063A061A082E0826062A06273
:101EE000FEF77CFF2062743C04F160060020B081A4
:101EF000D4F8B84000BF00BF4046FEF769F900BF04
:101F000000BF002CDBD100BF00BFFEF75DF98046AB
:101F100000BF00BF1A48056800BF00BF4046FEF77B
:101F200057F900BF00BF12E000BF00BFFEF74CF939
:101F3000804600BF00BF05F120060020B081AD69DA
:101F400000BF00BF4046FEF743F900BF00BF002DB1
:101F5000EAD102F08BF802F09DFA00203880BDE84B
:101F6000F08100008A0200209C020020B0020020C4
:101F7000D402002074020020E82A0020A4020020DD
:101F800068020020F8B5044600266946324800F091
:101F9000FBFCBDF8000018B1BDF800002080F8BDC2
:101FA0006A460021022000F05DFDBDF8000018B176
:101FB000BDF800002080F2E700BF00BFFEF704F983
:101FC000064600BF00BF00202449086000BF00BFD4
:101FD0003046FEF7FDF800BF00BF0025204800682E
:101FE00020490968884205D91D4800681D490968CB
:101FF000B0FBF1F525B91A4800680A21B0FBF1F5EC
:102000006A460021284600F02DFD6946124800F07E
:10201000DFF9BDF8000018B1BDF800002080BEE770
:1020200000BF00BFFEF7D0F8064600BF00BF00208B
:102030000D490860094800680C49086001200C49F6
:10204000087000BF00BF3046FEF7C2F800BF00BFF7
:102050000020208000BFA2E7A42F00208C020020D7
:10206000245B00080C5B00089C020020900200200A
:102070009802002010B50348006810B101480068BC
:10208000804710BD380200202DE9FF4F87B004467D
:102090009046DDE91BA5DDE91496179F002003900B
:1020A0002CB947F2AD1028800BB0BDE8F08FB8F125
:1020B000000F03D147F24F102880F5E71EB946F60E
:1020C0002F602880F0E750480068874203D246F628
:1020D00030602880E8E71698B84203D346F63160AE
:1020E0002880E1E7B9F1400F03D346F2732028803E
:1020F000DAE7B9F13F0F06D14448844203D046F2F3
:1021000073202880D0E7204601F06CFD0020288055
:102110000AF0010090B10AF0020078B105960020A3
:10212000069008E00021059801600598001D0590C3
:102130000698401C06900698B842F3D3169806EB12
:1021400080000490CDE9007A32464046049B0A990B
:1021500000F0B8FA0590C4F828800A98E062089860
:10216000206284F8379084F83890059820600498AD
:10217000A0601A98606066622764A4F844A04FF0DB
:10218000000B08E0002104F1780040F82B100BF15F
:10219000010000F0FF0BBBF1000FF3D004F1600071
:1021A000189900F035FF204600F036F800BF00BF58
:1021B000FEF70AF8039000BF00BF94F8370001F063
:1021C00065F9204601F0DAF9204601F0C1FC10481B
:1021D0000088401C0E4908800E480078012807D06E
:1021E00000BF00BF0398FDF7F3FF00BF00BF5BE730
:1021F00000BF00BF0398FDF7EBFF00BF00BFFFF774
:1022000037FD00BF50E70000205B0008282A0020AF
:10221000A80200204902002010B5044603480068C7
:1022200018B1204601490968884710BD28020020DE
:102230002DE9F04104460E464FF000085B48844209
:1022400004D147F24C103080BDE8F0817CB900BF6A
:1022500000BFFDF7B9FF804600BF00BF54480468C7
:1022600000BF00BF4046FDF7B3FF00BF00BF00BF87
:1022700000BFFDF7A9FF804600BF00BF94F83600FD
:10228000082860D2DFE800F004090E10080A0F11D8
:10229000204601F091F961E060E000BF204601F0C6
:1022A000B9FE5BE000BF00BF00BF94F8340008280F
:1022B0003BD2DFE800F0040705080E090A0600BF5C
:1022C00000BF33E000BF00BF00BF204601F001F8AF
:1022D0002CE0206BC068456A15F8377F204600F077
:1022E000F8FF28786978373D884212D095F8370092
:1022F00094F8371088420CD1284600F0DDFE0746DE
:1023000095F83800B84202DA95F8380000E038460F
:102310000746002084F8340095F83700B84203D00F
:102320003946284601F09EFB00E000BF00BF94F84C
:102330003600032803D094F83600072802D120463F
:1023400001F068FE0AE000BF00BF4046FDF740FF15
:1023500000BF00BF46F62D60308075E700BFE06B20
:1023600010B1204600F078FE04F1600000F02EFE6F
:10237000204600F021F8204601F002FC0D480088BC
:10238000401E0C490880204601F02CFCFF2084F8F8
:10239000360000BF00BF4046FDF71AFF00BF00BF78
:1023A00000203080FFF764FC00BF4DE7282A0020A2
:1023B000E4020020A802002010B50446034800688B
:1023C00018B1204601490968884710BD2C02002039
:1023D00070B504460D46002600BF00BFFDF7F4FEB1
:1023E000064600BF00BF1CB10D48006884420AD1F8
:1023F00000BF00BF3046FDF7EBFE00BF00BF47F255
:102400005710288070BD00BF00BF3046FDF7E0FECA
:1024100000BF00BF2946204601F042FC00BFF1E7A3
:10242000E402002010B504460348006818B12046B5
:1024300001490968884710BD300200202DE9F047A6
:1024400080460E4614461D464FF000091EB1B6F5F3
:10245000004F02D100E000BF05E045F6256028806E
:102460000020BDE8F08700BF0CB10020206000BF55
:1024700000BFFDF7A9FE814600BF00BF5F480068AE
:10248000C06CA8B35D480068C06C401E5B49096819
:10249000C8645A480068C76C1CB158480068806C12
:1024A0002060FEF79BFC55490968896C401A534926
:1024B0000968C1F8A00051480068D0F8A4004F494D
:1024C0000968D1F8A010884207D24C480068D0F8BB
:1024D000A0004A490968C1F8A40000BF00BF4846EF
:1024E000FDF776FE00BF00BF002028803846B8E721
:1024F000FFE706F4004058B100BF00BF4846FDF7B3
:1025000067FE00BF00BF46F2B01028800020A8E799
:102510003B48007800280BDD00BF00BF4846FDF7B0
:1025200057FE00BF00BF46F663502880002098E7A2
:10253000434607220021084600F0EEFD00BF00BF21
:102540004846FDF745FE00BF00BFFFF791FB00BF07
:1025500000BFFDF739FE814600BF00BF2748006875
:1025600090F8350020B1012826D0032834D12CE082
:10257000FCB122480068806C2060FEF72FFC1F49E8
:102580000968896C401A1D490968C1F8A0001B48F8
:102590000068D0F8A40019490968D1F8A010884251
:1025A00007D216480068D0F8A00014490968C1F89D
:1025B000A4000020288013E01CB110480068806C43
:1025C000206046F2A91028800AE00CB100202060AB
:1025D00047F2D920288003E046F62E60288000BF0D
:1025E00000BF06480068C76C00BF00BF4846FDF743
:1025F000EFFD00BF00BF384633E70000E4020020D3
:102600007C0200202DE9F04704460E4617461D4681
:102610004FF0000A26B946F2D5202880BDE8F087A1
:102620001FB946F2D5202880F8E700BF00BFFDF7AC
:10263000CBFD824600BF00BF0CB92148046820686A
:1026400068B900BF00BF5046FDF7C2FD00BF00BF24
:1026500000203060386047F252102880DEE794F89E
:10266000440000F0010068B900BF00BF5046FDF70C
:10267000AFFD00BF00BF00203060386047F254104B
:102680002880CBE700BF00BF5046FDF7A1FD00BF8B
:1026900000BF4FF00008D4F8249003E009F10409CA
:1026A00008F10108D9F800000028F7D0C6F800802A
:1026B000206CA0EB080038600020288000BFADE748
:1026C000E4020020F0B50446DDE9055602EB850082
:1026D00020F007004FF0807C071F3846C7F800C085
:1026E000071F38463C60DFF834C2071F3846C7F87A
:1026F00000C04FF0123C071F3846C7F800C04FF02B
:10270000033C071F3846C7F800C04FF0023C071FC4
:102710003846C7F800C0071F38463B60071F3846D9
:1027200039604FF0113C071F3846C7F800C04FF022
:10273000103C071F3846C7F800C04FF0093C071F80
:102740003846C7F800C04FF0083C071F3846C7F8A6
:1027500000C04FF0073C071F3846C7F800C04FF0D5
:10276000063C071F3846C7F800C04FF0053C071F5E
:102770003846C7F800C04FF0043C071F3846C7F87A
:1027800000C006F00407002F7ED04FF0007C071F2A
:102790003846C7F800C0DFF888C1071F3846C7F8B9
:1027A00000C0DFF880C1071F3846C7F800C0DFF857
:1027B00078C1071F3846C7F800C0DFF870C1071F8F
:1027C0003846C7F800C0DFF868C1071F3846C7F8A9
:1027D00000C0DFF860C1071F3846C7F800C0DFF847
:1027E00058C1071F3846C7F800C0DFF850C1071F9F
:1027F0003846C7F800C0DFF848C1071F3846C7F899
:1028000000C0DFF840C1071F3846C7F800C0DFF836
:1028100038C1071F3846C7F800C0DFF830C1071FAE
:102820003846C7F800C0DFF828C1071F3846C7F888
:1028300000C0DFF820C1071F3846C7F800C0DFF826
:1028400018C1071F3846C7F800C04FF0834C071F58
:102850003846C7F800C0DFF804C1071F3846C7F87C
:1028600000C0DFF8FCC0071F3846C7F800C0DFF81B
:10287000F4C0071F3846C7F800C0DFF8ECC0071FD8
:102880003846C7F800C000E047E0DFF8E0C0071FA7
:102890003846C7F800C0DFF8D8C0071F3846C7F869
:1028A00000C0DFF8D0C0071F3846C7F800C04FF09F
:1028B000824C071F3846C7F800C0DFF8BCC0071FAE
:1028C0003846C7F800C0DFF8B4C0071F3846C7F85D
:1028D00000C0DFF8ACC0071F3846C7F800C04FF093
:1028E000814C071F3846C7F800C0DFF898C0071FA3
:1028F0003846C7F800C04FF0804C071F3846C7F86D
:1029000000C04FF07E5C071F3846C7F800C04FF08C
:10291000000C071F3846C7F800C0F0BDA13D0008F5
:102920000000F8410000F0410000E8410000E041F3
:102930000000D8410000D0410000C8410000C04163
:102940000000B8410000B0410000A8410000A041D3
:102950000000984100009041000088410000704153
:102960000000604100005041000040410000304143
:1029700000002041000010410000E0400000C04085
:102980000000A0400000404070B505460C460648D7
:10299000854203D147F25B10208070BD2146284656
:1029A00001F00AFA00BFF8E7282A002010B52948EC
:1029B000006890F8440000F0040020B1254909683F
:1029C0000868FDF73DFF2448006890F8440000F0D7
:1029D000040020B1204909680868FDF73EFF1F4840
:1029E000006810B11D4800688047FEF7F7F90446FB
:1029F0001848006818490968884215D015480068C9
:102A0000D0F89400201A13490968C1F890001148C1
:102A10000068D0F898000F490968D1F89010084470
:102A20000C490968C1F898000B480068C0F8944048
:102A300008480068D0F8B00009490968884205D202
:102A40000748006803490968C1F8B000002004493C
:102A5000086010BDE4020020E80200203C020020D3
:102A6000780200202DE9F04105460E461446002765
:102A700023480078002804DD46F663502080BDE836
:102A8000F08136B1022E05D0042E0AD0082E09D1CD
:102A900001E000BF00BF1DB947F27E202080EEE7B5
:102AA00004E003E045F625602080E8E700BF00BFB2
:102AB00000BFFDF789FB074600BF00BF2346324633
:102AC00029461048006801F047FA208838B100BF55
:102AD00000BF3846FDF77CFB00BF00BFCFE70948C9
:102AE000006800F069FD00BF00BF3846FDF770FBCD
:102AF00000BF00BFFFF7BCF80020208000BFBEE78A
:102B00007C020020E40200202DE9FF5F05460E460E
:102B100017469846DDE90EA4002000905A48007838
:102B2000002804DD46F663502080BDE8FF9F0AF0D0
:102B30000E0BBBF1000F09D0BBF1020F07D0BBF1A8
:102B4000040F10D0BBF1080F0ED101E000BF00BF91
:102B5000B8F1000F06D12FB926B91DB947F27E2072
:102B60002080E2E704E003E045F625602080DCE712
:102B700000BF2AF01E0008B1012000E000200390F1
:102B80000398012803D145F625602080CDE70AF09F
:102B90001000102802D100BF012000E000200290A8
:102BA0000298012818D0B8F57A7F03D347F27B202A
:102BB0002080BAE73B2F03DD47F27A202080B4E77C
:102BC0003B2E03DD47F279202080AEE7632D12DD36
:102BD00047F278202080A8E742F20F70864203DD9A
:102BE00047F279202080A0E7B5F57A7F03DB47F232
:102BF0007820208099E72548D0F800904FF4FA70AB
:102C0000B0FBF9F0404400FB09F04FF47A71B0FBDF
:102C1000F1F14FF461606843C6EB061200EB8200ED
:102C2000384400FB09100190019838B300BF00BF81
:102C3000FDF7CAFA009000BF00BF23465A46144869
:102C40000199006801F088F9208838B100BF00BF01
:102C50000098FDF7BDFA00BF00BF66E70C480068AA
:102C600000F0AAFC00BF00BF0098FDF7B1FA00BF5A
:102C700000BFFEF7FDFF0020208002E047F27E202B
:102C8000208000BF51E700007C020020245B000888
:102C9000E402002001464A1E4FF0E0235A61084A30
:102CA000106820F07F4000BF10601A46126942F0A1
:102CB00005021A611A46126942F002021A6170474F
:102CC00020ED00E0244A2549254A264A2649274A7C
:102CD0002748284A284A294A294A2A482A482B4A62
:102CE0002B482C4A2C482D4A2D482E482E482F4838
:102CF0002F4A304A304A3148314A324A3248334802
:102D000033483448344835483548364A364A374AD5
:102D1000374A384838483948394A3A4A3A4A3B48A3
:102D20003B483C483C493D483D4A3E4A3E4A3F4A72
:102D30003F4A404A404A4148414A424A4248434841
:102D4000434A444A4448454A454A4648464800BFE3
:102D500000BF00BF70470000585B0008C05C00085F
:102D6000595B00085A5B00085C5B0008605B000868
:102D7000645B0008615B00088C5B00088D5B0008E9
:102D80008E5B0008905B0008925B0008965B000871
:102D9000985B0008B85B0008BA5B0008BC5B0008E1
:102DA000BE5B0008C05B0008C25B0008C45B000893
:102DB000F45B0008F55B0008F65B0008F85B0008B0
:102DC000FA5B0008FB5B0008FC5B0008FE5B000888
:102DD000005C0008025C0008045C0008065C000857
:102DE000085C0008385C0008395C00083A5C0008A0
:102DF0003B5C00083C5C00083E5C0008405C00084E
:102E0000685C0008695C00086A5C00086B5C00088C
:102E10006C5C00086E5C0008705C0008745C000864
:102E2000755C0008765C0008775C0008785C000838
:102E3000795C00087A5C00087B5C00087C5C000818
:102E40007E5C00087F5C0008805C0008825C0008F3
:102E5000845C0008855C0008885C0008B85C000899
:102E6000B95C0008BA5C0008BC5C00080021034A99
:102E70001160034A11800180704700004C0200205D
:102E800050020020002419E000BF00BFFDF79CF9AC
:102E9000044600BF00BF0A480068401C084908609B
:102EA00008480068401C0749086000BF00BF204672
:102EB000FDF78EF900BF00BFFEF724FCE4E7000039
:102EC000440200208C02002010B58AB00446002085
:102ED0000E4908600B2000210591CDE907040691F9
:102EE00008460B4909680B4A12680B4B1B68CDE971
:102EF0000132CDE903103F200023084A08A10090C9
:102F00000C48FFF7C1F80AB010BD000044020020D1
:102F1000CC5A0008C85A0008C45A0008852E000878
:102F200075432F4F532D4949492049646C652054FE
:102F300061736B00282A00200021034A1160034AB4
:102F400011800180704700005402002058020020C8
:102F500070B501461A4D2D681DB945F21E750D80DC
:102F600070BD184D2D881DB945F21D750D80F7E710
:102F7000134D28682A681032124D2D886D1EACB290
:102F8000002308E00260002545600581C56010301F
:102F900010325D1CABB2A342F4DB00250560456036
:102FA0000581C560064D2D68074E3560054D2D889D
:102FB000B5800025F58035810D8000BFD0E7000089
:102FC000045B0008FC5A0008E82A002010B50146FE
:102FD00048894B89002B17DD0A680C4B1B6813606E
:102FE0000A4C4B6823602346DB884C891B1B074C2B
:102FF000E38023469B884C892344044CA380002310
:103000004B818B810B604B6010BD0000E82A0020D3
:10301000018100224281828102604260704700008B
:1030200009A1C161002141610849096811B9002164
:10303000816105E0054909688161044909684861C1
:103040000249086070470000200000005C02002078
:10305000C26B0A62C16370472DE9F8430546EC6B09
:1030600026E0D4F82090FDF7B9FE0646E662214638
:10307000284600F037F804F10808B8F8080020B92D
:10308000002084F82800606211E0D8F8000087680A
:103090006562012084F8280021463846FFF7D8FFF2
:1030A00000231A4639462046009600F04DF94C465A
:1030B000002CD6D1BDE8F88330B504463F2004F19A
:1030C0003C010BE00D68AB682BB19D6895F837208B
:1030D000824200DA10460D6805F120010D68002DCE
:1030E000F0D130BD024602F13C0002E0036803F17A
:1030F000200003688B42F9D103681B6A03607047A4
:103100000021034A1160034A1180018070470000CA
:103110005C020020600200202DE9F04105460C46CB
:1031200016461F461548006880F834600020134991
:10313000096881F8350039461048006800F07CFCC9
:103140006CB104F10808EC60012229460B480068C4
:1031500000F016F82946404600F088F807E0002005
:1031600006490968A1F8460004490968086303484C
:103170000168204600F018F8BDE8F081E402002064
:1031800010B5A0F84620016300230AE000244C603B
:103190000C600C614C610C83CC61886020315C1C3C
:1031A000A3B29342F2DB10BD30B548B14568C1F817
:1031B000BC5000F10804226893681D6AC56113E0E1
:1031C00091F83450022D02D0072D08D103E007A555
:1031D000C1F8BC5007E007A5C1F8BC5003E008A542
:1031E000C1F8BC5000BF00BF30BD00005461736B1C
:1031F000205100005461736B2053656D0000000086
:103200002000000030B507A5C1F8BC5000F108044B
:1032100022681AB193681D6AC56101E001A5C56104
:1032200030BD0000200000002DE9F0410446256B70
:10323000B4F8467011E0D5F80C8008F10806308922
:10324000012807D92946304600F05DF82946304666
:1032500000F00CF82035781E87B2002FEBD1BDE8C6
:10326000F08100210160416001817047F0B58E68F6
:1032700096F8375007893FB90127078100274F602B
:103280000F600160416023E007897F1C07810268AD
:1032900006E0946894F83770AF4200DD02E05268AF
:1032A000002AF6D100BF32B900274F6043680B6097
:1032B000596041600CE017682FB9116000270F605A
:1032C0004A60016004E013680B604A605960116055
:1032D000F0BD2DE9F0410446256BB4F846600AE0E4
:1032E000D5F80C8008F108072946384600F00BF89D
:1032F0002035701E86B2002EF2DC0020A4F84600B5
:103300002063BDE8F08110B50489012C03D10024AD
:103310000460446011E00C6824B94A680024146019
:1033200002600AE04C6824B90B6800245C604360CA
:1033300003E00B684A685A6013600489641E0481C4
:1033400000244C600C6010BD2DE9F84306460C4685
:1033500017469846089D94F8360008285BD2DFE8A7
:1033600000F0040508090607323300BF00BF00BFA4
:1033700052E000BF94F83400032807D143463A4690
:1033800021463046009500F04AF803E0A765A4F80E
:103390005C80A56436B12046FFF79BFF214630468E
:1033A000FFF730FF94F83600032802D1204600F0E2
:1033B00031FE204600F0ACF800203434A07060707C
:1033C00004F8340928E000BF94F83400032807D13A
:1033D00043463A4621463046009500F020F803E087
:1033E000A765A4F85C80A56436B12046FFF771FF9D
:1033F00021463046FFF706FF94F83600072802D131
:10340000204600F007FE04203434A07000206070D5
:1034100004F8340900E000BF00BFBDE8F883F0B550
:103420000446059E086BB1F846500AE0C768A742FB
:1034300004D1046142610383C66104E020306F1E41
:10344000BDB2002DF2DC00BFF0BD000070B500255C
:10345000074C03E005F12000C5B2241D20680028B8
:10346000F8D02068FCF7BBFE2844C5B2284670BDE2
:1034700020020020002004E00021034A42F820102E
:10348000401C0228F8D370472002002030B54209C2
:1034900000F01F030121C3F11F04A140034C54F8A5
:1034A00022400C43014D45F8224030BD200200204F
:1034B00030B5420900F01F030121C3F11F04A140F0
:1034C000034C54F822408C43014D45F8224030BD56
:1034D000200200200021034A1160034A118001806C
:1034E00070470000680200206C02002000210AE002
:1034F00001EB4102054B03EB8200002202810260D6
:1035000042604A1CD1B24029F2D37047F42A00200D
:1035100010B5044694F83700FFF7B8FF94F8370069
:1035200005490978884203D1204600F027F802E0D7
:10353000204600F003F810BD6202002010B590F89C
:10354000373003EB43030C4C04EB83010B893BB98D
:1035500001230B810023C36003610860486009E018
:103560000B895B1C0B810B68C360002303610A6835
:103570001061086010BD0000F42A002010B590F81A
:10358000373003EB43030B4C04EB83010B893BB94E
:1035900001230B810023C36003610860486008E0D9
:1035A0000B895B1C0B810023C3604A680261D060F9
:1035B000486010BDF42A00202DE9F041054695F839
:1035C000370000EB4000124901EB80042F69EE68E0
:1035D00087B946B9002020812060606095F83700E7
:1035E000FFF766FF0EE02089401E20810020306139
:1035F000266007E02089401E2081FE600EB96760CA
:1036000000E0376100202861E860BDE8F08100003B
:10361000F42A002010B504480078012803D1FDF7F2
:10362000DDFB0249086010BD7C0200207002002012
:1036300010B50A48007880B9FDF7D0FB0849096841
:10364000441A08480068A04201D2064804600648AF
:103650000068A04201D20448046010BD7C02002032
:103660007002002074020020780200200021034A2A
:103670001160034A11800180704700008002002021
:103680008402002086B00020009006E0A849096866
:10369000480001AA0021FFF7E5F9A64800780128B3
:1036A000F4D101A8FEF7DAFB0027A3480068A0497F
:1036B0000968884205D9A04800689D490968B0FB9F
:1036C000F1F727B99C4800680A21B0FBF1F72EE119
:1036D000FDF784FB804600BF00BFFCF775FD00903E
:1036E00000BF00BF954800689549086000209349D5
:1036F000086000BF00BF0098FCF76AFD00BF00BF74
:10370000904800688E490968884248D98D48006809
:103710008D49884205D242F2107003900120029038
:1037200023E0884800688949884205D24FF47A70BE
:1037300003900A20029018E0824800688449884279
:1037400003D26420039002900FE07E480068814914
:10375000884205D20A2003904FF47A70029004E068
:103760000120039042F2107002907648016802989E
:10377000B1FBF0FA7249039809684843B0FBFAF0CC
:1037800042F21071081A7449088074480088098848
:10379000884208DA704800887049088003E042F2E5
:1037A00010706D490880FEF765FC002500BF00BF62
:1037B000FCF70AFD009000BF00BF6948046800BF25
:1037C00000BF0098FCF704FD00BF00BF26E000BF6B
:1037D00000BFFCF7F9FC009000BF00BF54F8980F41
:1037E0006060002044F8980900BF00BF0098FCF713
:1037F000EFFC00BF00BFD4F89C00054400BF00BF31
:10380000FCF7E2FC009000BF00BFD4F8B84000BF56
:1038100000BF0098FCF7DCFC00BF00BF002CD6D135
:1038200045B34948854205D242F2107005904FF0E9
:10383000010B1BE04548854205D24FF47A70059094
:103840004FF00A0B12E04248854203D264200590F3
:1038500083460BE03F48854204D20A2005904FF48E
:103860007A7B03E00120059042F2107BB5FBFBF070
:10387000049003E0002005900120049000BF00BFE9
:10388000FCF7A2FC009000BF00BF3548046800BFF1
:1038900000BF0098FCF79CFC00BF00BF2BE0D4F8F1
:1038A0009C00059948430499B0FBF1F086B242F2BE
:1038B0001070864200D90646A4F88860B4F88A00E1
:1038C000B04201DAA4F88A6001AB04F1A802111D2C
:1038D0002046FEF797FE00BF00BFFCF775FC009086
:1038E00000BF00BFD4F8B84000BF00BF0098FCF78D
:1038F0006FFC00BF00BF002CD1D11A48007801280E
:1039000005D100201749087001A8FEF7A7FAFDF7B6
:1039100065FAA0EB080914480068484502D212482D
:10392000C0F8009001AA00213846FFF79BF8CFE6C7
:103930000C5B000898020020245B00088C02002029
:103940009402002090020020801A060000093D0029
:10395000005A62020084D717880200208A020020E1
:10396000A4020020860200209C02002010B58AB02C
:10397000044600201F4908601F4908601F4908606D
:103980001F4908701F4908701F48006820B946F693
:103990002B6020800AB010BD1C4800681C490968D3
:1039A000884203D246F62C602080F3E7194800785D
:1039B0003F2803D346F62A602080EBE7032000214E
:1039C0000591CDE907040691084610490968124A95
:1039D00012680D4B1B68CDE90132CDE903100D488B
:1039E000007800230D4A0EA100901248FEF74CFB10
:1039F00000BFCFE78C02002094020020900200203C
:103A00009802002086020020105B0008185B000866
:103A1000205B0008085B0008145B0008853600087E
:103A200075432F4F532D49494920537461742054D5
:103A300061736B00F42D002070B504460D4645B14E
:103A40002A462146064800F043FA032084F836004F
:103A500002E0022084F836002046FFF7ADFD70BD7D
:103A6000BC0200202DE9F04104460D4600BF0026AF
:103A700094F8377094F8360008285FD2DFE800F039
:103A800004191E1F1A1B20212046FFF795FD84F8FC
:103A9000375094F83700FFF7F9FC2C48006884424F
:103AA00003D12046FFF74AFD02E02046FFF766FDFE
:103AB00046E000BF00BF84F8375041E000BF00BFC0
:103AC00000BF84F8375094F83400082831D2DFE87A
:103AD00000F0300431050B06073200BF00BF00BF05
:103AE0002046FFF7A1FB27E02046FFF79DFB206B58
:103AF000C068466AAF4205DD96F83700A84217DC79
:103B0000002615E096F83700B84211D13046FFF78D
:103B1000D3FA054696F83800A84202DA96F838003B
:103B200000E02846054696F83700A84200D1002656
:103B300002E000BF00BF00BF00BF01E0BDE8F081B0
:103B400000BF3446002C92D100BFF7E7E40200200A
:103B50000021C0F8B4100949096819B90021C0F85A
:103B6000B81007E005490968C0F8B81003490968AA
:103B7000C1F8B4000149086070470000A4020020A9
:103B8000D0F8B420D0F8B8104AB90D4B196011B173
:103B90000023C1F8B4300023C0F8B8300FE029B9D1
:103BA0000023C2F8B830C0F8B43008E0C2F8B8104A
:103BB000C1F8B4200023C0F8B830C0F8B430704762
:103BC000A40200200021044A1160044A1180044A22
:103BD0001160018070470000A4020020A8020020AC
:103BE000A002002070B5044600202060A060606044
:103BF000E06020616061A061E06126A02062002099
:103C00006062A062E062A064A065A4F85C0000218C
:103C100004F16000FFF7FCF9002020676067E067AF
:103C2000A4F88400C4F88000002506E0002104F117
:103C3000780040F82510681CC5B2002DF6D0002091
:103C40003434A061E0662067E06084F85200A06729
:103C500060672082E0612062A4F85400A4F8560056
:103C6000A065E065FDF7BAF80646266600206066A6
:103C7000E06720706070A0704020E070207100202C
:103C8000A060C4F88000C4F8840004A0C4F88800D0
:103C9000343C70BD3F5461736B0000002000000095
:103CA00070B504460D46002600BF00BFFCF78CFA35
:103CB000064600BF00BF0020288094F83600082880
:103CC0005ED2DFE800F0040506071227394B00BF7B
:103CD00000BF00BF00BF00BF3046FCF779FA00BF4D
:103CE00000BF47F25310288055E014F8860F401E9D
:103CF000207014F8860928B9002084F83600204680
:103D0000FFF706FC00BF00BF3046FCF761FA00BFBA
:103D100000BF40E014F8860F401E207014F886099A
:103D200010B9012084F8360000BF00BF3046FCF710
:103D30004FFA00BF00BF2EE014F8860F401E20701F
:103D400014F8860910B9022084F8360000BF00BFBD
:103D50003046FCF73DFA00BF00BF1CE014F8860FA8
:103D6000401E207014F8860910B9032084F836002C
:103D700000BF00BF3046FCF72BFA00BF00BF0AE0CF
:103D800000BF00BF3046FCF723FA00BF00BF46F675
:103D90002D60288070BD00BFFDF76AFF00BFF9E706
:103DA00008B504480068FEF73DFB69460020FEF7B1
:103DB0003FFA08BDE402002070B504460D46002617
:103DC00000BF00BFFCF700FA064600BF00BF0CB9F9
:103DD0003D4804683C48006884420ED13B48007866
:103DE00000280ADD00BF00BF3046FCF7F1F900BF34
:103DF00000BF46F66350288070BD0020288094F8EC
:103E00003600082850D2DFE800F0041523313F4087
:103E10004142042084F83600012084F886002046C0
:103E2000FFF7CAFB00BF00BF3046FCF7D1F900BF67
:103E300000BF44E0052084F83600012084F88600A5
:103E400000BF00BF3046FCF7C3F900BF00BF36E03B
:103E5000062084F83600012084F8860000BF00BFE9
:103E60003046FCF7B5F900BF00BF28E0072084F812
:103E70003600012084F8860000BF00BF3046FCF702
:103E8000A7F900BF00BF1AE000BF00BF00BF94F851
:103E90008600401C84F8860000BF00BF3046FCF757
:103EA00097F900BF00BF0AE000BF00BF3046FCF733
:103EB0008FF900BF00BF46F62D6028809CE700BF49
:103EC000FDF7D6FE00BF97E7E40200207C02002049
:103ED00070B51546066846B90D6500264E618E61BF
:103EE000C86101600126868033E0046802682B46C1
:103EF00024E0166D9E421DD396696EB90B650026AF
:103F00008E614A61C861166DF61A1665916101608D
:103F10008688761C86800CE094690B658C614A610A
:103F2000C861166DF61A1665916161618688761C06
:103F3000868070BD166D9B1B14465269002AD8D12D
:103F40000B658C6100264E61C86161618688761CB4
:103F5000868000BFEDE700002DE9F04104460D46E4
:103F600090461F46B8F1040F0ED1284800682E1A5B
:103F700016F5803F01D8002E3CD10020206547F285
:103F80007E203880BDE8F081B8F1080F29D11F49A3
:103F9000606D0968081AA84205D92E461B480068BA
:103FA0002844606526E01949606D0968081A2E1AD0
:103FB00016F5803F00D886B91449606D0968081A63
:103FC000B0FBF5F005FB0050616D08446065002012
:103FD000206547F27E203880D4E7606D2844606514
:103FE00008E00DB12E4605E00020206547F27E2056
:103FF0003880C7E7012084F836003246214604485D
:10400000FFF766FF0020388000BFBBE7AC0200204E
:10401000B402002030B5C26983694169ABB929B9DE
:104020000024146094800465C4611EE000248C6147
:104030000C6D056D2C440C6511609488641E948091
:10404000002444610465C4610FE0596121B18B61B2
:104050000C6D056D2C440C65002484619488641EED
:104060009480002444610465C46130BD7047000041
:104070002DE9F0474FF0000900BF00BFFCF7A4F89E
:10408000814600BF00BFFCF7A9FE064600271D4D74
:104090002C683CB3206D401E20651FE0781C87B261
:1040A00094F83600012806D1002084F83600204616
:1040B000FFF72EFA06E094F83600052802D1042016
:1040C00084F83600606928602C6814B90020A88044
:1040D00007E0A888401EA8800020A061206D00286D
:1040E000DCD000BFEF80FCF779FEA0EB060800BF34
:1040F00000BF4846FCF76CF800BF00BF4046BDE873
:10410000F0870000B40200202DE9F05F4FF0000BB3
:1041100000BF00BFFCF758F8834600BF00BFFCF7A4
:104120005DFE07464FF000083B4D2C68002C63D025
:10413000206D401E20655BE008F101001FFA80F849
:10414000002694F83400042802D1206BC068466A27
:104150000020A065A4F85C00FCF740FEA0642046A7
:10416000FFF7B7F894F83600032806D12046FFF78A
:10417000CFF9002084F8360006E094F836000728CE
:1041800002D1042084F83600032084F83500002092
:1041900084F8340006B396F8370096F83810884251
:1041A0001AD096F8370094F83710884214D1304668
:1041B000FEF782FF814696F83800484502DA96F805
:1041C000380000E04846814696F83700484503D05D
:1041D00049463046FFF746FC606928602C6814B9F0
:1041E0000020A88007E0A888401EA8800020A061C9
:1041F000206D0028A0D000BFA5F80680FCF7EEFDDA
:10420000A0EB070A00BF00BF5846FBF7E1FF00BF65
:1042100000BF5046BDE8F09FBC02002008B5002753
:1042200028E06B46002211461046FEF707F9BDF85C
:104230000000F8B900BF00BFFBF7C6FF074600BF8C
:1042400000BF0D480068401C0B49086000BF00BF5C
:104250003846FBF7BDFF00BF00BFFFF709FF06466A
:10426000FFF752FF0546741904480068A04201D2C6
:1042700002480460D5E70000AC020020B002002034
:1042800010B58AB004460020204908602049086023
:10429000204908601E498880C8801E498880C880DF
:1042A0001D48006820B947F2122020800AB010BDD6
:1042B0001A4800681A490968884203D247F2132055
:1042C0002080F3E7174800783F2803D347F21120F6
:1042D0002080EBE70B2000210591CDE90704069132
:1042E00008460E490A68104909680B4B1B68CDE95E
:1042F0000131CDE903200B48007800230B4A0CA1C3
:1043000000901048FDF7C0FE00BFCFE7AC020020D0
:10431000B4020020BC0200202C5B0008345B0008C3
:10432000205B0008285B0008305B00081D42000885
:1043300075432F4F532D494949205469636B2054CD
:1043400061736B00B42E002010B58AB004460020C3
:104350002F4908602F4908602F4908802F480068BE
:1043600040B12F4800682D490968B0FBF1F02D4994
:10437000086006E02A4800680A21B0FBF1F02949EC
:10438000086028480068284908600020274908601C
:1043900027490860224627A12A48FDF783FA20888A
:1043A00008B10AB010BD2848006818B947F2473074
:1043B0002080F6E72548006825490968884203D22D
:1043C00047F248302080ECE7224800783F2803D3AA
:1043D00047F246302080E4E70B20002105910A4691
:1043E000CDE907040691194800681B490968164B76
:1043F0001B68CDE90131CDE903021648007800239E
:10440000164A17A100901C48FDF73EFE00BFC8E702
:10441000C4020020CC020020C8020020405B00083B
:10442000245B0008DC020020E0020020D80200200B
:10443000D40200204F5320546D72204D757465785E
:1044400000000000742F0020445B00084C5B000853
:10445000205B00083C5B0008485B000899440008AA
:1044600075432F4F532D4949492054696D6572207A
:104470005461736B00000000A42F00200EB502A849
:1044800001AB0022114600900148FDF743FA0EBD32
:10449000742F0020704700001CB53FE001AB6A4656
:1044A00000210846FDF7CAFFFFF7E8FFFCF796FC7E
:1044B00006461B480068401C1949086019480468F2
:1044C0001FE001A8FDF726FCD4F81080A069401E6B
:1044D000A061A06980B9A08C022802D1206AA061E5
:1044E00005E0204600F022F8032084F82600A568A5
:1044F00015B12046E168A847444601A8FDF73AFCFB
:1045000000BF002CDDD1FCF769FC871B00F030F800
:1045100005480068B84201D203480760BEE70000C2
:10452000D8020020CC020020D402002010B50E4B8F
:104530001B68834206D101690B4B196039B1002316
:104540004B6104E0416902690A6102B151610123D2
:1045500080F82630002303614361044B1B885B1EF7
:10456000024C238010BD0000CC020020C8020020B5
:1045700008B56A4600210248FDF7B4FA08BD0000FC
:10458000742F00207047000029B1064A12680243C8
:10459000044B1A6004E0034A12688243014B1A601C
:1045A000704700003038024029B1064A12680243C1
:1045B000044B1A6004E0034A12688243014B1A60FC
:1045C000704700004038024029B1064A1268024391
:1045D000044B1A6004E0034A12688243014B1A60DC
:1045E000704700002038024029B1064A1268024391
:1045F000044B1A6004E0034A12688243014B1A60BC
:104600007047000044380240F0B500210022002429
:10461000022500260223324F3F6807F00C0121B12A
:10462000042905D0082937D105E02E4F076036E070
:104630002D4F076033E02A4F3F1F3F68C7F3805676
:10464000274F3F1F3F6807F03F036EB1264FB7FB70
:10465000F3F7DFF88CC0ACF1040CDCF800C0CCF34D
:10466000881C07FB0CF40CE01E4FB7FBF3F7DFF8D8
:1046700070C0ACF1040CDCF800C0CCF3881C07FB64
:104680000CF4174F3F1F3F68C7F301477F1C7D00A5
:10469000B4FBF5F7076002E0124F076000BF00BFF0
:1046A0000F4F3F6807F0F0010909104F7A5C076867
:1046B000D74047600A4F3F6807F4E051890A0B4F23
:1046C0007A5C4768D7408760054F3F6807F46041D0
:1046D000490B064F7A5C4768D740C760F0BD0000C1
:1046E000083802400024F40000127A000000002084
:1046F00010B588B0044601210846FFF745FF0121A7
:104700004020FFF741FF01214804FFF74DFF07223A
:1047100002213148FCF782FD072203212E48FCF7D5
:104720007DFD02208DF81C0000208DF81E000C205D
:10473000069003208DF81D0001208DF81F0006A9AA
:104740002548FCF723FD01208DF81C00000206908F
:1047500000208DF81E0001208DF81F0003208DF829
:104760001D0006A91D48FCF711FD02940020ADF8BC
:1047700014000C20ADF812000020ADF81000ADF8C8
:104780000E00ADF80C0002A9154800F087F90122CF
:1047900040F22551124800F05BF926208DF8040004
:1047A00001208DF8070003208DF805008DF8060024
:1047B00001A8FCF75FFF4FF480710848FCF751FD3A
:1047C00001228021064800F010F90121044800F080
:1047D00000F908B010BD00000000024000180240BF
:1047E00000440040704700000CB50020019000908C
:1047F0003448006840F480303249086000BF3148D6
:10480000006800F4003000900198401C019000986E
:1048100018B90198B0F5A04FF1D12A48006800F40A
:10482000003010B10120009001E0002000900098BD
:10483000012846D123484030006840F0805021498B
:10484000403108602048006840F440401E4908603C
:104850001C48083000681B49083108600846006899
:1048600040F4004008600846006840F4A05008602A
:104870001648091F0860081F006840F08070091F73
:10488000086000BF0F48006800F000700028F9D0F1
:1048900040F205700E4908600A480830006820F0B0
:1048A00003000849083108600846006840F002002B
:1048B000086000BF03480830006800F00C000828BA
:1048C000F8D10CBD00380240007000400854400789
:1048D000003C024010B500F035F810BD10B5154889
:1048E000006840F47000134908601348006840F005
:1048F00001001149086000200F49083108600E4886
:1049000000680E4908400C4908600D48091D086000
:10491000081F006820F48020091F08600020064955
:104920000C310860FFF760FF4FF0006001498039EB
:10493000086010BD88ED00E000380240FFFFF6FE81
:10494000103000240448006820B103480068401E6D
:1049500001490860704700001002002010B540F2C5
:104960002661054800F04AF828B1002240F226618D
:10497000014800F06DF810BD0010014010B540F284
:1049800025510D4800F03AF818B10B4800F0F0F846
:10499000C4B240F22661084800F030F850B14FF43C
:1049A00080710648FCF75DFC002240F22661024857
:1049B00000F04EF810BD0000004400400018024016
:1049C00001F40072B2F5007F00D100BFCA4302803B
:1049D000704721B1828942F40052828104E08289C9
:1049E0004DF6FF731A40828170471AB1838A0B43D8
:1049F000838202E0838A8B438382704770B50246CC
:104A0000002400230025002040F66A16B14200D1A0
:104A100000BFC1F3421501F01F03012606FA03F39C
:104A2000012D02D19689334006E0022D02D1168A6B
:104A3000334001E0968A33400C12012606FA04F452
:104A40001688344013B10CB1012000E0002070BD85
:104A5000F0B50346002400260025002040F66A1722
:104A6000B94200D100BF1846C1F3421401F01F063D
:104A7000012707FA06F5012C01D10C3004E0022CC5
:104A800001D1103000E014301AB107682F430760DD
:104A900002E00768AF430760F0BD00002DE9FF4763
:104AA00005460E460024A14600BFA046B08900B1CD
:104AB00000BF2C8A24F44054F08804432C82AC8933
:104AC00041F20C608443B0883189084371890843FE
:104AD0000443AC81AC8A24F44074B0890443AC82B2
:104AE0006846FFF791FD2048854202D01F48854265
:104AF00002D1DDF80C9001E0DDF80890A88900F4FF
:104B0000004040B109EBC90000EB091031684900D1
:104B1000B0FBF1F707E009EBC90000EB09103168C1
:104B20008900B0FBF1F76420B7FBF0F00401200925
:104B3000642101FB1078A88900F4004040B13220C4
:104B400000EBC800B0FBF1F000F00700044308E000
:104B5000322000EB08106421B0FBF1F000F00F00F0
:104B600004432C81BDE8FF87001001400014014080
:104B700001468888C0F30800704700BFFEE70000C8
:104B800000B591B001214805FFF7FEFC1F48FCF776
:104B90007DF900BF1D48FCF725FA0028FAD14FF037
:104BA000006002901A4803901A4804904020059033
:104BB000C0000690002007904FF48060089000200D
:104BC00009900A900B904FF480300C9000200D90CB
:104BD00003200E9000200F90109002A90B48FCF7C4
:104BE0005BFA11208DF8040001208DF807000320E6
:104BF0008DF805008DF8060001A8FCF73BFD0122A9
:104C000010210248FCF72AFA11B000BDA060024052
:104C1000044400401000002003B4019841000098B3
:104C200050EAC12018BF04204A0D18BF40F001000F
:104C300040F2FF72B2EB515F08BF40F00200012862
:104C400008BF052002B0704710B52F499FED2C1BFF
:104C50002DED020B84B0059820F000408842D8BFAB
:104C60009DED040B2DDD2949884209D1049840B9F6
:104C70004FF0010000F090FE00F04EFE06B010BDB7
:104C800005DB9DED040B00F03BFE06B010BD684651
:104C90009DED040B00F04CFA10F0030004BF9DEDF5
:104CA000021B9DED000B0CD001280ED09DED021BC8
:104CB0009DED000B022817D0012000F089FD06B001
:104CC00010BD00F051FC06B010BD9DED021B9DED26
:104CD000000B012000F07CFD51EC100B81F0004135
:104CE00006B041EC100B10BD00F03EFC51EC100B77
:104CF00081F0004106B041EC100B10BD0000000037
:104D00000000000000000000FB21E93F0000F07FF0
:104D100070B52DED020B2DED0A8B82B00D98C40FEE
:104D200020F00045AE48854248D3AE48854219D3AD
:104D30000C99C5F31300084309D09DED0C0B02B08C
:104D4000BDEC0A8B02B0BDE8704000F0D9BD002C6C
:104D500014BF9FEDA50B9DED0C0B02B0BDEC0A8BB3
:104D600002B070BD9FEDA20B53EC102B9DED0C0B10
:104D700051EC100BFBF702FD0AD2022000F00CFEF2
:104D800002B0BDEC0A8B02B0BDE8704000F0D4BDAB
:104D90009FED990B53EC102B9DED0C0B51EC100B70
:104DA000FBF7D4FC0AD2022000F0F6FD02B0BDEC05
:104DB0000A8B02B0BDE8704000F0CEBD90489FED78
:104DC00092BBA8425CD29248854219D2914878445D
:104DD00000EBC40090ED000B53EC102B9DED0C0B81
:104DE00051EC100BFBF7A7FA41EC1A0B8A487844F8
:104DF00000EBC40090ED009BC4F10100041B36E001
:104E00009FED870B53EC102B9DED0C0B51EC100B11
:104E1000FBF797FA41EC100B8348784400EBC40091
:104E200090ED001B51EC100B53EC112BFBF7E2F94A
:104E3000FBF76DFC0446FBF759FC41EC180B9FEDAA
:104E40007C0B53EC102BFBF77CFA9DED0C1B53EC09
:104E5000112BFBF773FA41EC1A0B9FED770B51EC1A
:104E6000180B53EC102BFBF76CFA41EC190B51ECBF
:104E70001A0B53EC192BFBF75EFACDE90C011BE082
:104E80006F48854217D29FED700B53EC102B9DEDB0
:104E90000C0B51EC100BFBF7ADF953EC1B2BFBF794
:104EA0006DFC08D29DED0C0B53EC1B2B51EC100B41
:104EB000FBF7A0F96EE000249DED0C0B53EC102BDA
:104EC00051EC100BFBF73DFA41EC180B6048052143
:104ED000B0EE480AF0EE680A784400F0FDFB53ECAF
:104EE000182B51EC100BFBF72CFA9DED0C1B53EC1F
:104EF000112BFBF723FA41EC180B9FED570B5CB31A
:104F000053EC182B51EC100BFBF715FA9DED0C0B25
:104F100041EC1C0B53EC182B51EC100BFBF711FA66
:104F200053EC1C2BFBF773FB53EC192BFBF706FA26
:104F300053EC1A2BFBF7FFF953EC1B2BFBF7FEF995
:104F4000CDE900016FF47F70844226DB01EB045051
:104F500001909DED000B00E753EC102B51EC180B6A
:104F6000FBF7E9F99DED0C0B41EC190B53EC182BF9
:104F700051EC100BFBF7E5F953EC192BFBF747FB52
:104F80009DED0C1B53EC112BFBF7D5F953EC1B2BB0
:104F9000FBF7D4F941EC100BDFE608464FF07A51ED
:104FA00001EB04519FED2E0B084453EC102B0190A4
:104FB0009DED000B51EC100BFBF7C3F90D4645ECD2
:104FC000100B044651EC100BFFF726FE042808BF17
:104FD00000F0C2FC45EC104BBFE6000000000000F2
:104FE000422E86400000F07F00000000000000001C
:104FF000EF39FAFE422E864051302DD5104987C038
:10500000422ED63F00000000000000000000F03FEC
:10501000B2A2F03F060F0000F60E000000000000F4
:10502000FE822B654715F73FAA0E00000000000026
:105030000000E0FE422EE63F763C7935EF39EA3D4E
:105040000000303E000000009C7500883CE4377E84
:105050001C0E0000000000000000000000000040E6
:10506000000000000000700110B52F499FED2C1BBF
:105070002DED020B84B0059820F000408842DCBF83
:1050800000209DED040B32DD2849884209D10498A7
:1050900040B94FF0010000F07FFC00F03DFC06B08D
:1050A00010BD05DB9DED040B00F02AFC06B010BD21
:1050B00068469DED040B00F03BF810F0030011D0A2
:1050C000012818D09DED021B9DED000B02281AD07F
:1050D00000F04AFA51EC100B81F0004106B041ECAF
:1050E000100B10BD9DED021B9DED000B012000F08B
:1050F0006FFB06B010BD9DED021B9DED000B00F097
:1051000033FA06B010BD012000F062FB51EC100B29
:1051100081F0004106B041EC100B10BD0000000012
:105120000000000000000000FB21E93F0000F07FCC
:105130002DE9F14F04462DED020B2DED088B8AB0C1
:105140009FEDE70B80ED020B139EE74826F000452C
:1051500085420ADC9DED120B002084ED000B0AB0A5
:10516000BDEC088B03B0BDE8F08FE0489FEDE0ABED
:105170009FEDE1BBA84247DDE14F9FEDE39B9FED33
:10518000E48B9DED120B53EC1A2B51EC100B002EFF
:105190001CDDFBF7D0F841EC100BBD4208D053ECFE
:1051A0001B2B51EC100BFBF7C6F8C4E900010BE018
:1051B00053EC192B51EC100BFBF7BDF853EC182BEB
:1051C000FBF7B9F8C4E900010120C8E7FBF712F8C2
:1051D00041EC100BBD4208D053EC1B2B51EC100BD3
:1051E000FBF708F8C4E900010BE053EC192B51EC74
:1051F000100BFAF7FFFF53EC182BFAF7FBFFC4E98B
:1052000000014FF0FF30AAE7C348A84279DB9DEDCB
:10521000120B51EC100B00F00DFC41EC180B9FED44
:10522000C00B53EC102BFBF78CF89FEDBF1B53EC1E
:10523000112BFAF7DFFFFBF76AFA0746FBF756FA7E
:1052400041EC190B53EC1A2BFBF77BF853EC182BA2
:10525000FBF774F841EC180B53EC1B2B51EC190BBA
:10526000FBF76FF8DFF8C8A241EC100B4FEA1558B6
:105270000125FA4453EC102B51EC180BFBF75BF8AB
:10528000032DC4E900013DD0C1F30A5005EB4511DF
:10529000A8EB00001139814234DA0AEB051BB0EEAD
:1052A00048AA9BED000BF0EE68AA53EC102B51ECD2
:1052B000190BFBF746F841EC1B0B51EC1A0B53ECA6
:1052C0001B2BFBF738F841EC180B51EC1A0B53EC85
:1052D000182BFBF730F853EC1B2BFBF72CF89BED4E
:1052E000020B41EC1A0B53EC102B51EC190BFBF792
:1052F00028F853EC1A2BFBF71EF841EC100B6D1C31
:10530000B8E70EE0002EA8BF3846BFF628AF94EDF0
:10531000000B51EC100B81F00041C4E90001784210
:105320001DE7C6F3130040F4801EC6F30A50A0F236
:10533000F530471100F01F05C5F12000DDF848B039
:1053400008900020069007900520EC467949002D32
:1053500007EB0002794408BF51F8221009D051F838
:10536000223001EB8201AB404A68089922FA01F130
:105370001943A1FB0E26A1FB0B131A449A4234BF1A
:105380000123002303EB06080CEB8003D3E901A6FD
:105390000E448E4234BF0121002192448A4411B14F
:1053A000924502D903E0924501D2012100E000219B
:1053B000C3E901A641444CF82010011EA0F10100F0
:1053C000C4DC029800F10050850F0298DDE9036704
:1053D0008000DDF81480FBF789F941EC1A0B3046A8
:1053E000FBF7F6F99FED541B53EC112BFAF7A9FFCD
:1053F00041EC1B0B3846FBF7EBF99FED511B53ECCF
:10540000112BFAF79EFF41EC180B4046FBF7E0F931
:105410009FED4D1B53EC112BFAF793FF41EC190B49
:1054200051EC180B53EC192BFAF7E4FE53EC1B2B41
:10543000FAF7E0FE53EC1A2BFAF7DCFECDE908018F
:10544000002008909DED080B53EC1A2B51EC100B2B
:10545000FAF771FF53EC1B2BFAF76DFF53EC182B87
:10546000FAF769FF53EC192BFAF768FF9FED381B29
:1054700053EC112BFAF765FF9FED370B41EC180B3E
:1054800053EC102B9DED080B51EC100BFAF759FF64
:1054900053EC182BFAF7AEFE9FED310B41EC180BD5
:1054A00053EC102B9DED080B51EC100BFAF749FF54
:1054B00053EC182BFAF79EFE41EC100B139810F0EA
:1054C000004F06D06D4251EC100B81F0004141ECD1
:1054D000100B284684ED000B41E6000000000000A0
:1054E0000000000000000000FB21E93F7CD90240E1
:1054F00000004054FB21F93F3163621A61B4D03D92
:10550000FB21F93F000000000000601A61B4D03DAB
:105510007370032E8A19A33BFB2139410000000060
:1055200083C8C96D305FE43F000000000000E03F29
:10553000DA0A0000280A0000000000000000103E07
:10554000000000000000103C000000000000103AC5
:10555000182D4454FB21F93D3326A611460B113C6E
:1055600000000054FB21F93D10B52DED040B2DED8D
:10557000088B82B0B0EE419AF0EE619A0B9820F061
:1055800000449FED4BABB4F1795F11DA9DED0A0B4E
:1055900051EC100BFBF7BBF8002801BFB0EE4A0A34
:1055A000F0EE6A0A02B0BDEC088B04BF04B010BD77
:1055B0009DED0A0B53EC102B51EC100BFAF7C1FECA
:1055C00041EC180B3C480621B0EE480AF0EE680AA0
:1055D000784400F081F853EC182B51EC100BFAF7DB
:1055E000B0FE9DED0A0B41EC1B0B53EC192B51EC5B
:1055F000100BFAF7A6FE41EC190B53EC1B2B51ECE8
:10560000180BFAF79EFE53EC192BFAF794FE9FED58
:105610002C0B41EC190B53EC102B51EC180BFAF737
:1056200090FE41EC100B2848844210DA53EC192B01
:1056300051EC100BFAF77FFE53EC1A2BFAF77EFEB3
:1056400041EC100B02B0BDEC088B04B010BD1F483C
:10565000A042BCBF9FED1E1B8DED001B06DBA4F519
:1056600000100190002000909DED001B51EC100BEC
:1056700053EC112BFAF75FFE9DED000B41EC180B7C
:1056800053EC102B51EC1A0BFAF755FE41EC1A0BA8
:1056900053EC192B51EC180BFAF74DFE53EC1A2B67
:1056A000FAF74CFE41EC100BCCE7000000000000C4
:1056B000000000000000F03F4C0700000000000068
:1056C000000000000000E03F3333D33F0000E93F1B
:1056D000000000000000D23F70B504462DED028BA3
:1056E0004D1E00EBC500B0EE408AF0EE608A90EDF2
:1056F000000B35F0060017D053EC182B51EC100BB3
:10570000FAF71FFE41EC100B6D1E04EBC50090ED87
:10571000001B51EC100B53EC112BFAF76BFD41EC15
:10572000100B35F00600E7D1022D36D0042D1CD029
:10573000062D1CBFBDEC028B70BD53EC182B51EC39
:10574000100BFAF7FEFD94ED0A1B53EC112BFAF740
:1057500051FD53EC182BFAF7F4FD94ED081B53ECB4
:10576000112BFAF747FD41EC100B53EC182B51ECC1
:10577000100BFAF7E6FD94ED061B53EC112BFAF72C
:1057800039FD53EC182BFAF7DCFD94ED040B53ECC8
:10579000102BFAF72FFD41EC100B53EC182B51ECAA
:1057A000100BFAF7CEFD94ED021B53EC112BFAF718
:1057B00021FD53EC182BFAF7C4FD94ED001B53ECBC
:1057C000112BFAF717FDBDEC028B41EC100B70BDED
:1057D00031B504462DED040B2DED0A8BB0EE41BA28
:1057E000F0EE61BA0B989DED0A0B20F00040B0F18D
:1057F000795F0DDA51EC100BFFF70EFA042808BFA1
:1058000000F0AAF89DED0A0BBDEC0A8B05B030BD87
:1058100053EC102B51EC100BFAF793FD41EC180BE5
:105820009DED0A0B53EC182B51EC100BFAF789FD88
:1058300041EC190B2C48B0EE480AF0EE680A05213D
:105840007844FFF749FF9FED2ACBB0EE40AAF0EE77
:1058500060AA9CB353EC1C2B51EC190BFAF771FDA9
:1058600041EC1C0B53EC1A2B51EC190BFAF769FDA8
:105870009FED210B41EC190B53EC102B51EC1B0B42
:10588000FAF75FFD53EC192BFAF755FD53EC182B83
:10589000FAF757FD53EC1B2BFAF74DFD53EC1C2B7D
:1058A000FAF749FD9DED0A1B53EC112BFAF746FD63
:1058B000BDEC0A8B05B041EC100B30BDFFE753EC9B
:1058C0001A2B51EC180BFAF73CFD53EC1C2BFAF792
:1058D00091FC53EC192BFAF734FD9DED0A1B53ECA8
:1058E000112BFAF787FCE3E7D40500000000000065
:1058F000495555555555C5BF000000000000E03F13
:1059000010B553EC102B51EC100BFAF773FC41EC73
:10591000100B10BD000000009FED050B10B553ECFF
:10592000102B51EC100BFAF772FE41EC100B10BD6E
:1059300000000000000000009FED050B10B553ECC7
:10594000102B51EC100BFAF7FCFC41EC100B10BDC6
:1059500000000000000000709FED050B10B553EC37
:10596000102B51EC100BFAF7ECFC41EC100B10BDB6
:10597000000000000000001002E008C8121F08C16B
:10598000002AFAD170477047002001E001C1121FC0
:10599000002AFBD1704700000149086070470000F1
:1059A000F002002010B586B0044601210846FEF73B
:1059B000EBFD01211020FEF717FE072209211B48ED
:1059C000FBF72CFC07220A211848FBF727FC4FF4B1
:1059D000C060049002208DF8140003208DF815009B
:1059E00000208DF8160001208DF8170004A90F483B
:1059F000FBF7CCFB00940020ADF80400ADF80600E6
:105A0000ADF80800ADF80C000C20ADF80A006946AE
:105A10000748FFF743F8012280210548FEF7E5FF1C
:105A200001210348FEF7D5FF06B010BD000002407B
:105A30000010014082B0CDE9000121F0004001904A
:105A40009DED000B02B051EC100B704700B58BB010
:105A5000FBF762F9FBF71AF9FBF772F9FBF782FD26
:105A6000FBF730FD0AA8FBF757FE0AA80321002226
:105A70000592CDE906210890114680220A48006B64
:105A8000094BCDE90130CDE9032102200023074A6B
:105A900007A100900A48FCF7F7FA0AA8FCF7AAF950
:105AA00000200BB000BD0000B4030020A5090008D1
:105AB000417070205461736B2053746172740000E4
:105AC000F4020020A81C0020060000004000000096
:105AD00000010000000000000000000000000000C5
