:020000040800F2
:10000000788400209D0100087514000895100008F0
:1000100051130008E5070008255200080000000001
:10002000000000000000000000000000854D0008F6
:10003000190D00080000000095050008212E000899
:10004000D7010008D7010008D7010008D701000830
:10005000D7010008D7010008D7010008D701000820
:10006000D7010008D7010008D7010008D701000810
:10007000D7010008D7010008D7010008D701000800
:10008000910800088D090008D7010008D701000871
:10009000D7010008D7010008D7010008D7010008E0
:1000A000D7010008D7010008D7010008D7010008D0
:1000B000D7010008D7010008D7010008D7010008C0
:1000C000D7010008D7010008D7010008D7010008B0
:1000D000D7010008DD4E0008FD4E0008D7010008DA
:1000E000D7010008D7010008D7010008D701000890
:1000F000D7010008D7010008D7010008D701000880
:10010000D7010008D7010008D7010008D70100086F
:10011000D7010008D7010008D7010008D70100085F
:10012000D7010008D7010008D7010008D70100084F
:10013000D7010008810F0008D7010008D701000887
:10014000D7010008D7010008D7010008D70100082F
:10015000D7010008D7010008F5090008D7010008F9
:10016000D7010008D7010008D7010008D70100080F
:10017000D7010008D7010008D7010008D7010008FF
:10018000D7010008D7010008DFF80CD000F06CF9A7
:10019000004800470558000878840020DFF8380040
:1001A000016841F470010160BFF34F8FDFF82C004C
:1001B000016821F040410160BFF36F8F084880471C
:1001C00008480047FEE7FEE7FEE7FEE7FEE7FEE73A
:1001D000FEE7FEE7FEE7FEE788ED00E034EF00E033
:1001E000754E00088901000872B6704762B6704704
:1001F000EFF3108072B6704780F31088704730BFFD
:10020000704720BF7047B0FA80F0704790FAA0F0B6
:10021000B0FA80F0704790FAA0F07047002800D143
:100220007047002900D17047002A00D170472DE99E
:10023000F81F00F0030301F00304A34211D1C3F13E
:10024000040303F00303012B1DD3012A00D2F2E0C3
:1002500011F8014B00F8014BA3F10103A2F10102D7
:10026000F1E700F0010301F00104A34200D094E0A3
:10027000012B44D311F8014B00F8014BA3F101030A
:10028000A2F10102F4E7B2F5B47F26D3B1E8F81F7A
:10029000A0E8F81FB1E8F81FA0E8F81FB1E8F81FC0
:1002A000A0E8F81FB1E8F81FA0E8F81FB1E8F81FB0
:1002B000A0E8F81FB1E8F81FA0E8F81FB1E8F81FA0
:1002C000A0E8F81FB1E8F81FA0E8F81FB1E8F81F90
:1002D000A0E8F81FA2F5B472D5E7282A06D3B1E842
:1002E000F81FA0E8F81FA2F12802F6E7042A06D3B7
:1002F00051F8043B40F8043BA2F10402F6E7202A3F
:1003000042D331F8023B20F8023B31F8023B20F89F
:10031000023B31F8023B20F8023B31F8023B20F867
:10032000023B31F8023B20F8023B31F8023B20F857
:10033000023B31F8023B20F8023B31F8023B20F847
:10034000023B31F8023B20F8023B31F8023B20F837
:10035000023B31F8023B20F8023B31F8023B20F827
:10036000023B31F8023B20F8023B31F8023B20F817
:10037000023B31F8023B20F8023B31F8023B20F807
:10038000023BA2F12002BAE7022A06D331F8023B6F
:1003900020F8023BA2F10202F6E7102A42D311F83C
:1003A000013B00F8013B11F8013B00F8013B11F85B
:1003B000013B00F8013B11F8013B00F8013B11F84B
:1003C000013B00F8013B11F8013B00F8013B11F83B
:1003D000013B00F8013B11F8013B00F8013B11F82B
:1003E000013B00F8013B11F8013B00F8013B11F81B
:1003F000013B00F8013B11F8013B00F8013B11F80B
:10040000013B00F8013B11F8013B00F8013B11F8FA
:10041000013B00F8013B11F8013B00F8013BA2F160
:100420001002BAE7012A06D311F8013B00F8013B9C
:10043000A2F10102F6E7BDE8F81F704730B50B46A0
:10044000014600202022012409E021FA02F59D4204
:1004500005D303FA02F5491B04FA02F52844151ED8
:10046000A2F10102F1DC30BD064C074D06E0E06868
:1004700040F0010394E8070098471034AC42F6D3EB
:10048000FFF786FE5C5B00087C5B000870B58C188B
:1004900010F8015B15F0070301D110F8013B2A1198
:1004A00006D110F8012B03E010F8016B01F8016B85
:1004B0005B1EF9D12B0705D40023521E0DD401F881
:1004C000013BFAE710F8013BCB1A921C03E013F84A
:1004D000015B01F8015B521EF9D5A142D8D300207F
:1004E00070BD0000EFF3098141B1F1EE101A40F840
:1004F000041D20ED200A3B490A6810607047B0ECEB
:10050000200A02C8E1EE101A37490A6810607047E5
:1005100072B64EF62250CEF2000040F2FF01C0F259
:100520000001017040F20030C2F20000016881F366
:10053000088840F27620C2F2000040F27721C2F231
:1005400000010A78027040F2F825C2F2000540F27C
:10055000FC21C2F200010A682A60106880F3098851
:10056000EFF3148040F0020080F31488BFF36F8F24
:10057000BDE8F00F0FBCBDE8005006BC62B60847EE
:100580001A484FF080510160704718484FF0805171
:100590000160704772B6EFF3098020E9F00F40F276
:1005A000F825C2F200052E683060744602F098FA11
:1005B00040F27620C2F2000040F27721C2F2000140
:1005C0000A78027040F2FC21C2F200010A682A6037
:1005D00044F0F40E1068B0E8F00F80F3098862B6BA
:1005E00070470000F8020020FC02002004ED00E04B
:1005F00000B58BB00AA8072100220592CDE906219B
:10060000089011464FF400721548D0F8CC00144BF6
:10061000CDE90130CDE9032104200023114A12A1C4
:100620000090144801F0A0FC0AA800210591069151
:10063000CDE9071007214FF400720F48D0F8CC0025
:100640000D4BCDE90130CDE90321032000230B4AF6
:100650000BA100900D4801F087FC0BB000BD00001D
:100660008C060020D906000846502045717561743B
:10067000696F6E00CC0500204C0F002011070008A8
:100680004C6F67205072696E740000008C0E002061
:100690000EB502A801F0E6FBFFF7AAFF1BE04FF43E
:1006A000007000F023FE02A800214FF4FA730A46FE
:1006B000CDE90010084602F0C1FA4FF4806000F066
:1006C00015FE02A800214FF4FA730A46CDE9001086
:1006D000084602F0B3FAE2E70EB517E00B2000F08F
:1006E00071F902A800210B460122CDE9001008464D
:1006F00002F0A4FA052000F065F902A800210B46DB
:100700000122CDE90010084602F098FAE6E7000061
:100710001FB5002400BF30E003A8002302AA194639
:100720000090184601F0C4FD0446BDF80C0048B91D
:10073000BDF8082021461148FFF770FDBDF80800FC
:1007400000F074F91CB1204605F01EF80024BDF835
:1007500008004FF47A71484300EB800040004FF4EA
:10076000E13190FBF1F0451C03A800212B460A461D
:10077000CDE90010084602F061FACDE7145C0020D4
:100780001FB5684604F028FA019804B010BD10B5F2
:100790004FF4A06000F0ACFE00F0C4FC00F080FD5F
:1007A0004FF4165004F08CFA04F090FD04F03CFD78
:1007B0004FF4E13004F0A0FF00F0B0FA10BD10B526
:1007C000FFF712FD10BD000070B5FFF7D9FF04461A
:1007D00003480068B4FBF0F5284602F03DFB70BD0D
:1007E0007859000800BFFEE710B500F021F800F0CE
:1007F00019F810BD10B5002400BF00BFFFF7F8FCCA
:10080000044600BF00BF1021054800F0A3FD00BF53
:1008100000BF2046FFF7F0FC00BF00BF10BD000086
:10082000945C002010B5FFF7E5FF10BD00BFFEE7A8
:1008300010B500200249086000F00AF810BD000061
:1008400028020020014908607047000028020020AB
:1008500010B5FFF795FF04460848006840F0807027
:10086000064908600020064948600846006840F0D4
:10087000010008602046FFF7E5FF10BDFCED00E039
:10088000001000E00149486870470000001000E0D7
:1008900070B586B01F49204800F0C0F9002836D056
:1008A0001C491D4800F0DAF800211B4800F0F0F860
:1008B000194800F0AFF9C0F5007086B200BF802083
:1008C00004F0DEFF044604B916E014A015496C22BA
:1008D000CDE903160292059013A019A119A31AA23B
:1008E000CDE9001019A1204604F03CFDC5B229460F
:1008F000204604F071FF00BF00BF4FF400710648AE
:1009000000F008FA0121044800F0C2F800BF06B068
:1009100070BD000000880020886002401B5B306DC5
:1009200000000000FE58000848415244574152451B
:100930005C736F757263655C646D612E63000000AB
:1009400032326D0033373B001B5B0000257325738B
:1009500025735B494E464F5D46696C654E616D651A
:100960003A25733B204C696E653A25643B204675F9
:100970006E6374696F6E3A25732E646174615F6C87
:10098000656E203D20256425730D0A0010B50A49C7
:100990000A4800F043F968B10749084800F05EF8DA
:1009A0004021074804F066FB012240F2266104481A
:1009B00004F0A8FB10BD000000802020A0600240D1
:1009C0000044004010B504460021094800F060F8DA
:1009D00000BF074800F014F90028FAD12146044866
:1009E00000F098F90121024800F052F810BD000013
:1009F000A060024010B50A490A4800F00FF968B13A
:100A00000749084800F02AF84021074804F032FB63
:100A1000012240F22661044804F074FB10BD00007E
:100A200000800028B86402400010014010B5044660
:100A30000021094800F02CF800BF074800F0E0F85A
:100A40000028FAD12146044800F064F90121024847
:100A500000F01EF810BD0000B86402400246094BC9
:100A60009A4201D2084801E00648103801F00053CC
:100A70001BB1064B0B40C36002E0044B0B4083608C
:100A80007047000010640240006002407D0F7D0F3F
:100A900021B1026842F00102026003E0026822F024
:100AA0000102026070470000016821F0010101604D
:100AB0000021016041608160C160016121214161CB
:100AC0004A49884204D13D21484A103A91608CE05D
:100AD00046491831884205D14FF47461434A103AAF
:100AE000916082E041493031884205D14FF4741160
:100AF0003E4A103A916078E03C494831884205D13D
:100B00004FF07461394A103A91606EE037496031B4
:100B1000884204D13649354A103AD16065E03349FC
:100B20007831884204D13349304A103AD1605CE0D0
:100B30002E499031884204D12F492C4A103AD16075
:100B400053E02A49A831884205D14FF03D51274A48
:100B5000103AD16049E02949884204D13D21274A11
:100B6000083A116041E025491831884205D14FF417
:100B70007461224A083A116037E0204930318842D6
:100B800005D14FF474111D4A083A11602DE01B493C
:100B90004831884205D14FF07461184A083A116013
:100BA00023E016496031884204D11149134A121FCB
:100BB00011601AE011497831884204D10D490F4A79
:100BC000121F116011E00D499031884204D10A4989
:100BD0000A4A121F116008E00849A831884204D16E
:100BE0004FF03D51054A121F1160704710600240DE
:100BF0003D000020400F002000003D201064024016
:100C0000014600200A6802F001020AB1012000E05A
:100C1000002070470146486880B2704770B50246B0
:100C2000002000240025124EB24201D2114B01E0F7
:100C30000F4B103B104E0E4036B11E2606EAD12453
:100C4000166806EA040502E0566906F0800501F020
:100C500000560EB15C6800E01C68084E344004EA9F
:100C6000010616B10DB1012000E0002070BD0000AA
:100C700010640240006002403C0F3C0F7D0F7D0F6E
:100C800010B501F080034BB122B1436943F08003FA
:100C9000436103E0436923F08003436180290BD063
:100CA0002AB1036801F01E042343036004E00368D3
:100CB00001F01E04A343036010BD000010B5002224
:100CC0000268134B1A40CC680B6823434C692343DA
:100CD0008C692343CC6923430C6A23434C6A234326
:100CE0008C6A23434C6B23438C6B23431A4302606F
:100CF000426922F00702D1E90B3423431A434261CF
:100D00000B6943604B6883608B68C36010BD000053
:100D10003F801CF0416070477047000000B591B003
:100D20000121880503F018FF1F48FFF7BDFE00BF33
:100D30001D48FFF765FF0028FAD14FF000600290D0
:100D40001A4803901A48049040200590802006908D
:100D5000002007904FF480600890002009900A90CE
:100D60000B904FF480300C9000200D9003200E90DB
:100D700000200F90109002A90B48FFF79FFF46201C
:100D80008DF8040001208DF8070003208DF8050080
:100D90008DF8060001A800F06FFB01221021024827
:100DA000FFF76EFF11B000BDB864024004100140AF
:100DB000145C00202A48016848E0086800F40070CC
:100DC00088B1086800F4807068B126480068016046
:100DD000244800680068234A126850600120214AB4
:100DE000126890607047086800F4007060B108688D
:100DF00000F4807040B91B48006801600120194A66
:100E000012689060C96821E0086800F4007060B959
:100E1000086800F4807040B9124800688068401C7F
:100E2000104A12689060C96810E0086800F4807089
:100E300060B10C48006841600A4800688068401C46
:100E4000084A12689060C9680120CBE7086800F082
:100E500000400028B1D0034800688068C2E7000065
:100E6000140000201800002001494861704700006C
:100E7000009002403EB50024684600F01BF8009840
:100E800004F0FEFC04460CB900203EBD2046DDE91E
:100E90000021FFF7C3F90648406900F0800020B147
:100EA000802003494861002088602046EDE700006B
:100EB00000900240FEB5054600200090019002908F
:100EC0002C4800688068002845D02A4800680068DF
:100ED00000282ED027480068406850B30024002620
:100EE0001EE040F2F45084420FD2234800680068AC
:100EF000C0F30D40071F204A126891681F4A10195D
:100F00003A46FFF78BF93C4400BF4FF000401A49C6
:100F10000968086018480068C06817490860761CAE
:100F2000144800688068B042DBD8144801900094EF
:100F300011E000200AE04FF000410F4A12681160F2
:100F40000D490968C9680C4A1160401C09490968C3
:100F500089688142EFD80020064909688860054900
:100F6000096808600349096848609DE8070085E84A
:100F70000700FEBD180000201400002020540020AF
:100F800010B5002407E0FFF775FF04461CB12046AA
:100F900004F0FAFB0024FFF70DFF0028F3D14020F6
:100FA000FFF762FF4FF48030FFF75EFF10BDF0B532
:100FB0000A4600210023002400BF3DE0012505FA78
:100FC00001F3156805EA03049C4234D105684F001B
:100FD0000326BE40B543056015794E00B54006684E
:100FE000354305601579012D02D01579022D16D1F2
:100FF00085684F000326BE40B543856055794E0095
:10100000B540866835438560456801268E40B54306
:101010004560456896798E40B6B235434560C568EF
:101020004F000326BE40B543C560D5794E00B5409C
:10103000C6683543C560491C1029BFD3F0BDF0B563
:10104000002300244D07ED0E02FA05F3CE1000F147
:10105000200555F826504E07F70E0F26BE40B54323
:10106000CF1000F1200646F82750CE1000F12005E1
:1010700055F8265045EA0304CE1000F1200545F846
:101080002640F0BD0146486980B2704741837047F1
:101090000183704700BFFEE71FB50F4800F05CF802
:1010A0000020ADF804004BF6FF70ADF80600A0205C
:1010B000ADF808004FF48060ADF80A000001ADF80B
:1010C0000C00064800906946034800F075F80121BD
:1010D000014800F035F81FBD00540040801A06009A
:1010E0001CB54FF44070009002208DF804000120E0
:1010F0008DF8060003208DF8050001208DF807000B
:1011000069460748FFF753FF042208210448FFF708
:1011100096FF042209210248FFF791FF1CBD000041
:101120000004024010B50121480503F025FD01210E
:10113000022003F011FDFFF7D3FFFFF7ADFF10BD55
:1011400021B1028842F00102028004E002884FF6D9
:10115000FE731A400280704710B50446134884425B
:1011600009D10121480503F017FD00214FF40010BB
:1011700003F012FD18E00E48844209D101218805D0
:1011800003F00AFD00214FF4800003F005FD0BE0A1
:101190000848844208D10121C80503F0FDFC002164
:1011A0004FF4000003F0F8FC10BD000000540040B4
:1011B00000580040005C00402DE9FF4704460D4602
:1011C0000026B1460427DFF8CC80A6884FF6C07011
:1011D0000640684603F000FDDDF808802E48B8FBA5
:1011E000F0F01FFA80F946EA0906A68020884FF63B
:1011F000FE710840208000262849286888420CD8C3
:1012000028684000B8FBF0F087B2042F00DA04270A
:101210003E4309F10100208427E0E8884BF6FF7186
:10122000884206D1286800EB4000B8FBF0F087B296
:1012300009E0286800EBC00101EB0010B8FBF0F0FA
:1012400087B247F48047C7F30B0008B947F001079E
:1012500047F4004006434FF4967009FB00F04FF44A
:101260007A7190FBF1F0401C2084A683208840F026
:101270000100208026884FF6F5300640A88869894D
:10128000084306432680A889298908432081BDE8B0
:10129000FF87000000127A0040420F00A086010084
:1012A0001CB50121202003F057FC4FF4C0600090D2
:1012B00001208DF8040000208DF8060001208DF833
:1012C000070003208DF8050069460748FFF76FFE09
:1012D0004FF400710448FFF7DBFE4FF480610248D1
:1012E000FFF7D6FE1CBD00000014024070B5044696
:1012F00000250848FFF7C6FE054605EA040020B1B0
:1013000021460448FFF7C2FE03E021460148FFF7EB
:10131000BFFE70BD0014024010B5012000F002F8BD
:1013200010BD000070B50446002500BF00BFFEF7E9
:101330005FFF054600BF00BF0448046000BF00BF58
:101340002846FEF759FF00BF00BF70BD2C020020E9
:1013500000BFFEE730B505460C4622460021284670
:1013600000F05EF830BD00003EB500200C4908607A
:101370000C4C02A801214FF440632246CDE9001035
:1013800009490AA000F016F8BDF8080042F21071F1
:10139000884203D000BFFFF749FA00BF3EBD0000FE
:1013A00030020020A45C0020A46800204865617021
:1013B000000000002DE9F84F05460E4617461C4672
:1013C000DDE90A894FF0000A00BF00BFFEF710FFF9
:1013D000824600BF00BF43463A4631462846009445
:1013E00000F00EF800BF00BF5046FEF705FF00BF3B
:1013F00000BF42F21070A9F80000BDE8F88F0000AD
:1014000030B5039C0A60651E15444D608A60034D2B
:101410002D68CD600B61014D296030BD3002002088
:101420002DE9F04105460B4694460027002402E0D2
:101430003F021F43641C042CFAD3604605F00306E8
:10144000294646B1344603E001F8013B401E641CC6
:1014500008B1042CF8D30A4601E080C2001F04281A
:10146000FBD2114602E001F8013B401E0028FAD1F0
:10147000BDE8F0817047000070B5002100230F2205
:10148000C4781CB3174C246804F4E064C4F5E06429
:10149000C4F30721C1F10404E3B20A4144789C403B
:1014A000E1B28478144021430C07210E0E4C0578DC
:1014B0006155047804F01F050124AC4005786D11D6
:1014C000AD0005F1E025C5F8004109E0047804F01D
:1014D0001F050124AC40054D0678761145F82640DD
:1014E00070BD00000CED00E000E400E080E100E0F1
:1014F00002490143024A1160704700000000FA05EA
:101500000CED00E07047000010B50348006810B112
:1015100001480068804710BD4802002070B50446AD
:1015200000F0AEF800204149087041490870414977
:1015300008704149086041490860414908704149C3
:1015400008704149087041490860414908604149B3
:1015500008604148006858B14048056845B13E48B8
:10156000066803E0761E002028602D1D002EF9D1AC
:1015700000203B4908603B4908603B4908603B4903
:1015800008603B4908603B4908603B4908603B49AB
:10159000087002F007F902F041F9204601F048FD19
:1015A000208800B170BD204601F0A8FD208800B160
:1015B000F8E7204601F0AEFD208800B1F2E72046B2
:1015C00001F036FF208800B1ECE7204602F01AF95E
:1015D000208800B1E6E7204602F0E0F9208800B15B
:1015E000E0E7204602F086FC208800B1DAE72046DA
:1015F00001F04CFD208800B1D4E7204603F02AF921
:10160000208800B1CEE7204602F048FB208800B1D8
:10161000C8E7204603F082F9208800B1C2E701F054
:1016200033FCFFF76FFF00BFBCE700005C02002047
:101630005D02002090020020F8020020FC02002041
:101640007602002077020020780200208402002029
:10165000880200208C0200204859000844590008E4
:101660003C020020400200204402002048020020EA
:101670004C0200205002002054020020BE02002034
:10168000064800680649096800EB810005490860C2
:101690000846006820F007000860704744590008B9
:1016A000485900080003002010B500242D48007898
:1016B000012800D010BD00BFFEF79AFD044600BF10
:1016C0002948007828B900BF2046FEF795FD00BFE5
:1016D000F0E725480078401E234908700846007846
:1016E000002805DD00BF2046FEF786FD00BFE1E7CC
:1016F0001E480078002805DD00BF2046FEF77CFD6F
:1017000000BFD7E702F03AF8194908700846007898
:1017100000EB4000174951F82000174908600846BF
:10172000006816490968884205D100BF2046FEF7C7
:1017300063FD00BFBEE710480068D0F88C00401C75
:101740000D490968C1F88C000D480068401C0C491F
:101750000860FEF71AFF00BF2046FEF74DFD00BFF0
:1017600000BFA7E75D0200205C020020900200207D
:101770007702002004770020FC020020F8020020FD
:10178000B40200202DE9F04104460E46154600271C
:1017900024B945F6C3502880BDE8F08100BF00BFE2
:1017A000FEF726FD074600BF00BF104820606660B8
:1017B00000202062606284F82800E06204F10800E2
:1017C00001F0E7FE204601F0C3FD09480088401CF7
:1017D0000749088000BF00BF3846FEF70DFD00BF77
:1017E00000BF0020288000BFD6E700004D555458A8
:1017F000740200202DE9F04788B005468946174657
:101800001C46109E4FF0000A2DB945F6C35030809B
:1018100008B0BDE8F0871FB1B7F5004F02D100E076
:1018200000BF03E045F625603080F1E700BF624964
:101830002868884203D045F6C4503080E8E70CB1F0
:101840000020206000BF00BFFEF7D2FC824600BF30
:1018500000BF95F82800B8B95848006868620120B0
:1018600085F828000CB1E86A2060294653480068D2
:1018700001F086FD00BF00BF5046FEF7BDFC00BF73
:1018800000BF00203080C3E74C49686A096888427D
:1018900012D195F82800401C85F828000CB1E86AA0
:1018A000206000BF00BF5046FEF7A6FC00BF00BF8F
:1018B00045F282703080ABE707F4004050B100BFC2
:1018C00000BF5046FEF798FC00BF00BF46F2B010C4
:1018D00030809DE73A48007800280ADD00BF00BF4D
:1018E0005046FEF789FC00BF00BF46F663503080CB
:1018F0008EE7D5F8248098F837003049096891F8C8
:101900003710884206DD2D48006890F837104046B1
:1019100002F040FA4B4604222946684601F094FD45
:1019200000BF00BF5046FEF767FC00BF00BF00F0DD
:101930000FF900BF00BFFEF75BFC824600BF00BF8F
:101940001E48006890F8350030B101280CD00228FC
:101950001AD0032821D110E01CB118480068806C0F
:101960002060002030801CE01CB114480068806CAE
:10197000206046F2A910308013E00CB100202060F6
:1019800047F2D92030800CE01CB10C480068806C14
:10199000206045F6C250308003E046F62E6030806D
:1019A00000BF00BF00BF00BF5046FEF725FC00BFD0
:1019B00000BF00BF2CE700004D555458F80200202E
:1019C000900200202DE9F84F0446894615464FF055
:1019D000000B24B945F6C3502880BDE8F88FB9F153
:1019E000000F03D0B9F5004F02D100E000BF03E0C3
:1019F00045F625602880F0E700BF524920688842FC
:101A000003D045F6C4502880E7E700BF00BFFEF7CB
:101A1000EFFB834600BF00BF4B49606A09688842FC
:101A20000AD000BF00BF5846FEF7E6FB00BF00BF6C
:101A300045F281702880D0E7FEF724FF80462834E5
:101A4000C4F804802078401E207014F8280900286B
:101A50000ADD00BF00BF5846FEF7CEFB00BF00BF47
:101A600045F283702880B8E721463748006801F0C6
:101A7000D1FC04F1080ABAF8080068B900206062D5
:101A800084F8280000BF00BF5846FEF7B5FB00BF32
:101A900000BF00202880A0E72B48006890F837009E
:101AA0002949096891F83810884228D026480068EA
:101AB00001F09AFC06462448006890F83810B142BC
:101AC00004DA2148006890F8380000E03046064605
:101AD0001D48006890F83700B04210DA1A480068D4
:101AE00001F002FF1848006880F83760304601F0C6
:101AF00065FE1548006801F0D9FE14480670DAF852
:101B0000000087686762012084F828002146384673
:101B100001F036FC00231A4639462046CDF80080F5
:101B200001F0AAFD00BF00BF5846FEF765FB00BFED
:101B300000BF09F4004008B900F00AF8002028802E
:101B400000BF4AE74D555458F802002076020020A5
:101B500010B5002420480078002800DD10BD1F4883
:101B60000078002800DDF9E700BFFEF741FB0446DE
:101B700000BF01F003FE1A4908700846007800EB28
:101B80004000184951F820001749086008460068CD
:101B900016490968884205D100BF2046FEF72CFB94
:101BA00000BFDBE710480068D0F88C00401C0E49ED
:101BB0000968C1F88C000E480068401C0C49086098
:101BC000FEF7DEFC00BF2046FEF716FB00BFBFF3AA
:101BD0006F8F00BFC2E700005C020020900200206F
:101BE0007702002004770020FC020020F802002089
:101BF000B402002070B5044600251448007801287E
:101C000003D045F68960208070BD11480078FA281D
:101C100003DB45F209202080F6E700BF00BFFEF796
:101C2000E7FA054600BF00BF09480078401C084994
:101C3000087001F087FE00BF00BF2846FEF7DCFAFF
:101C400000BF00BF0020208000BFDDE75D02002054
:101C50009002002070B5044600251C480078012839
:101C600003D045F68960208070BD1948007818B906
:101C700046F664502080F7E700BF00BFFEF7B8FAD1
:101C8000054600BF00BF12480078401E104908708A
:101C90000846007800280ADD00BF00BF2846FEF78E
:101CA000ABFA00BF00BF46F663502080DCE701F0CE
:101CB00057FE00BF00BF2846FEF79EFA00BF00BFD8
:101CC000FFF746FF0020208000BFCDE75D02002027
:101CD0009002002010B5044612480078E8B901F0DF
:101CE0004DFD1149087008460078104908700E48EB
:101CF000007800EB40000E4951F820000D490860C3
:101D0000084600680C490860012006490870FEF783
:101D1000FFFB43F69920208002E045F68A60208090
:101D200010BD00005D020020770200207602002036
:101D300004770020FC020020F80200202DE9F04189
:101D400007464FF0000800BF00BFFEF751FA80467B
:101D500000BF00BF00203B4908803B4908603B4969
:101D600008603B4908603B4908603B49088100BF67
:101D700000BF4046FEF740FA00BF00BF00BF00BFF3
:101D8000FEF736FA804600BF00BF3448046800BF43
:101D900000BF4046FEF730FA00BF00BF21E000BFA1
:101DA00000BFFEF725FA804600BF00BF0020743454
:101DB000E06320602063A061A082E0826062A06294
:101DC000FEF760FD2062743C04F160060020B081E3
:101DD000D4F8B84000BF00BF4046FEF70DFA00BF80
:101DE00000BF002CDBD100BF00BFFEF701FA804628
:101DF00000BF00BF1A48056800BF00BF4046FEF79D
:101E0000FBF900BF00BF12E000BF00BFFEF7F0F912
:101E1000804600BF00BF05F120060020B081AD69FB
:101E200000BF00BF4046FEF7E7F900BF00BF002D2E
:101E3000EAD102F005FC02F017FE00203880BDE870
:101E4000F08100009E020020B0020020C4020020A9
:101E5000E802002088020020F8760020B802002066
:101E60007C020020F8B5044600266946324800F09E
:101E700025FEBDF8000018B1BDF800002080F8BDB7
:101E80006A460021022000F087FEBDF8000018B16C
:101E9000BDF800002080F2E700BF00BFFEF7A8F900
:101EA000064600BF00BF00202449086000BF00BFF5
:101EB0003046FEF7A1F900BF00BF002520480068AA
:101EC00020490968884205D91D4800681D490968EC
:101ED000B0FBF1F525B91A4800680A21B0FBF1F50D
:101EE0006A460021284600F057FE6946124800F075
:101EF000E9FABDF8000018B1BDF800002080BEE787
:101F000000BF00BFFEF774F9064600BF00BF002007
:101F10000D490860094800680C49086001200C4917
:101F2000087000BF00BF3046FEF766F900BF00BF73
:101F30000020208000BFA2E7B47B0020A002002088
:101F40007859000860590008B0020020A40200205F
:101F5000AC02002010B50348006810B101480068C9
:101F6000804710BD4C0200202DE9FF4F87B004468A
:101F70009046DDE91BA5DDE91496179F002003902C
:101F80002CB947F2AD1028800BB0BDE8F08FB8F146
:101F9000000F03D147F24F102880F5E71EB946F62F
:101FA0002F602880F0E750480068874203D246F649
:101FB00030602880E8E71698B84203D346F63160CF
:101FC0002880E1E7B9F1400F03D346F2732028805F
:101FD000DAE7B9F13F0F06D14448844203D046F214
:101FE00073202880D0E7204601F094FF002028804D
:101FF0000AF0010090B10AF0020078B105960020C5
:10200000069008E00021059801600598001D0590E4
:102010000698401C06900698B842F3D3169806EB33
:1020200080000490CDE9007A32464046049B0A992C
:1020300000F0E2FB0590C4F828800A98E062089856
:10204000206284F8379084F83890059820600498CE
:10205000A0601A98606066622764A4F844A04FF0FC
:10206000000B08E0002104F1780040F82B100BF180
:10207000010000F0FF0BBBF1000FF3D004F1600092
:10208000189901F0DBF8204600F036F800BF00BFD9
:10209000FEF7AEF8039000BF00BF94F8370001F0E0
:1020A0008DFB204601F002FC204601F0E9FE1048BD
:1020B0000088401C0E4908800E480078012807D08F
:1020C00000BF00BF0398FEF797F800BF00BF5BE7B3
:1020D00000BF00BF0398FEF78FF800BF00BFFFF7F7
:1020E00037FD00BF50E70000745900083876002023
:1020F000BC0200205D02002010B5044603480068C1
:1021000018B1204601490968884710BD3C020020EB
:102110002DE9F04104460E464FF000085B4884422A
:1021200004D147F24C103080BDE8F0817CB900BF8B
:1021300000BFFEF75DF8804600BF00BF544804684A
:1021400000BF00BF4046FEF757F800BF00BF00BF0A
:1021500000BFFEF74DF8804600BF00BF94F8360080
:10216000082860D2DFE800F004090E10080A0F11F9
:10217000204601F0B9FB61E060E000BF204602F0BC
:1021800033FA5BE000BF00BF00BF94F834000828BA
:102190003BD2DFE800F0040705080E090A0600BF7D
:1021A00000BF33E000BF00BF00BF204601F029FAA6
:1021B0002CE0206BC068456A15F8377F204601F097
:1021C00020FA28786978373D884212D095F8370090
:1021D00094F8371088420CD1284601F005F90746DB
:1021E00095F83800B84202DA95F8380000E0384631
:1021F0000746002084F8340095F83700B84203D031
:102200003946284601F0C6FD00E000BF00BF94F843
:102210003600032803D094F83600072802D1204660
:1022200002F0E2F90AE000BF00BF4046FDF7E4FF1C
:1022300000BF00BF46F62D60308075E700BFE06B41
:1022400010B1204601F0A0F804F1600000F0A0FFFA
:10225000204600F021F8204601F02AFE0D480088B3
:10226000401E0C490880204601F054FEFF2084F8EF
:10227000360000BF00BF4046FDF7BEFF00BF00BFF5
:1022800000203080FFF764FC00BF4DE73876002067
:10229000F8020020BC02002010B504460348006884
:1022A00018B1204601490968884710BD4002002046
:1022B0002DE9F05F80460F4616461C460A9D4FF0FA
:1022C000000B2EB946F2D52028800020BDE8F09FF3
:1022D0001FB1B7F5004F02D100E000BF04E045F6A2
:1022E000256028800020F1E700BF0CB100202060AD
:1022F00000BF00BFFDF77CFF834600BF00BF5A4808
:10230000006800F160092B4622463146484600F03D
:1023100061FF82462888F0B9A4B1FEF7B3FA2168BC
:10232000401A5149096808674F480068406F4E4994
:102330000968096F884205D24B480068006F4A4916
:102340000968486700BF00BF5846FDF755FF00BF4A
:1023500000BF5046BAE707F4004058B146F2B0104B
:10236000288000BF00BF5846FDF746FF00BF00BFF2
:102370000020ABE73D48007800280BDD00BF00BF20
:102380005846FDF739FF00BF00BF46F6635028806E
:1023900000209BE7434602220021084601F054F842
:1023A00000BF00BF5846FDF727FF00BF00BFFFF783
:1023B000CFFB00BF00BFFDF71BFF834600BF00BF80
:1023C0002948006890F8350020B101282AD0032858
:1023D00032D132E024480068D0F858A02248006882
:1023E000B0F85C003080D4B11F480068806C206079
:1023F000FEF748FA1C490968896C401A1A490968AD
:10240000086719480068406F17490968096F8842D2
:1024100005D215480068006F134909684867002015
:10242000288017E04FF0000A0020308004B12060BF
:1024300046F2A91028800DE000BF4FF0000A0020EE
:1024400030801CB108480068806C206047F2D920B9
:10245000288000BF00BF00BF00BF5846FDF7CCFE7C
:1024600000BF00BF504631E7F80200209002002074
:102470002DE9FC470746884691461C460A9D4CB10B
:10248000102C08D0B4F5004F06D0A4F50040103849
:1024900020B902E000BF00BF00BF04E045F62560A0
:1024A0002880BDE8FC8700BFFEF7ECF9064623460E
:1024B0004A4641463846CDE9006501F089FD00BF36
:1024C000EFE7000070B504460D46002600BF00BFD0
:1024D000FDF78EFE064600BF00BF1CB10D48006828
:1024E00084420AD100BF00BF3046FDF785FE00BF21
:1024F00000BF47F25710288070BD00BF00BF3046B4
:10250000FDF77AFE00BF00BF2946204601F0D0FD4E
:1025100000BFF1E7F802002010B504460348006848
:1025200018B1204601490968884710BD44020020BF
:102530002DE9F04780460E4614461D464FF000092F
:102540001EB1B6F5004F02D100E000BF05E045F630
:10255000256028800020BDE8F08700BF0CB1002076
:10256000206000BF00BFFDF743FE814600BF00BFF3
:102570005F480068C06CA8B35D480068C06C401E2E
:102580005B490968C8645A480068C76C1CB1584860
:102590000068806C2060FEF775F955490968896C00
:1025A000401A53490968C1F8A00051480068D0F8A2
:1025B000A4004F490968D1F8A010884207D24C48BE
:1025C0000068D0F8A0004A490968C1F8A40000BF1B
:1025D00000BF4846FDF710FE00BF00BF0020288066
:1025E0003846B8E7FFE706F4004058B100BF00BF27
:1025F0004846FDF701FE00BF00BF46F2B01028803C
:102600000020A8E73B48007800280BDD00BF00BF92
:102610004846FDF7F1FD00BF00BF46F66350288035
:10262000002098E7434607220021084600F00CFFEF
:1026300000BF00BF4846FDF7DFFD00BF00BFFFF74A
:1026400087FA00BF00BFFDF7D3FD814600BF00BF82
:102650002748006890F8350020B1012826D00328CB
:1026600034D12CE0FCB122480068806C2060FEF779
:1026700009F91F490968896C401A1D490968C1F8A0
:10268000A0001B480068D0F8A40019490968D1F8D7
:10269000A010884207D216480068D0F8A00014495C
:1026A0000968C1F8A4000020288013E01CB110487C
:1026B0000068806C206046F2A91028800AE00CB106
:1026C0000020206047F2D920288003E046F62E60E3
:1026D000288000BF00BF06480068C76C00BF00BF6D
:1026E0004846FDF789FD00BF00BF384633E70000CC
:1026F000F8020020900200202DE9F04106460D4628
:1027000014461DB1B5F5004F02D100E000BF05E051
:1027100045F6256020800020BDE8F08100BFFEF76F
:10272000B1F88046234642462946304601F04CFD2A
:1027300007463846F0E700002DE9F04704460E460C
:1027400017461D464FF0000A26B946F2D5202880CC
:10275000BDE8F0871FB946F2D5202880F8E700BF12
:1027600000BFFDF745FD824600BF00BF0CB9214800
:102770000468206868B900BF00BF5046FDF73CFD03
:1027800000BF00BF00203060386047F25210288040
:10279000DEE794F8440000F0010068B900BF00BF14
:1027A0005046FDF729FD00BF00BF002030603860B3
:1027B00047F254102880CBE700BF00BF5046FDF71A
:1027C0001BFD00BF00BF4FF00008D4F8249003E0C9
:1027D00009F1040908F10108D9F800000028F7D030
:1027E000C6F80080206CA0EB08003860002028802C
:1027F00000BFADE7F8020020F0B50446DDE905565C
:1028000002EB850020F007004FF0807C071F384660
:10281000C7F800C0071F38463C60DFF834C2071F06
:102820003846C7F800C04FF0123C071F3846C7F8BB
:1028300000C04FF0033C071F3846C7F800C04FF0F8
:10284000023C071F3846C7F800C0071F38463B60E8
:10285000071F384639604FF0113C071F3846C7F84C
:1028600000C04FF0103C071F3846C7F800C04FF0BB
:10287000093C071F3846C7F800C04FF0083C071F47
:102880003846C7F800C04FF0073C071F3846C7F866
:1028900000C04FF0063C071F3846C7F800C04FF095
:1028A000053C071F3846C7F800C04FF0043C071F1F
:1028B0003846C7F800C006F00407002F7ED04FF05E
:1028C000007C071F3846C7F800C0DFF888C1071F23
:1028D0003846C7F800C0DFF880C1071F3846C7F880
:1028E00000C0DFF878C1071F3846C7F800C0DFF81E
:1028F00070C1071F3846C7F800C0DFF868C1071F5E
:102900003846C7F800C0DFF860C1071F3846C7F86F
:1029100000C0DFF858C1071F3846C7F800C0DFF80D
:1029200050C1071F3846C7F800C0DFF848C1071F6D
:102930003846C7F800C0DFF840C1071F3846C7F85F
:1029400000C0DFF838C1071F3846C7F800C0DFF8FD
:1029500030C1071F3846C7F800C0DFF828C1071F7D
:102960003846C7F800C0DFF820C1071F3846C7F84F
:1029700000C0DFF818C1071F3846C7F800C04FF085
:10298000834C071F3846C7F800C0DFF804C1071F93
:102990003846C7F800C0DFF8FCC0071F3846C7F844
:1029A00000C0DFF8F4C0071F3846C7F800C0DFF8E2
:1029B000ECC0071F3846C7F800C000E047E0DFF86A
:1029C000E0C0071F3846C7F800C0DFF8D8C0071FAF
:1029D0003846C7F800C0DFF8D0C0071F3846C7F830
:1029E00000C04FF0824C071F3846C7F800C0DFF820
:1029F000BCC0071F3846C7F800C0DFF8B4C0071FC7
:102A00003846C7F800C0DFF8ACC0071F3846C7F823
:102A100000C04FF0814C071F3846C7F800C0DFF8F0
:102A200098C0071F3846C7F800C04FF0804C071FFA
:102A30003846C7F800C04FF07E5C071F3846C7F81D
:102A400000C04FF0000C071F3846C7F800C0F0BDAB
:102A5000B14100080000F8410000F0410000E841E9
:102A60000000E0410000D8410000D0410000C84112
:102A70000000C0410000B8410000B0410000A84182
:102A80000000A041000098410000904100008841F2
:102A900000007041000060410000504100004041D2
:102AA0000000304100002041000010410000E040E3
:102AB0000000C0400000A0400000404070B5054646
:102AC0000C460648854203D147F25B10208070BD5A
:102AD0002146284601F05AFC00BFF8E7387600206E
:102AE00010B52948006890F8440000F0040020B1B7
:102AF000254909680868FDF7F5FC2448006890F846
:102B0000440000F0040020B1204909680868FDF77E
:102B1000F6FC1F48006810B11D4800688047FDF7AB
:102B2000B1FE04461848006818490968884215D063
:102B300015480068D0F89400201A13490968C1F8B4
:102B4000900011480068D0F898000F490968D1F842
:102B5000901008440C490968C1F898000B480068B7
:102B6000C0F8944008480068D0F8B00009490968E6
:102B7000884205D20748006803490968C1F8B000D7
:102B800000200449086010BDF8020020FC0200206B
:102B9000500200208C0200202DE9F04105460E462F
:102BA0001446002723480078002804DD46F66350C9
:102BB0002080BDE8F08136B1022E05D0042E0AD067
:102BC000082E09D101E000BF00BF1DB947F27E20E9
:102BD0002080EEE704E003E045F625602080E8E78A
:102BE00000BF00BF00BFFDF703FB074600BF00BFEB
:102BF0002346324629461048006801F097FC208899
:102C000038B100BF00BF3846FDF7F6FA00BF00BF7D
:102C1000CFE70948006800F067FE00BF00BF3846F4
:102C2000FDF7EAFA00BF00BFFEF792FF0020208008
:102C300000BFBEE790020020F80200202DE9FF5FF0
:102C400005460E4617469846DDE90EA40020009082
:102C50005A480078002804DD46F663502080BDE81D
:102C6000FF9F0AF00E0BBBF1000F09D0BBF1020F62
:102C700007D0BBF1040F10D0BBF1080F0ED101E05B
:102C800000BF00BFB8F1000F06D12FB926B91DB99A
:102C900047F27E202080E2E704E003E045F625606D
:102CA0002080DCE700BF2AF01E0008B1012000E010
:102CB000002003900398012803D145F62560208069
:102CC000CDE70AF01000102802D100BF012000E07B
:102CD000002002900298012818D0B8F57A7F03D31B
:102CE00047F27B202080BAE73B2F03DD47F27A20B2
:102CF0002080B4E73B2E03DD47F279202080AEE749
:102D0000632D12DD47F278202080A8E742F20F7091
:102D1000864203DD47F279202080A0E7B5F57A7F6F
:102D200003DB47F27820208099E72548D0F800900F
:102D30004FF4FA70B0FBF9F0404400FB09F04FF497
:102D40007A71B0FBF1F14FF461606843C6EB061293
:102D500000EB8200384400FB09100190019838B361
:102D600000BF00BFFDF744FA009000BF00BF23463C
:102D70005A4614480199006801F0D8FB208838B100
:102D800000BF00BF0098FDF737FA00BF00BF66E73D
:102D90000C48006800F0A8FD00BF00BF0098FDF7D8
:102DA0002BFA00BF00BFFEF7D3FE0020208002E018
:102DB00047F27E20208000BF51E7000090020020F3
:102DC00078590008F802002008B500F01FF86A469C
:102DD00000210A48FFF790FC09480068401E084996
:102DE00008600846006838B90648006808606A4606
:102DF00000210548FFF780FC08BD0000C47A0020D0
:102E0000F4020020F0020020B47B002010B503483B
:102E1000006810B101480068804710BD54020020CE
:102E200010B5002400BF00BFFDF7E2F9044600BF63
:102E300000BF08480078401C0649087000BF00BF6A
:102E40002046FDF7D9F900BF00BFFFF7BDFFFEF731
:102E50002BFC10BD5C02002001464A1E4FF0E0230F
:102E60005A61084A106820F07F4000BF10601A467F
:102E7000126942F005021A611A46126942F0020212
:102E80001A61704720ED00E0244A2549254A264A68
:102E90002649274A2748284A284A294A294A2A48A7
:102EA0002A482B4A2B482C4A2C482D4A2D482E487C
:102EB0002E482F482F4A304A304A3148314A324A48
:102EC0003248334833483448344835483548364A20
:102ED000364A374A374A384838483948394A3A4AE8
:102EE0003A4A3B483B483C483C493D483D4A3E4ABB
:102EF0003E4A3F4A3F4A404A404A4148414A424A84
:102F000042484348434A444A4448454A454A464859
:102F1000464800BF00BF00BF70470000AC59000822
:102F2000145B0008AD590008AE590008B0590008FC
:102F3000B4590008B8590008B5590008E05900080C
:102F4000E1590008E2590008E4590008E659000870
:102F5000EA590008EC5900080C5A00080E5A0008FB
:102F6000105A0008125A0008145A0008165A00088D
:102F7000185A0008485A0008495A00084A5A0008D6
:102F80004C5A00084E5A00084F5A0008505A000880
:102F9000525A0008545A0008565A0008585A000855
:102FA0005A5A00085C5A00088C5A00088D5A0008CA
:102FB0008E5A00088F5A0008905A0008925A00084A
:102FC000945A0008BC5A0008BD5A0008BE5A0008AE
:102FD000BF5A0008C05A0008C25A0008C45A000864
:102FE000C85A0008C95A0008CA5A0008CB5A000833
:102FF000CC5A0008CD5A0008CE5A0008CF5A000813
:10300000D05A0008D25A0008D35A0008D45A0008EF
:10301000D65A0008D85A0008D95A0008DC5A0008C5
:103020000C5B00080D5B00080E5B0008105B0008DD
:103030000021034A1160034A11800180704700009B
:103040006002002064020020002419E000BF00BFDD
:10305000FDF7CEF8044600BF00BF0A480068401CD8
:103060000849086008480068401C0749086000BF1C
:1030700000BF2046FDF7C0F800BF00BFFEF744FACE
:10308000E4E7000058020020A002002010B58AB03A
:10309000044600200E4908600B2000210591CDE96F
:1030A0000704069108460B4909680B4A12680B4B46
:1030B0001B68CDE90132CDE903103F200023084A07
:1030C00008A100900C48FEF74FFF0AB010BD0000A9
:1030D00058020020205900081C59000818590008FF
:1030E0004930000875432F4F532D49494920496401
:1030F0006C65205461736B00387600200021034A10
:103100001160034A118001807047000068020020AE
:103110006C02002070B501461A4D2D681DB945F2AC
:103120001E750D8070BD184D2D881DB945F21D7599
:103130000D80F7E7134D28682A681032124D2D884C
:103140006D1EACB2002308E00260002545600581D9
:10315000C560103010325D1CABB2A342F4DB002519
:10316000056045600581C560064D2D68074E3560D8
:10317000054D2D88B5800025F58035810D8000BF77
:10318000D0E700005859000850590008F876002090
:1031900010B5014648894B89002B17DD0A680C4B96
:1031A0001B6813600A4C4B6823602346DB884C89FC
:1031B0001B1B074CE38023469B884C892344044C0B
:1031C000A38000234B818B810B604B6010BD0000FE
:1031D000F8760020F0B504460D46608940B900201D
:1031E000288002B1106046F2925018800020F0BD95
:1031F00061684E68088928800AB1C868106008684C
:103200006060606818B900202060608102E0608919
:10321000401E608108480068086007480160808897
:10322000401C054FB8803846C088401EF8800020FA
:1032300018803046DBE70000F8760020018100228C
:103240004281828102604260704700002DE9F041B6
:103250000D46DDE90674B0F80AC0B0F80880C44530
:1032600005DB46F2935CA4F800C0BDE8F081DFF80E
:10327000DCC0BCF804C0BCF1000F04D145F21D7CD9
:10328000A4F800C0F1E7DFF8C4C0DCF80010DFF8F4
:10329000BC80D1F800C0C8F800C0C446BCF804C067
:1032A000ACF1010CA8F804C0C446BCF806C00CF18F
:1032B000010CA8F806C0C446BCF808C0B8F80680DF
:1032C000C44507DADFF884C0BCF806C0DFF87C80AC
:1032D000A8F808C0B0F80AC0BCF1000F0AD101601C
:1032E00041604FF0010CA0F80AC04FF0000CC1F88B
:1032F00000C017E003F0100CBCF1000F07D1066806
:10330000316001604FF0000CC1F800C004E0D0F85B
:1033100004C0C1F800C04160B0F80AC00CF1010C53
:10332000A0F80AC0B0F80CC0B0F80A80C44503DAAF
:10333000B0F80AC0A0F80CC04D600A81CF604FF011
:10334000000CA4F800C000BF8FE70000F876002052
:1033500009A1C161002141610849096811B9002131
:10336000816105E00549096881610449096848618E
:103370000249086070470000200000007002002031
:10338000C26B0A62C16370472DE9F8430546EC6BD6
:1033900026E0D4F82090FDF775FA0646E66221464D
:1033A000284600F037F804F10808B8F8080020B9FA
:1033B000002084F82800606211E0D8F800008768D7
:1033C0006562012084F8280021463846FFF7D8FFBF
:1033D00000231A4639462046009600F04DF94C4627
:1033E000002CD6D1BDE8F88330B504463F2004F167
:1033F0003C010BE00D68AB682BB19D6895F8372058
:10340000824200DA10460D6805F120010D68002D9A
:10341000F0D130BD024602F13C0002E0036803F146
:10342000200003688B42F9D103681B6A0360704770
:103430000021034A1160034A118001807047000097
:1034400070020020740200202DE9F04105460C4670
:1034500016461F461548006880F83460002013495E
:10346000096881F8350039461048006800F07CFC96
:103470006CB104F10808EC60012229460B48006891
:1034800000F016F82946404600F088F807E00020D2
:1034900006490968A1F84600044909680863034819
:1034A0000168204600F018F8BDE8F081F80200201D
:1034B00010B5A0F84620016300230AE000244C6008
:1034C0000C600C614C610C83CC61886020315C1C09
:1034D000A3B29342F2DB10BD30B548B14568C1F8E4
:1034E000BC5000F10804226893681D6AC56113E0AE
:1034F00091F83450022D02D0072D08D103E007A522
:10350000C1F8BC5007E007A5C1F8BC5003E008A50E
:10351000C1F8BC5000BF00BF30BD00005461736BE8
:10352000205100005461736B2053656D0000000052
:103530002000000030B507A5C1F8BC5000F1080418
:1035400022681AB193681D6AC56101E001A5C561D1
:1035500030BD0000200000002DE9F0410446256B3D
:10356000B4F8467011E0D5F80C8008F108063089EF
:10357000012807D92946304600F05DF82946304633
:1035800000F00CF82035781E87B2002FEBD1BDE893
:10359000F08100210160416001817047F0B58E68C3
:1035A00096F8375007893FB90127078100274F60F8
:1035B0000F600160416023E007897F1C078102687A
:1035C00006E0946894F83770AF4200DD02E052687C
:1035D000002AF6D100BF32B900274F6043680B6064
:1035E000596041600CE017682FB9116000270F6027
:1035F0004A60016004E013680B604A605960116022
:10360000F0BD2DE9F0410446256BB4F846600AE0B0
:10361000D5F80C8008F108072946384600F00BF869
:103620002035701E86B2002EF2DC0020A4F8460081
:103630002063BDE8F08110B50489012C03D100247A
:103640000460446011E00C6824B94A6800241460E6
:1036500002600AE04C6824B90B6800245C60436097
:1036600003E00B684A685A6013600489641E048191
:1036700000244C600C6010BD2DE9F84306460C4652
:1036800017469846089D94F8360008285BD2DFE874
:1036900000F0040508090607323300BF00BF00BF71
:1036A00052E000BF94F83400032807D143463A465D
:1036B00021463046009500F04AF803E0A765A4F8DB
:1036C0005C80A56436B12046FFF79BFF214630465B
:1036D000FFF730FF94F83600032802D1204600F0AF
:1036E00083FF204600F0ACF800203434A0706070F6
:1036F00004F8340928E000BF94F83400032807D107
:1037000043463A4621463046009500F020F803E053
:10371000A765A4F85C80A56436B12046FFF771FF69
:1037200021463046FFF706FF94F83600072802D1FD
:10373000204600F059FF04203434A070002060704F
:1037400004F8340900E000BF00BFBDE8F883F0B51D
:103750000446059E086BB1F846500AE0C768A742C8
:1037600004D1046142610383C66104E020306F1E0E
:10377000BDB2002DF2DC00BFF0BD000070B5002529
:10378000074C03E005F12000C5B2241D2068002885
:10379000F8D02068FCF737FD2844C5B2284670BD34
:1037A00034020020002004E00021034A42F82010E7
:1037B000401C0228F8D370473402002030B542097B
:1037C00000F01F030121C3F11F04A140034C54F872
:1037D00022400C43014D45F8224030BD3402002008
:1037E00030B5420900F01F030121C3F11F04A140BD
:1037F000034C54F822408C43014D45F8224030BD23
:10380000340200200021034A1160034A1180018024
:10381000704700007C0200208002002000210AE0A6
:1038200001EB4102054B03EB8200002202810260A2
:1038300042604A1CD1B24029F2D37047047700207D
:1038400010B5044694F83700FFF7B8FF94F8370036
:1038500005490978884203D1204600F027F802E0A4
:10386000204600F003F810BD7602002010B590F855
:10387000373003EB43030C4C04EB83010B893BB95A
:1038800001230B810023C36003610860486009E0E5
:103890000B895B1C0B810B68C360002303610A6802
:1038A0001061086010BD00000477002010B590F88A
:1038B000373003EB43030B4C04EB83010B893BB91B
:1038C00001230B810023C36003610860486008E0A6
:1038D0000B895B1C0B810023C3604A680261D060C6
:1038E000486010BD047700202DE9F041054695F8A9
:1038F000370000EB4000124901EB80042F69EE68AD
:1039000087B946B9002020812060606095F83700B3
:10391000FFF766FF0EE02089401E20810020306105
:10392000266007E02089401E2081FE600EB9676096
:1039300000E0376100202861E860BDE8F081000008
:103940000477002010B504480078012803D1FCF763
:1039500099FF0249086010BD9002002084020020F7
:1039600010B50A48007880B9FCF78CFF084909684F
:10397000441A08480068A04201D20648046006487C
:103980000068A04201D20448046010BD90020020EB
:1039900084020020880200208C0200200021034ABB
:1039A0001160034A118001807047000094020020DA
:1039B0009802002086B00020009006E0A84909681F
:1039C000480001AA0021FFF7E7F8A648007801287F
:1039D000F4D101A8FEF7B2F90027A3480068A04976
:1039E0000968884205D9A04800689D490968B0FB6C
:1039F000F1F727B99C4800680A21B0FBF1F72EE1E6
:103A0000FCF740FF804600BF00BFFCF7F1FB0090D1
:103A100000BF00BF954800689549086000209349A1
:103A2000086000BF00BF0098FCF7E6FB00BF00BFC6
:103A3000904800688E490968884248D98D480068D6
:103A40008D49884205D242F2107003900120029005
:103A500023E0884800688949884205D24FF47A708B
:103A600003900A20029018E0824800688449884246
:103A700003D26420039002900FE07E4800688149E1
:103A8000884205D20A2003904FF47A70029004E035
:103A90000120039042F2107002907648016802986B
:103AA000B1FBF0FA7249039809684843B0FBFAF099
:103AB00042F21071081A7449088074480088098815
:103AC000884208DA704800887049088003E042F2B2
:103AD00010706D490880FEF73DFA002500BF00BF59
:103AE000FCF786FB009000BF00BF6948046800BF78
:103AF00000BF0098FCF780FB00BF00BF26E000BFBE
:103B000000BFFCF775FB009000BF00BF54F8980F92
:103B10006060002044F8980900BF00BF0098FCF7DF
:103B20006BFB00BF00BFD4F89C00054400BF00BF82
:103B3000FCF75EFB009000BF00BFD4F8B84000BFA8
:103B400000BF0098FCF758FB00BF00BF002CD6D187
:103B500045B34948854205D242F2107005904FF0B6
:103B6000010B1BE04548854205D24FF47A70059061
:103B70004FF00A0B12E04248854203D264200590C0
:103B800083460BE03F48854204D20A2005904FF45B
:103B90007A7B03E00120059042F2107BB5FBFBF03D
:103BA000049003E0002005900120049000BF00BFB6
:103BB000FCF71EFB009000BF00BF3548046800BF43
:103BC00000BF0098FCF718FB00BF00BF2BE0D4F843
:103BD0009C00059948430499B0FBF1F086B242F28B
:103BE0001070864200D90646A4F88860B4F88A00AE
:103BF000B04201DAA4F88A6001AB04F1A802111DF9
:103C00002046FEF799FD00BF00BFFCF7F1FA0090D7
:103C100000BF00BFD4F8B84000BF00BF0098FCF759
:103C2000EBFA00BF00BF002CD1D11A480078012860
:103C300005D100201749087001A8FEF77FF8FCF7AE
:103C400021FEA0EB080914480068484502D212483A
:103C5000C0F8009001AA00213846FEF79DFFCFE68C
:103C600060590008AC02002078590008A00200202A
:103C7000A8020020A4020020801A060000093D00CE
:103C8000005A62020084D7179C0200209E02002086
:103C9000B80200209A020020B002002010B58AB0BD
:103CA000044600201F4908601F4908601F4908603A
:103CB0001F4908701F4908701F48006820B946F660
:103CC0002B6020800AB010BD1C4800681C490968A0
:103CD000884203D246F62C602080F3E7194800782A
:103CE0003F2803D346F62A602080EBE7032000211B
:103CF0000591CDE907040691084610490968124A62
:103D000012680D4B1B68CDE90132CDE903100D4857
:103D1000007800230D4A0EA100901248FEF724F906
:103D200000BFCFE7A0020020A8020020A4020020CC
:103D3000AC0200209A020020645900086C59000867
:103D4000745900085C59000868590008B539000822
:103D500075432F4F532D49494920537461742054A2
:103D600061736B00047A002070B504460D4645B1BE
:103D70002A462146064800F095FB032084F83600C9
:103D800002E0022084F836002046FFF7ADFD70BD4A
:103D9000D00200202DE9F04104460D4600BF002668
:103DA00094F8377094F8360008285FD2DFE800F006
:103DB00004191E1F1A1B20212046FFF795FD84F8C9
:103DC000375094F83700FFF7F9FC2C48006884421C
:103DD00003D12046FFF74AFD02E02046FFF766FDCB
:103DE00046E000BF00BF84F8375041E000BF00BF8D
:103DF00000BF84F8375094F83400082831D2DFE847
:103E000000F0300431050B06073200BF00BF00BFD1
:103E10002046FFF7A1FB27E02046FFF79DFB206B24
:103E2000C068466AAF4205DD96F83700A84217DC45
:103E3000002615E096F83700B84211D13046FFF75A
:103E4000D3FA054696F83800A84202DA96F8380008
:103E500000E02846054696F83700A84200D1002623
:103E600002E000BF00BF00BF00BF01E0BDE8F0817D
:103E700000BF3446002C92D100BFF7E7F8020020C3
:103E80000021C0F8B4100949096819B90021C0F827
:103E9000B81007E005490968C0F8B8100349096877
:103EA000C1F8B4000149086070470000B802002062
:103EB000D0F8B420D0F8B8104AB90D4B196011B140
:103EC0000023C1F8B4300023C0F8B8300FE029B99E
:103ED0000023C2F8B830C0F8B43008E0C2F8B81017
:103EE000C1F8B4200023C0F8B830C0F8B43070472F
:103EF000B80200200021044A1160044A1180044ADB
:103F00001160018070470000B8020020BC02002050
:103F1000B402002070B5044600202060A0606060FC
:103F2000E06020616061A061E06126A02062002065
:103F30006062A062E062A064A065A4F85C00002159
:103F400004F16000FFF77AF9002020676067E067FE
:103F5000A4F88400C4F88000002506E0002104F1E4
:103F6000780040F82510681CC5B2002DF6D000205E
:103F70003434A061E0662067E06084F85200A067F6
:103F800060672082E0612062A4F85400A4F8560023
:103F9000A065E065FCF776FC0646266600206066B4
:103FA000E06720706070A0704020E07020710020F9
:103FB000A060C4F88000C4F8840004A0C4F888009D
:103FC000343C70BD3F5461736B0000002000000062
:103FD0002DE9FC4704460F4690469946DDE90A65FF
:103FE0004FF0000A0020288000BF00BFFCF700F956
:103FF000824600BF00BF0CB92C48046894F8360014
:10400000082845D2DFE800F00405181906071A1B36
:1040100000BF00BF00BF4B464246394604F1600076
:10402000CDE90065FFF712F900BF00BF5046FCF76D
:10403000E3F800BF00BF36E000BF00BF00BF94F848
:104040003400022813D143463A4621460020009608
:10405000FFF712FB00BF00BF5046FCF7CDF800BFD2
:1040600000BF09F4004090B9FDF772FD0FE04B4628
:104070004246394604F16000CDE90065FFF7E6F8F5
:1040800000BF00BF5046FCF7B7F800BF00BF0AE012
:1040900000BF00BF5046FCF7AFF800BF00BF46F6B8
:1040A0002D60288000BF00BFBDE8FC87F80200201B
:1040B00070B504460D46002600BF00BFFCF798F817
:1040C000064600BF00BF0020288094F8360008286C
:1040D0005ED2DFE800F0040506071227394B00BF67
:1040E00000BF00BF00BF00BF3046FCF785F800BF2F
:1040F00000BF47F25310288055E014F8860F401E89
:10410000207014F8860928B9002084F8360020466B
:10411000FFF796FB00BF00BF3046FCF76DF800BF0D
:1041200000BF40E014F8860F401E207014F8860986
:1041300010B9012084F8360000BF00BF3046FCF7FC
:104140005BF800BF00BF2EE014F8860F401E207001
:1041500014F8860910B9022084F8360000BF00BFA9
:104160003046FCF749F800BF00BF1CE014F8860F8A
:10417000401E207014F8860910B9032084F8360018
:1041800000BF00BF3046FCF737F800BF00BF0AE0B1
:1041900000BF00BF3046FCF72FF800BF00BF46F657
:1041A0002D60288070BD00BFFDF7D2FC00BFF9E78D
:1041B00008B504480068FEF7AFF969460020FDF72E
:1041C000A7FF08BDF80200202DE9F8430446884601
:1041D00017461D464FF0000900BF00BFFCF708F866
:1041E000814600BF00BF0CB967480468A76400207F
:1041F000288094F83600082876D2DFE800F004051D
:1042000050510607525300BF00BF00BF04200128D1
:1042100004D0022813D0042833D122E0E06CFF2818
:104220000CD100BF00BF4846FBF7E6FF00BF00BF50
:1042300046F6C55028800020BDE8F88322E04FF6FE
:10424000FF71E06C88420BD100BF00BF4846FBF70E
:10425000D3FF00BF00BF46F6C55028800020EBE723
:1042600010E0E06C401C58B900BF00BF4846FBF7A7
:10427000C3FF00BF00BF46F6C55028800020DBE723
:1042800000E000BF00BFE06C401CE064E66C00BFD3
:1042900000BF4846FBF7B0FF00BF00BF71E000BFA2
:1042A00000BF00BF94F83400072815D100231A4638
:1042B000214618460097FFF7DFF9E66C00BF00BF04
:1042C0004846FBF799FF00BF00BF08F400400028F4
:1042D0004AD1FDF73DFC47E00420012805D0022823
:1042E00013D0042833D122E03FE0E06CFF280BD14B
:1042F00000BF00BF4846FBF77FFF00BF00BF46F688
:10430000C5502880002097E722E04FF6FF71E06C4F
:1043100088420BD100BF00BF4846FBF76DFF00BFCE
:1043200000BF46F6C5502880002085E710E0E06C0D
:10433000401C58B900BF00BF4846FBF75DFF00BFF7
:1043400000BF46F6C5502880002075E700E000BF9A
:1043500000BFE06C401CE064E66C00BF00BF484654
:10436000FBF74AFF00BF00BF0BE000BF00BF48469D
:10437000FBF742FF00BF00BF46F62D6028800026F5
:1043800000BF00BF304657E7F802002070B5044672
:104390000D46002600BF00BFFBF72AFF064600BF00
:1043A00000BF0CB93D4804683C48006884420ED107
:1043B0003B48007800280ADD00BF00BF3046FBF70D
:1043C0001BFF00BF00BF46F66350288070BD002071
:1043D000288094F83600082850D2DFE800F0041551
:1043E00023313F404142042084F83600012084F804
:1043F00086002046FFF778FA00BF00BF3046FBF783
:10440000FBFE00BF00BF44E0052084F83600012019
:1044100084F8860000BF00BF3046FBF7EDFE00BF0A
:1044200000BF36E0062084F83600012084F88600BC
:1044300000BF00BF3046FBF7DFFE00BF00BF28E033
:10444000072084F83600012084F8860000BF00BFF2
:104450003046FBF7D1FE00BF00BF1AE000BF00BF2F
:1044600000BF94F88600401C84F8860000BF00BF9F
:104470003046FBF7C1FE00BF00BF0AE000BF00BF2F
:104480003046FBF7B9FE00BF00BF46F62D6028801E
:104490009CE700BFFDF75CFB00BF97E7F802002038
:1044A0009002002070B51546066846B90D650026D5
:1044B0004E618E61C86101600126868033E0046828
:1044C00002682B4624E0166D9E421DD396696EB994
:1044D0000B6500268E614A61C861166DF61A166575
:1044E000916101608688761C86800CE094690B657A
:1044F0008C614A61C861166DF61A16659161616139
:104500008688761C868070BD166D9B1B144652698A
:10451000002AD8D10B658C6100264E61C8616161AB
:104520008688761C868000BFEDE700002DE9F0410B
:1045300004460D4690461F46B8F1040F0ED1284898
:1045400000682E1A16F5803F01D8002E3CD10020BD
:10455000206547F27E203880BDE8F081B8F1080F71
:1045600029D11F49606D0968081AA84205D92E464D
:104570001B4800682844606526E01949606D096899
:10458000081A2E1A16F5803F00D886B91449606DB6
:104590000968081AB0FBF5F005FB0050616D08448E
:1045A00060650020206547F27E203880D4E7606D8A
:1045B0002844606508E00DB12E4605E00020206526
:1045C00047F27E203880C7E7012084F83600324663
:1045D00021460448FFF766FF0020388000BFBBE794
:1045E000C0020020C802002030B5C2698369416959
:1045F000ABB929B90024146094800465C4611EE03D
:1046000000248C610C6D056D2C440C651160948840
:10461000641E9480002444610465C4610FE0596104
:1046200021B18B610C6D056D2C440C6500248461F7
:104630009488641E9480002444610465C46130BD84
:10464000704700002DE9F0474FF0000900BF00BFA0
:10465000FBF7CEFD814600BF00BFFCF713F906460D
:1046600000271D4D2C683CB3206D401E20651FE0C7
:10467000781C87B294F83600012806D1002084F80F
:1046800036002046FFF7DCF806E094F836000528EF
:1046900002D1042084F83600606928602C6814B9BF
:1046A0000020A88007E0A888401EA8800020A06104
:1046B000206D0028DCD000BFEF80FCF7E3F8A0EB12
:1046C000060800BF00BF4846FBF796FD00BF00BFCD
:1046D0004046BDE8F0870000C80200202DE9F05FE9
:1046E0004FF0000B00BF00BFFBF782FD834600BF09
:1046F00000BFFCF7C7F807464FF000083B4D2C6899
:10470000002C63D0206D401E20655BE008F10100A5
:104710001FFA80F8002694F83400042802D1206B98
:10472000C068466A0020A065A4F85C00FCF7AAF8FF
:10473000A0642046FEF765FF94F83600032806D1F2
:104740002046FFF77DF8002084F8360006E094F854
:104750003600072802D1042084F83600032084F8AC
:104760003500002084F8340006B396F8370096F838
:10477000381088421AD096F8370094F837108842DB
:1047800014D13046FEF730FE814696F83800484591
:1047900002DA96F8380000E04846814696F837007D
:1047A000484503D049463046FFF7F4FA606928606F
:1047B0002C6814B90020A88007E0A888401EA880B3
:1047C0000020A061206D0028A0D000BFA5F80680C1
:1047D000FCF758F8A0EB070A00BF00BF5846FBF7EC
:1047E0000BFD00BF00BF5046BDE8F09FD002002087
:1047F00008B5002728E06B46002211461046FDF759
:1048000097FEBDF80000F8B900BF00BFFBF7F0FC51
:10481000074600BF00BF0D480068401C0B490860F8
:1048200000BF00BF3846FBF7E7FC00BF00BFFFF743
:1048300009FF0646FFF752FF054674190448006851
:10484000A04201D202480460D5E70000C002002067
:10485000C402002010B58AB0044600202049086038
:1048600020490860204908601E498880C8801E4988
:104870008880C8801D48006820B947F21220208037
:104880000AB010BD1A4800681A490968884203D264
:1048900047F213202080F3E7174800783F2803D31E
:1048A00047F211202080EBE70B2000210591CDE994
:1048B0000704069108460E490A68104909680B4B1F
:1048C0001B68CDE90131CDE903200B4800780023B6
:1048D0000B4A0CA100901048FDF746FB00BFCFE744
:1048E000C0020020C8020020D00200208059000829
:1048F00088590008745900087C5900088459000838
:10490000F147000875432F4F532D494949205469F9
:10491000636B205461736B00C47A002010B58AB0B9
:10492000044600202F4908602F4908602F4908805D
:104930002F48006840B12F4800682D490968B0FB36
:10494000F1F02D49086006E02A4800680A21B0FB12
:10495000F1F02949086028480068284908600020CB
:104960002749086027490860224627A12A48FCF702
:1049700009FF208808B10AB010BD2848006818B99E
:1049800047F247302080F6E7254800682549096846
:10499000884203D247F248302080ECE72248007872
:1049A0003F2803D347F246302080E4E70B20002164
:1049B00005910A46CDE907040691194800681B498C
:1049C0000968164B1B68CDE90131CDE90302164891
:1049D00000780023164A17A100901C48FDF7C4FA7E
:1049E00000BFC8E7D8020020E0020020DC0200205F
:1049F0009459000878590008F0020020F4020020C1
:104A0000EC020020E80200204F5320546D72204D2C
:104A10007574657800000000847B002098590008B8
:104A2000A059000874590008905900089C590008C2
:104A30006D4A000875432F4F532D49494920546949
:104A40006D6572205461736B00000000B47B002020
:104A50000EB502A801AB0022114600900148FCF7F8
:104A6000C9FE0EBD847B0020704700001CB53FE0EE
:104A700001AB6A4600210846FDF75AFDFFF7E8FF43
:104A8000FBF700FF06461B480068401C19490860F8
:104A9000194804681FE001A8FDF7ACF8D4F81080AD
:104AA000A069401EA061A06980B9A08C022802D133
:104AB000206AA06105E0204600F022F8032084F877
:104AC0002600A56815B12046E168A847444601A81C
:104AD000FDF7C0F800BF002CDDD1FBF7D3FE871B2C
:104AE00000F030F805480068B84201D2034807607A
:104AF000BEE70000EC020020E0020020E8020020F7
:104B000010B50E4B1B68834206D101690B4B19602F
:104B100039B100234B6104E0416902690A6102B1C5
:104B20005161012380F82630002303614361044B67
:104B30001B885B1E024C238010BD0000E002002099
:104B4000DC02002008B56A4600210248FCF73AFF63
:104B500008BD0000847B002029B1064A1268024388
:104B6000044B1A6004E0034A12688243014B1A6046
:104B7000704700003038024029B1064A12680243EB
:104B8000044B1A6004E0034A12688243014B1A6026
:104B9000704700004038024029B1064A12680243BB
:104BA000044B1A6004E0034A12688243014B1A6006
:104BB000704700002038024029B1064A12680243BB
:104BC000044B1A6004E0034A12688243014B1A60E6
:104BD0007047000044380240F0B500210022002454
:104BE000022500260223324F3F6807F00C0121B155
:104BF000042905D0082937D105E02E4F076036E09B
:104C00002D4F076033E02A4F3F1F3F68C7F38056A0
:104C1000274F3F1F3F6807F03F036EB1264FB7FB9A
:104C2000F3F7DFF88CC0ACF1040CDCF800C0CCF377
:104C3000881C07FB0CF40CE01E4FB7FBF3F7DFF802
:104C400070C0ACF1040CDCF800C0CCF3881C07FB8E
:104C50000CF4174F3F1F3F68C7F301477F1C7D00CF
:104C6000B4FBF5F7076002E0124F076000BF00BF1A
:104C70000F4F3F6807F0F0010909104F7A5C076891
:104C8000D74047600A4F3F6807F4E051890A0B4F4D
:104C90007A5C4768D7408760054F3F6807F46041FA
:104CA000490B064F7A5C4768D740C760F0BD0000EB
:104CB000083802400024F40000127A0000000020AE
:104CC00010B588B0044601210846FFF745FF0121D1
:104CD0004804FFF751FF072202212848FCF7AFF9EB
:104CE000072203212548FCF7AAF902208DF81C00B1
:104CF00000208DF81E000C20069003208DF81D006A
:104D000001208DF81F0006A91C48FCF750F90294F9
:104D10000020ADF814000C20ADF812000020ADF812
:104D20001000ADF80E00ADF80C0002A9144800F018
:104D30000FFA26208DF8040001208DF807000320CB
:104D40008DF805008DF8060001A8FCF795FB0122FF
:104D500040F224410A4800F0D5F901228021084898
:104D600000F09DF901224021054800F098F9012149
:104D7000034800F088F908B010BD000000000240B0
:104D800000440040704700000CB5002001900090E6
:104D90003448006840F480303249086000BF314830
:104DA000006800F4003000900198401C01900098C9
:104DB00018B90198B0F5A04FF1D12A48006800F465
:104DC000003010B10120009001E000200090009818
:104DD000012846D123484030006840F080502149E6
:104DE000403108602048006840F440401E49086097
:104DF0001C48083000681B490831086008460068F4
:104E000040F4004008600846006840F4A050086084
:104E10001648091F0860081F006840F08070091FCD
:104E2000086000BF0F48006800F000700028F9D04B
:104E300040F205700E4908600A480830006820F00A
:104E400003000849083108600846006840F0020085
:104E5000086000BF03480830006800F00C00082814
:104E6000F8D10CBD003802400070004008544007E3
:104E7000003C024010B51548006840F4700013492A
:104E800008601348006840F00100114908600020E4
:104E90000F49083108600E4800680E4908400C4967
:104EA00008600D48091D0860081F006820F4802074
:104EB000091F0860002006490C310860FFF764FFF5
:104EC0004FF0006001498039086010BD88ED00E0B6
:104ED00000380240FFFFF6FE1030002410B540F20B
:104EE0002661054800F0E4F828B1002240F226616E
:104EF000014800F007F910BD00100140F0B587B07F
:104F000040F224413B4800F0D3F8002840D0002173
:104F10003948FBF7BDFD3848FBF77CFEC0F5007053
:104F200086B200BF802000F0ABFC044604B916E056
:104F300032A034493922CDE903160292059032A0FD
:104F400037A138A338A2CDE9001038A1204600F0DF
:104F500009FAC5B22946204600F03EFC00BF00BF5A
:104F600000BF2548FBF74CFE0028FAD14FF4007132
:104F70002148FBF7CFFE1F480788001D07883B49E3
:104F80001D48FBF76BFD01211B48FBF781FD00BFAE
:104F900040F22661174800F08BF8002827D000BFA8
:104FA000802000F06DFC044604B915E013A01549FB
:104FB000472215A3CDE90132CDE9031018A019A3AA
:104FC00019A22B490090204600F0CCF9C5B2294621
:104FD000204600F001FC00BF00BF002240F2266125
:104FE000044800F08FF84021024800F043F807B071
:104FF000F0BD000000440040886002401B5B306D43
:1050000000000000EC580008484152445741524506
:105010005C736F757263655C72733438352E630030
:1050200032326D0033373B001B5B00002573257364
:1050300025735B494E464F5D46696C654E616D65F3
:105040003A25733B204C696E653A25643B204675D2
:105050006E6374696F6E3A25732E646174615F6C60
:10506000656E203D20256425730D0A000088002010
:10507000185B000801F40072B2F5007F00D100BF98
:10508000CA430280704721B1828942F40052828172
:1050900004E082894DF6FF731A40828170471AB18D
:1050A000838A0B43838202E0838A8B438382704727
:1050B00070B50246002400230025002040F66A1641
:1050C000B14200D100BFC1F3421501F01F03012618
:1050D00006FA03F3012D02D19689334006E0022D32
:1050E00002D1168A334001E0968A33400C12012621
:1050F00006FA04F41688344013B10CB1012000E024
:10510000002070BDF0B503460024002600250020D5
:1051100040F66A17B94200D100BF1846C1F34214E5
:1051200001F01F06012707FA06F5012C01D10C300A
:1051300004E0022C01D1103000E014301AB10768ED
:105140002F43076002E00768AF430760F0BD00002F
:105150002DE9FF4705460E460024A14600BFA046A4
:10516000B08900B100BF2C8A24F44054F088044375
:105170002C82AC8941F20C608443B08831890843A9
:10518000718908430443AC81AC8A24F44074B0892B
:105190000443AC826846FFF71FFD2048854202D0D9
:1051A0001F48854202D1DDF80C9001E0DDF808903F
:1051B000A88900F4004040B109EBC90000EB0910D8
:1051C00031684900B0FBF1F707E009EBC90000EBDB
:1051D000091031688900B0FBF1F76420B7FBF0F0EB
:1051E00004012009642101FB1078A88900F4004023
:1051F00040B1322000EBC800B0FBF1F000F0070036
:10520000044308E0322000EB08106421B0FBF1F009
:1052100000F00F0004432C81BDE8FF87001001401F
:105220000014014000BFFEE700B591B00121480520
:10523000FFF792FC2248FBF737FC00BF2048FBF742
:10524000DFFC0028FAD14FF0006002901D48039067
:105250001D480490002005904FF400700690002037
:1052600007904FF480600890002009900A900B90FE
:105270004FF480300C9000200D9003200E90002001
:105280000F90109002A90E48FBF718FD10208DF822
:10529000040001208DF8070003208DF805008DF82B
:1052A000060001A8FCF7E8F8012210210448FBF7EA
:1052B000E7FC01210248FBF7EBFB11B000BD000049
:1052C0008860024004440040145A002000B591B0A8
:1052D00001214805FFF740FC1F48FBF7E5FB00BF35
:1052E0001D48FBF78DFC0028FAD14FF000600290BA
:1052F0001A4803901A48049040200590C000069078
:10530000002007904FF480600890002009900A90D8
:105310000B904FF480300C9000200D9003200E90E5
:1053200000200F90109002A90B48FBF7C7FC11203A
:105330008DF8040001208DF8070003208DF805008A
:105340008DF8060001A8FCF797F801221021024809
:10535000FBF796FC11B000BDA06002400444004081
:10536000260000200FB4084B10B504A902AA039828
:1053700000F01CF8044602A9002000F0B8F920460D
:1053800010BC5DF814FB0000EF56000802E008C8EE
:10539000121F08C1002AFAD170477047002001E0AF
:1053A00001C1121F002AFBD1704700002DE9FF4FF9
:1053B0008BB088460546002606E025280BD0DDE99F
:1053C0000D1290476D1C761C28780028F5D10FB07F
:1053D0003046BDE8F08F0024A146A2460122AE4926
:1053E00000E0044315F8013F203B02FA03F00842B5
:1053F000F7D128782A2810D06FF02F022878A0F152
:105400003001092915D809EB890102EB410144F06B
:10541000020400EB01096D1CF0E758F8041B5FEA79
:10542000010903D544F40054C9F1000944F0020411
:105430006D1C28782E2817D115F8010F44F00404AC
:105440002A280ED06FF02F022878A0F13001092908
:105450000AD80AEB8A0102EB410100EB010A6D1C3C
:10546000F2E758F804AB6D1C28786C280FD006DCE6
:105470004C2817D068280DD06A2814D104E074286D
:1054800010D07A280FD10DE044F400140AE044F45F
:10549000801401E044F440146978814202D104F59B
:1054A00080146D1C6D1C2878692865D006DC0028E6
:1054B0008DD0632827D0642806D15DE06E2808D0FF
:1054C00073282AD0752877D0DDE90D129047761C15
:1054D000E0E0C4F30250022809D003280DD0D8F828
:1054E000001004280DD00E6008F10408D2E0D8F8AE
:1054F0000010F217C1E90062F6E7D8F800100E803C
:10550000F2E70E70F0E718F8041B8DF80010002089
:105510008DF80100EB46012003E058F804BB4FF082
:10552000FF3061074FF0000701D40AE07F1C5745A8
:105530000DDA8742FADB1BF807100029F6D106E0E6
:105540007F1C8742FCDB1BF807100029F8D1DDE93E
:105550000D23A9EB07008146214600F0B1F8304445
:10556000C61904E0DDE90D121BF8010B90477F1E00
:10557000F8D22146484688E058F8040BC4F302519B
:105580004FF00A0B032900D100B2042900D140B228
:10559000002802DA40422D2102E0210505D52B2109
:1055A0008DF82410012104E006E0E10710D020214D
:1055B000F6E708AF089113E058F8040BC4F3025162
:1055C0004FF00A0B032900D180B2042900D1C0B2E8
:1055D0000021EEE75946FAF731FF303107F8011D97
:1055E0000028F7D1ADEB070000F1200B600702D5D2
:1055F00024F4803401E04FF0010ADA4502DDAAEB21
:105600000B0000E00020824600EB0B0108980144EB
:10561000A9EB01000A90E00306D4DDE90D23214641
:105620000A9800F04DF806444FF0000908E009A977
:1056300011F80900DDE90D12904709F10109761C06
:1056400008998945F3DBE0030CD5DDE90D232146FC
:105650000A9800F035F8064404E0DDE90D12302028
:105660009047761CBAF10001AAF1010AF5DC05E0C9
:10567000DDE90D1217F8010B9047761CBBF1000114
:10568000ABF1010BF4DC0A982146DDE90D2300F0B3
:1056900005F806446D1C97E6092801002DE9F04144
:1056A000044600251E461746880404D405E0394602
:1056B0002020B0476D1C641EF9D52846BDE8F08156
:1056C0002DE9F041044600251E469046C80301D549
:1056D000302700E02027880404D505E041463846FD
:1056E000B0476D1C641EF9D52846BDE8F0810A68F4
:1056F000531C0B601070704710B586B00446012132
:105700000846FFF729FA01211020FFF755FA072272
:1057100009211B48FBF793FC07220A211848FBF7D5
:105720008EFC4FF4C060049002208DF8140003201A
:105730008DF8150000208DF8160001208DF8170057
:1057400004A90F48FBF733FC00940020ADF80400D7
:10575000ADF80600ADF80800ADF80C000C20ADF86F
:105760000A0069460748FFF7F3FC0122802105483B
:10577000FFF795FC01210348FFF785FC06B010BD3B
:10578000000002400010014010B5002821D0114B4C
:105790000022001F196803E0814203D80A464968C5
:1057A0000029F9D152B11368841A9C4204D10068CF
:1057B00018441060104602E0506000E0186039B1F3
:1057C00002680B1A934203D10B681A4402604968BD
:1057D000416010BD040300207CB504460D4601A8BD
:1057E000AAB24FF40043214600900548FCF740FE62
:1057F000BDF8040018B12046FFF7C6FF00247CBDA9
:105800008C0E002000B58BB0FAF7D9FFFAF7BFFF76
:10581000FAF7DAFFFAF7E8FFFBF7A6FDFBF77CFDE6
:105820000AA8FBF77BFE0AA8032100220592CDE916
:1058300006210890114680220A48006B094BCDE9E9
:105840000130CDE9032102200023074A07A100907F
:105850000A48FCF789FB0AA8FCF73CFA00200BB0C9
:1058600000BD0000CC0300209106000841707020AC
:105870005461736B20537461727400000C03002038
:10588000F0B50B30154D20F007010024144A0FE04D
:1058900003688B420BD38B4205D95E1A43184768C5
:1058A000C3E9006700E04368136002C004E0021D22
:1058B00010680028ECD12046002802D1286808B1E1
:1058C0000020F0BD064A07481060074A121A22F06D
:1058D0000702C0E9002401202860D7E70803002060
:1058E000040300207C7C0020788000205553415226
:1058F00054325F49525148616E646C657200444D88
:1059000041315F53747265616D355F495251486131
:105910006E646C6572000000B8680020060000002C
:105920004000000000010000000000000000000036
:105930000000000000000000000000000000000067
:1059400000000000B8690020640000009001000021
:105950006400000040060000486B00200B000000BF
:105960000A000000887100200A00000064000000A6
:105970009001000040000000E8030000010000006A
:10598000187300200A00000064000000900100006D
:105990000B0000000A000000A87400200A000000AC
:1059A0006400000090010000800D00000101010072
:1059B00078563412000100000000000000000000D2
:1059C00000000000000000000000000000000000D7
:1059D00000000000000000000000000000000000C7
:1059E0000101010028000400000000000000000088
:1059F00000000000000000000000000000000000A7
:105A00000000000000000000000000000100200075
:105A1000010010000C001000000000000000000059
:105A20000000000000000000000000000000000076
:105A30000000000000000000000000000000000066
:105A40000000000000000000010101003000010022
:105A500020000C00200040000800040000000000AE
:105A60000000000000000000000000000000000036
:105A70000000000000000000000000000000000026
:105A80000000000000000000000000000101010112
:105A900030000000000000000000000000000000D6
:105AA00000000000000000000000000000000000F6
:105AB00000000000000000000000000001010101E2
:105AC00028000C0000030000040101010101010194
:105AD00001000101C00008000101000000000000F9
