:020000040800F2
:10000000880800206902000835070008E10600089A
:100010003107000823030008530D0008000000000A
:10002000000000000000000000000000C5090008FA
:100030000106000800000000B1070008B50A00082A
:10004000830200088302000883020008830200087C
:10005000830200088302000883020008830200086C
:10006000830200088302000883020008830200085C
:10007000830200088302000883020008830200084C
:100080008302000829030008830200088302000895
:10009000830200088302000883020008830200082C
:1000A000830200088302000883020008830200081C
:1000B000830200088302000883020008830200080C
:1000C00083020008830200088302000883020008FC
:1000D00083020008830200083D0B00088302000829
:1000E00083020008830200088302000883020008DC
:1000F00083020008830200088302000883020008CC
:1001000083020008830200088302000883020008BB
:1001100083020008830200088302000883020008AB
:10012000830200088302000883020008830200089B
:10013000830200088302000883020008830200088B
:10014000830200088302000883020008830200087B
:10015000830200088302000883020008830200086B
:10016000830200088302000883020008830200085B
:10017000830200088302000883020008830200084B
:10018000830200088302000800F002F800F05CF827
:100190000AA090E8000C82448344AAF10107DA45E2
:1001A00001D100F051F8AFF2090EBAE80F0013F0D8
:1001B000010F18BFFB1A43F001031847C00C0000E1
:1001C000E00C00000A444FF0000C10F8013B13F063
:1001D000070408BF10F8014B1D1108BF10F8015BA0
:1001E000641E05D010F8016B641E01F8016BF9D193
:1001F00013F0080F1EBF10F8014BAD1C0C1B09D1EA
:100200006D1E58BF01F801CBFAD505E014F8016B5B
:1002100001F8016B6D1EF9D59142D6D370470000ED
:100220000023002400250026103A28BF78C1FBD8FF
:10023000520728BF30C148BF0B6070471FB500F0A0
:1002400017FE1FBD10B510BD00F031F81146FFF7C5
:10025000F5FF00F0D3FD00F04FF803B4FFF7F2FF15
:1002600003BC00F057F800000948804709480047E0
:10027000FEE7FEE7FEE7FEE7FEE7FEE7FEE7FEE756
:10028000FEE7FEE704480549054A064B70470000B3
:10029000BD0A0008890100088802002088080020A3
:1002A0008804002088040020704770477047754616
:1002B00000F02CF8AE4605006946534620F00700D2
:1002C000854618B020B5FFF7DDFFBDE820404FF0B0
:1002D00000064FF000074FF000084FF0000B21F030
:1002E0000701AC46ACE8C009ACE8C009ACE8C009FD
:1002F000ACE8C0098D46704710B50446AFF30080E6
:100300002046BDE81040FFF7A8BF00000048704736
:100310002402002001491820ABBEFEE7260002009F
:10032000704700BFFEE7000010B50B490B4800F016
:10033000EBF878B100BF4021094800F03AFC0028F2
:10034000F9D04FF48071074800F0C6F9024903481C
:1003500000F00AF810BD000000802020A0600240DC
:1003600000440040001802400246094B9A4201D264
:10037000084801E00648103801F000531BB1064B55
:100380000B40C36002E0044B0B40836070470000E9
:1003900010640240006002407D0F7D0F016821F073
:1003A000010101600021016041608160C160016163
:1003B000212141614A49884204D13D21484A103AED
:1003C00091608CE046491831884205D14FF4746140
:1003D000434A103A916082E041493031884205D168
:1003E0004FF474113E4A103A916078E03C4948312C
:1003F000884205D14FF07461394A103A91606EE03D
:1004000037496031884204D13649354A103AD160C3
:1004100065E033497831884204D13349304A103A93
:10042000D1605CE02E499031884204D12F492C4A9A
:10043000103AD16053E02A49A831884205D14FF0E3
:100440003D51274A103AD16049E02949884204D1F8
:100450003D21274A083A116041E025491831884278
:1004600005D14FF47461224A083A116037E02049FF
:100470003031884205D14FF474111D4A083A116099
:100480002DE01B494831884205D14FF07461184A6C
:10049000083A116023E016496031884204D11149BD
:1004A000134A121F11601AE011497831884204D1B1
:1004B0000D490F4A121F116011E00D499031884219
:1004C00004D10A490A4A121F116008E00849A831FC
:1004D000884204D14FF03D51054A121F1160704708
:1004E000106002403D000020400F002000003D2031
:1004F00010640240014600200A6802F001020AB1BD
:10050000012000E00020704770B502460020002462
:100510000025124EB24201D2114B01E00F4B103BAD
:10052000104E0E4036B11E2606EAD124166806EAA1
:10053000040502E0566906F0800501F000560EB190
:100540005C6800E01C68084E344004EA010616B1FD
:100550000DB1012000E0002070BD000010640240D9
:10056000006002403C0F3C0F7D0F7D0F10B501F085
:1005700080034BB122B1436943F08003436103E040
:10058000436923F08003436180290BD02AB10368BB
:1005900001F01E042343036004E0036801F01E041D
:1005A000A343036010BD000010B500220268134B86
:1005B0001A40CC680B6823434C6923438C6923435E
:1005C000CC6923430C6A23434C6A23438C6A23433C
:1005D0004C6B23438C6B23431A430260426922F025
:1005E0000702D1E90B3423431A4342610B6943608C
:1005F0004B6883608B68C36010BD00003F801CF0B7
:100600007047F0B50A4600210023002400BF3DE0FA
:10061000012505FA01F3156805EA03049C4234D16B
:1006200005684F000326BE40B543056015794E00AE
:10063000B5400668354305601579012D02D015795E
:10064000022D16D185684F000326BE40B543856054
:1006500055794E00B540866835438560456801266A
:100660008E40B5434560456896798E40B6B23543B5
:100670004560C5684F000326BE40B543C560D579C7
:100680004E00B540C6683543C560491C1029BFD32C
:10069000F0BDF0B5002300244D07ED0E02FA05F37E
:1006A000CE1000F1200555F826504E07F70E0F2604
:1006B000BE40B543CF1000F1200646F82750CE10BB
:1006C00000F1200555F8265045EA0304CE1000F14C
:1006D000200545F82640F0BD4183704701837047EF
:1006E00000BFFEE71CB50121202000F063F84FF4A5
:1006F000C060009001208DF8040000208DF80600F5
:1007000001208DF8070003208DF805006946074891
:10071000FFF777FF4FF400710448FFF7DFFF4FF456
:1007200080610248FFF7DAFF1CBD000000140240A0
:1007300000BFFEE77047000070B5002100230F22C4
:10074000C4781CB3174C246804F4E064C4F5E06476
:10075000C4F30721C1F10404E3B20A4144789C4088
:10076000E1B28478144021430C07210E0E4C057829
:100770006155047804F01F050124AC4005786D1123
:10078000AD0005F1E025C5F8004109E0047804F06A
:100790001F050124AC40054D0678761145F826402A
:1007A00070BD00000CED00E000E400E080E100E03E
:1007B0007047000029B1064A12680243044B1A60D0
:1007C00004E0034A12688243014B1A60704700003C
:1007D0003038024029B1064A12680243044B1A60BD
:1007E00004E0034A12688243014B1A60704700001C
:1007F00040380240F0B500210022002402250026E6
:100800000223324F3F6807F00C0121B1042905D0C3
:10081000082937D105E02E4F076036E02D4F0760DD
:1008200033E02A4F3F1F3F68C7F38056274F3F1FD3
:100830003F6807F03F036EB1264FB7FBF3F7DFF8D1
:100840008CC0ACF1040CDCF800C0CCF3881C07FBB6
:100850000CF40CE01E4FB7FBF3F7DFF870C0ACF1FF
:10086000040CDCF800C0CCF3881C07FB0CF4174F19
:100870003F1F3F68C7F301477F1C7D00B4FBF5F7BE
:10088000076002E0124F076000BF00BF0F4F3F68D4
:1008900007F0F0010909104F7A5C0768D7404760FC
:1008A0000A4F3F6807F4E051890A0B4F7A5C4768AA
:1008B000D7408760054F3F6807F46041490B064FFA
:1008C0007A5C4768D740C760F0BD00000838024036
:1008D0000024F40000127A000400002010B588B053
:1008E000044601210846FFF765FF01214020FFF77C
:1008F00061FF01214804FFF76DFF072202212E4806
:10090000FFF7C7FE072203212B48FFF7C2FE022094
:100910008DF81C0000208DF81E000C20069003208E
:100920008DF81D0001208DF81F0006A92248FFF751
:1009300068FE01208DF81C000002069000208DF852
:100940001E0001208DF81F0003208DF81D0006A950
:100950001A48FFF756FE02940020ADF814000C2050
:10096000ADF812000020ADF81000ADF80E00ADF8A3
:100970000C0002A9124800F079F9012240F2255139
:100980000F4800F04DF926208DF8040001208DF865
:10099000070003208DF805008DF8060001A8FFF779
:1009A000CBFE4FF480710548FFF796FE0121044805
:1009B00000F0EAF808B010BD000002400018024044
:1009C00000440040704700000CB5002001900090EA
:1009D0003448006840F480303249086000BF314834
:1009E000006800F4003000900198401C01900098CD
:1009F00018B90198B0F5A04FF1D12A48006800F469
:100A0000003010B10120009001E00020009000981B
:100A1000012846D123484030006840F080502149E9
:100A2000403108602048006840F440401E4908609A
:100A30001C48083000681B490831086008460068F7
:100A400040F4004008600846006840F4A050086088
:100A50001648091F0860081F006840F08070091FD1
:100A6000086000BF0F48006800F000700028F9D04F
:100A700040F205700E4908600A480830006820F00E
:100A800003000849083108600846006840F0020089
:100A9000086000BF03480830006800F00C00082818
:100AA000F8D10CBD003802400070004008544007E7
:100AB000003C024010B500F035F810BD10B51548E7
:100AC000006840F47000134908601348006840F063
:100AD00001001149086000200F49083108600E48E4
:100AE00000680E4908400C4908600D48091D08605F
:100AF000081F006820F48020091F086000200649B4
:100B00000C310860FFF760FF4FF000600149803949
:100B1000086010BD88ED00E000380240FFFFF6FEDF
:100B2000103000240448006820B103480068401ECB
:100B300001490860704700000000002010B540F235
:100B400025510F4800F042F8C0B10D4800F0F8F808
:100B5000C4B24FF480710B48FFF7C0FD214608482E
:100B600000F0F3F800BF4021054800F022F800280B
:100B7000F9D04FF480710348FFF7AEFD10BD0000BF
:100B8000004400400018024021B1828942F4005222
:100B9000828104E082894DF6FF731A40828170479A
:100BA0001AB1838A0B43838202E0838A8B43838258
:100BB000704702460020B1F5007F00D100BF1388C6
:100BC0000B400BB1012000E00020704770B50246D9
:100BD000002400230025002040F66A16B14200D10F
:100BE00000BFC1F3421501F01F03012606FA03F30B
:100BF000012D02D19689334006E0022D02D1168ADA
:100C0000334001E0968A33400C12012606FA04F4C0
:100C10001688344013B10CB1012000E0002070BDF3
:100C2000F0B50346002400260025002040F66A1790
:100C3000B94200D100BF1846C1F3421401F01F06AB
:100C4000012707FA06F5012C01D10C3004E0022C33
:100C500001D1103000E014301AB107682F4307604B
:100C600002E00768AF430760F0BD00002DE9FF47D1
:100C700005460E460024A14600BFA046B08900B13B
:100C800000BF2C8A24F44054F08804432C82AC89A1
:100C900041F20C608443B08831890843718908436C
:100CA0000443AC81AC8A24F44074B0890443AC8220
:100CB0006846FFF79FFD2048854202D01F488542C5
:100CC00002D1DDF80C9001E0DDF80890A88900F46D
:100CD000004040B109EBC90000EB09103168490040
:100CE000B0FBF1F707E009EBC90000EB0910316830
:100CF0008900B0FBF1F76420B7FBF0F00401200994
:100D0000642101FB1078A88900F4004040B1322032
:100D100000EBC800B0FBF1F000F00700044308E06E
:100D2000322000EB08106421B0FBF1F000F00F005E
:100D300004432C81BDE8FF870010014000140140EE
:100D400001468888C0F308007047C1F3080282801A
:100D5000704700BFFEE7000000B591B001214805D3
:100D6000FFF728FD2248FFF719FB00BF2048FFF7D7
:100D7000C1FB0028FAD14FF0006002901D4803909B
:100D80001D48049040200590C00006900020079068
:100D90004FF480600890002009900A900B904FF467
:100DA00080300C9000200D9003200E9000200F90BA
:100DB000109002A90E48FFF7F7FB11208DF80400F0
:100DC00001208DF8070003208DF805008DF806003E
:100DD00001A8FFF7B1FC012210210548FFF7C6FB6F
:100DE000012280210348001FFFF7DAFE11B000BD89
:100DF000A060024004440040140000201948FFF79E
:100E0000F9FC184840686422B0FBF2F1481EB0F1CA
:100E1000807F00D31BE0481E4FF0E0225061501746
:100E20000F22002807DA13071D0E0F4B00F00F04E6
:100E3000241F1D5503E013071C0E0C4B1C5400BF50
:100E400000204FF0E02290610720106100BFFFF703
:100E500049FC4FF41650FFF741FDFFF77DFF00BF3F
:100E6000FEE700001402002018ED00E000E400E0BE
:100E70004FF04070E1EE100A704700009C0E000831
:100E80000000002014020000C4010008B00E000899
:100E9000140200207406000020020008812D0102C7
:100EA0000304043D060708090D3A050A01FF01F68F
:040000050800018965
:00000001FF
