:020000040800F2
:100000008806002029020008F1020008E902000821
:10001000ED020008E302000855050008000000009A
:10002000000000000000000000000000DD030008E8
:10003000E702000800000000F3020008CD040008F9
:10004000430200084302000843020008430200087C
:10005000430200084302000843020008430200086C
:10006000430200084302000843020008430200085C
:10007000430200084302000843020008430200084C
:10008000430200084302000843020008430200083C
:10009000430200084302000843020008430200082C
:1000A000430200084302000843020008430200081C
:1000B000430200084302000843020008430200080C
:1000C00043020008430200084302000843020008FC
:1000D00043020008430200084302000843020008EC
:1000E00043020008430200084302000843020008DC
:1000F00043020008430200084302000843020008CC
:1001000043020008430200084302000843020008BB
:1001100043020008430200084302000843020008AB
:10012000430200084302000843020008430200089B
:10013000430200084302000843020008430200088B
:10014000430200084302000843020008430200087B
:10015000430200084302000843020008430200086B
:10016000430200084302000843020008430200085B
:10017000430200084302000843020008430200084B
:10018000430200084302000800F002F800F03CF8C7
:100190000AA090E8000C82448344AAF10107DA45E2
:1001A00001D100F031F8AFF2090EBAE80F0013F0F8
:1001B000010F18BFFB1A43F0010318470C0400009D
:1001C0002C040000103A24BF78C878C1FAD852072E
:1001D00024BF30C830C144BF04680C6070470000C1
:1001E0000023002400250026103A28BF78C1FBD840
:1001F000520728BF30C148BF0B6070471FB500F0E1
:10020000DDF91FBD10B510BD00F031F81146FFF744
:10021000F5FF00F0A1F900F04FF803B4FFF7F2FF8B
:1002200003BC00F057F80000094880470948004720
:10023000FEE7FEE7FEE7FEE7FEE7FEE7FEE7FEE796
:10024000FEE7FEE704480549054A064B70470000F3
:10025000D5040008890100088800002088060020D5
:10026000880200208802002070477047704775465A
:1002700000F02CF8AE4605006946534620F0070012
:10028000854618B020B5FFF7DDFFBDE820404FF0F0
:1002900000064FF000074FF000084FF0000B21F070
:1002A0000701AC46ACE8C009ACE8C009ACE8C0093D
:1002B000ACE8C0098D46704710B50446AFF3008026
:1002C0002046BDE81040FFF7A8BF00000048704777
:1002D0002400002001491820ABBEFEE726000200E2
:1002E000704700BFFEE7704700BFFEE700BFFEE7B4
:1002F00070477047F0B50021002200240225002637
:100300000223324F3F6807F00C0121B1042905D0C8
:10031000082937D105E02E4F076036E02D4F0760E2
:1003200033E02A4F3F1F3F68C7F38056274F3F1FD8
:100330003F6807F03F036EB1264FB7FBF3F7DFF8D6
:100340008CC0ACF1040CDCF800C0CCF3881C07FBBB
:100350000CF40CE01E4FB7FBF3F7DFF870C0ACF104
:10036000040CDCF800C0CCF3881C07FB0CF4174F1E
:100370003F1F3F68C7F301477F1C7D00B4FBF5F7C3
:10038000076002E0124F076000BF00BF0F4F3F68D9
:1003900007F0F0010909104F7A5C0768D740476001
:1003A0000A4F3F6807F4E051890A0B4F7A5C4768AF
:1003B000D7408760054F3F6807F46041490B064FFF
:1003C0007A5C4768D740C760F0BD0000083802403B
:1003D0000024F40040787D010400002070470000F4
:1003E0000CB50020019000903448006840F4803043
:1003F0003249086000BF3148006800F400300090C6
:100400000198401C0190009818B90198B0F5A04FD0
:10041000F1D12A48006800F4003010B101200090AA
:1004200001E0002000900098012846D12348403088
:10043000006840F080502149403108602048006841
:1004400040F440401E4908601C48083000681B49C1
:10045000083108600846006840F40040086008461B
:10046000006840F4A05008601648091F0860081F83
:10047000006840F08070091F086000BF0F480068E6
:1004800000F000700028F9D040F205700E490860B5
:100490000A480830006820F0030008490831086065
:1004A0000846006840F00200086000BF03480830BA
:1004B000006800F00C000828F8D10CBD003802409C
:1004C0000070004019544007003C024010B500F095
:1004D00035F810BD10B51548006840F47000134998
:1004E00008601348006840F00100114908600020CE
:1004F0000F49083108600E4800680E4908400C4951
:1005000008600D48091D0860081F006820F480205D
:10051000091F0860002006490C310860FFF760FFE2
:100520004FF0006001498039086010BD88ED00E09F
:1005300000380240FFFFF6FE103000240448006837
:1005400020B103480068401E014908607047000060
:100550000000002000BFFEE71548FFF7CBFE14485F
:1005600040686422B0FBF2F1481EB0F1807F00D3F6
:100570001BE0481E4FF0E022506150170F22002868
:1005800007DA13071D0E0B4B00F00F04241F1D5537
:1005900003E013071C0E084B1C5400BF00204FF053
:1005A000E02290610720106100BF00BFFEE700005D
:1005B0001400002018ED00E000E400E04FF040706F
:1005C000E1EE100A70470000E80500080000002076
:1005D00014000000C4010008FC05000814000020FD
:1005E00074060000E00100080000000000000000A8
:0C05F000010203040102030406070809CD
:040000050800018965
:00000001FF
