:020000040800F2
:10000000487300209D010008991F0008671B000825
:10001000751E00084D0D0008FB5700080000000089
:1000200000000000000000000000000079540008FB
:1000300001110008000000003D09000831370008E8
:10004000D7010008D7010008D7010008D701000830
:10005000D7010008D7010008D7010008D701000820
:10006000D7010008D7010008D7010008D701000810
:10007000D7010008D7010008D7010008D701000800
:10008000D7010008F90D0008D7010008D7010008C2
:10009000D7010008D7010008D7010008D7010008E0
:1000A000D7010008D7010008D7010008D7010008D0
:1000B000D7010008D7010008D7010008D7010008C0
:1000C000D7010008D7010008D7010008D7010008B0
:1000D000D7010008DD550008FD550008D7010008CC
:1000E000D7010008D7010008D7010008D701000890
:1000F000D7010008D7010008D7010008D701000880
:10010000D7010008D7010008D7010008D70100086F
:10011000D7010008D7010008D7010008D70100085F
:10012000D7010008D7010008D7010008D70100084F
:10013000D70100081D140008D7010008D7010008E6
:10014000D7010008D7010008D7010008D70100082F
:10015000D7010008D7010008310E0008D7010008B8
:10016000D7010008D7010008D7010008D70100080F
:10017000D7010008D7010008D7010008D7010008FF
:10018000D7010008D7010008DFF80CD000F034FBDD
:10019000004800471D67000848730020DFF838005A
:1001A000016841F470010160BFF34F8FDFF82C004C
:1001B000016821F040410160BFF36F8F084880471C
:1001C00008480047FEE7FEE7FEE7FEE7FEE7FEE73A
:1001D000FEE7FEE7FEE7FEE788ED00E034EF00E033
:1001E000755500088901000872B6704762B67047FD
:1001F000EFF3108072B6704780F31088704730BFFD
:10020000704720BF7047B0FA80F0704790FAA0F0B6
:10021000B0FA80F0704790FAA0F0704740EA01030E
:100220009B0703D009E008C9121F08C0042AFAD2AC
:1002300003E011F8013B00F8013B521EF9D2704770
:100240002DE9FE4F804681EA0300C00F0C46009066
:1002500021F0004123F00045B8EB0200A94105D28E
:100260004046214690461C460B46024623F000407D
:10027000104347D0270DC7F30A00C3F30A51029079
:10028000401A019040286BDAC3F3130040F4801B3E
:100290000098924620B10023D2EB030A63EB0B0BCC
:1002A00001985946C0F14002504600F011F9064647
:1002B0000D4650465946019A00F029F910EB080006
:1002C0006141002487EA115284EAE7731A4340D05F
:1002D000009A62B3019A012A4FEA075215DC001B0B
:1002E00061EB02014FF0004202EA0752CDE9004201
:1002F000001C41F5801132462B4600F060F903B036
:10030000BDE8F08F40462146F9E7001B61EB020192
:10031000001C41F5801300185B412018A2F500175E
:1003200047EB030140EAD570B6196D4111E06D0845
:100330004FEA360645EAC0754FEA0752001B61EBEB
:100340000201001C41F5801149084FEA30000019F4
:10035000514132462B4603B0BDE8F04F00F020B9C2
:100360000098012240000023D0EB020263EBE0730F
:10037000009821464FEAE074B8EB000061EB0401FD
:10038000E9E783F000435BE781F0004158E72DE99E
:10039000FE4F81EA030404F0004421F00041009480
:1003A0004FF0000B23F0004350EA01045ED052EA04
:1003B00003045BD0C3F30A54C1F30A552C44A4F2DE
:1003C000F3340194A0FB0254C1F3130141F48011F2
:1003D000C3F3130343F4801301FB024400FB034EF9
:1003E000840A970A44EA815447EA8357A4FB0768C2
:1003F00002958D0A05FB07854FEA932C04FB0C54EC
:100400002705029D4FEA065847EA1637B5EB08055F
:100410006EEB070C870E920E47EA811742EA8312B1
:10042000A7FB0201B6EB0B0164EB00042B0D43EAC2
:100430000C335E1844EB1C50DA465146E7FB0201D0
:10044000C5F313044FEA0B3343EA14534FEA043263
:10045000019C43EA0603A4F10C040294009CCDE93C
:1004600000B400F0ACF803B0BDE8F08F0020014606
:10047000F9E700F0004230F000400AD0C10D01F56C
:100480006071C0F3160042EA0151C20840071143EF
:10049000704700200146704701F0004330B421F05E
:1004A000004150EA010206D00A0DA2F56072C1F3C4
:1004B0001301002A02DC30BC00207047440F44EADC
:1004C000C104C100E01830BC00EBC25000F031B8EC
:1004D000202A04DB203A00FA02F100207047914004
:1004E000C2F1200320FA03F3194390407047202AF9
:1004F00004DB203A21FA02F00021704721FA02F3CE
:10050000D040C2F120029140084319467047202A8A
:1005100006DBCB17203A41FA02F043EAE07306E02B
:1005200041FA02F3D040C2F120029140084319463B
:1005300070470029A8BF7047401C490008BF20F041
:100540000100704710B4B0FA80FC00FA0CF050EAD9
:10055000010404BF10BC704749B1CCF1200421FA5A
:1005600004F411FA0CF118BF012121430843A3EB55
:100570000C01CB1D4FEA00614FEA102042BF002062
:1005800010BC704700EBC35010440029A4BF10BC3E
:100590007047401C490008BF20F0010010BC7047A4
:1005A00010B5141E73F1000408DA401C41F100017B
:1005B00092185B411A4301D120F0010010BD2DE9D2
:1005C000F04D92469B4611B1B1FA81F202E0B0FAC9
:1005D00080F220329046FFF77BFF04460F4640EA48
:1005E0000A0041EA0B0153465A46084313D011460C
:1005F00053EA010019D0C8F140025046FFF777FFD7
:1006000005460E46504659464246FFF761FF0843ED
:1006100005D0012004E020463946BDE8F08D0020D9
:10062000054346EAE0762C4337430A986305E40A1B
:10063000A0EB08000022FD0A44EA47540A3002D524
:1006400000200146E9E7010510196941DDE9084587
:1006500000196941BDE8F04DA2E72DE9F04D81EAAE
:10066000030404F0004B21F0004514464FF0000A4B
:1006700023F0004150EA050220D054EA01021DD0C7
:10068000C5F30A570246C5F31303C1F31300C1F3C0
:100690000A5640F4801543F48013A7EB0608101B9C
:1006A000D64608F2FD3873EB050002D308F10108C5
:1006B00001E092185B41B8F1000F03DA0020014617
:1006C000BDE8F08D00204FF48011064684460EE010
:1006D000171B73EB050705D3121B63EB05030643DA
:1006E0004CEA010C49084FEA300092185B4150EA8D
:1006F0000107EDD152EA030012D082EA040083EA36
:100700000501084305D0101BAB4106D2012200238E
:1007100006E000224FF0004302E06FF001025310A8
:100720001AEB06004CEB085110EB0A0041EB0B01F1
:10073000BDE8F04DFFF734BF0EB5C10F80EAE070A1
:100740000844CA07002140F233438DE80E000A46F0
:100750000B46FFF734FF03B000BD70B5C1F30A527A
:1007600001F000450024C1F3130140F2FF3341F4CE
:1007700080119A4201DA002070BD40F233439A4260
:10078000A2F2334203DC5242FFF7B1FE00E0904098
:100790002C43F1D0404270BD30B5041E71F100040D
:1007A00004DB4FF00044404264EB0101141E73F17E
:1007B000000405DB1C464FF00043524263EB040388
:1007C0008B4208BF824230BD30B5041E71F1000477
:1007D00004DB4FF00044404264EB0101141E73F14E
:1007E000000405DB1C464FF00043524263EB040358
:1007F000994208BF904230BD064C074D06E0E068C4
:1008000040F0010394E8070098471034AC42F6D357
:10081000FFF7BEFC806B0008A06B00080EB540F22D
:10082000334102910021CDE900110A460B46FFF742
:10083000C6FE03B000BD70B58C1810F8015B15F052
:10084000070301D110F8013B2A1106D110F8012B42
:1008500003E010F8016B01F8016B5B1EF9D12B0767
:1008600005D40023521E0DD401F8013BFAE710F81D
:10087000013BCB1A921C03E013F8015B01F8015B0A
:10088000521EF9D5A142D8D3002070BDEFF30981E3
:1008900041B1F1EE101A40F8041D20ED200A3B4949
:1008A0000A6810607047B0EC200A02C8E1EE101A26
:1008B00037490A681060704772B64EF62250CEF281
:1008C000000040F2FF01C0F20001017040F2003070
:1008D000C2F20000016881F3088840F27620C2F27B
:1008E000000040F27721C2F200010A78027040F263
:1008F000F825C2F2000540F2FC21C2F200010A68AC
:100900002A60106880F30988EFF3148040F0020039
:1009100080F31488BFF36F8FBDE8F00F0FBCBDE804
:10092000005006BC62B608471A484FF0805101607B
:10093000704718484FF080510160704772B6EFF36E
:10094000098020E9F00F40F2F825C2F200052E6878
:100950003060744602F04CFD40F27620C2F2000096
:1009600040F27721C2F200010A78027040F2FC21C5
:10097000C2F200010A682A6044F0F40E1068B0E880
:10098000F00F80F3098862B670470000F80200207B
:10099000FC02002004ED00E000B58BB00AA807219E
:1009A00000220592CDE90621089011464FF400720D
:1009B0000848D0F8CC00074BCDE90130CDE9032140
:1009C00004200023044A05A10090084802F05EF8C4
:1009D0000BB000BD90060020390A000846502020C8
:1009E0004571756174696F6E20310000D00500207B
:1009F0000EB502A801F0C8FFFFF7CEFF1BE04FF4D1
:100A0000007001F0DDF902A800214FF4FA730A46E4
:100A1000CDE90010084602F099FD4FF4806001F026
:100A2000CFF902A800214FF4FA730A46CDE900106D
:100A3000084602F08BFDE2E72DED108B86B045E114
:100A40009FEDA3DAB0EE080AB0EE408AB1EE000ADC
:100A5000F0EE40AA38EE6A0AB0EE40AA0024B5EEE5
:100A6000C0AAF1EE10FA05D2BFEE000A2AEE000A83
:100A7000B0EE40AA19E138EE2A0AF0EE000AC0EE04
:100A8000208A18EE100AFFF7F4FC41EC1B0BB0EEC5
:100A90004B0AF0EE6B0A04F017FFB0EE40CAF0EE1E
:100AA00060CA9FED8C0B53EC102B51EC1C0BFFF725
:100AB0006EFC41EC1E0B18EE100AFFF7DAFC41EC5D
:100AC0001C0BB0EE4C0AF0EE6C0A05F00DF9B0EE1E
:100AD00040BAF0EE60BA9FED810B53EC102B51EC55
:100AE0001B0BFFF754FC41EC1F0B53EC1E2BFFF7C5
:100AF00048FCBFEE000A28EE000ACDE9020110EE24
:100B0000101A0846FFF7B5FC41EC1B0BB0EE4B0A80
:100B1000F0EE6B0A04F03CFF8DED000B9DED020B37
:100B200053EC102B9DED000B51EC100BFFF72FFC3D
:100B3000CDE904019DED040B51EC100BFFF7ACFC6B
:100B400009EE900A18EE900AFFF793FC41EC1C0B9B
:100B5000B0EE4C0AF0EE6C0A04F0B6FEB0EE40BA0D
:100B6000F0EE60BA9FED5B0B53EC102B51EC1B0BBE
:100B7000FFF70DFC41EC1E0B18EE900AFFF779FC15
:100B800041EC1C0BB0EE4C0AF0EE6C0A05F0ACF830
:100B9000B0EE40BAF0EE60BA9FED500B53EC102B64
:100BA00051EC1B0BFFF7F3FB53EC1E2BCDE90001BF
:100BB0009DED000B51EC100BFFF7E3FB41EC1F0B1D
:100BC000BFEE000A28EE800A10EE101A0846FFF762
:100BD00050FC41EC1B0BB0EE4B0AF0EE6B0A04F03C
:100BE000D7FE8DED020B53EC1F2B9DED020B51EC4C
:100BF000100BFFF7CCFBCDE904019DED040B51EC8C
:100C0000100BFFF749FC09EE100AF5EEC09AF1EE61
:100C100010FA04DDB5EEC09AF1EE10FA09D3F5EE44
:100C2000C09AF1EE10FA07D2B5EEC09AF1EE10FAC2
:100C300002DDF0EE68AA17E0F5EEC09AF1EE10FAC8
:100C400004DDB5EEC09AF1EE10FA09DCF5EEC09ABB
:100C5000F1EE10FA07D2B5EEC09AF1EE10FA02D218
:100C6000B0EE688A00E02DE038EE6A0AB0EE40AAE5
:100C7000B5EEC0AAF1EE10FA05D2BFEE000A2AEED8
:100C8000000AB0EE40AA601CC4B201F0B5F80546F7
:100C90004FF47A70B5FBF0F100FB115500E06D1ECA
:100CA000002DFCD1102C00D90CE0B0EE000A2DEE86
:100CB000000AB4EECA0AF1EE10FAFFF4DCAE142C0E
:100CC0003FF6D9AE00BF102C00D100BFB8E600003F
:100CD000ACC52737000000000000E03F000000A086
:100CE000999909401FB5684604F0D8FA019804B0F4
:100CF00010BD10B54FF4A06001F08CF900F07CFF3E
:100D000001F038F84FF4165004F03CFB04F078FD85
:100D100000F05AFD00F028FD4FF4E13005F082FCB0
:100D200000F0F0F910BD10B5FFF75EFA10BD00003D
:100D300070B5FFF7D7FF044603480068B4FBF0F531
:100D4000284602F011FD70BD6468000800BFFEE790
:100D500010B500F021F800F019F810BD10B500240E
:100D600000BF00BFFFF744FA044600BF00BF1021D8
:100D7000054801F081F800BF00BF2046FFF73CFAAC
:100D800000BF00BF10BD0000644D002010B5FFF78C
:100D9000E5FF10BD00BFFEE710B500200249086066
:100DA00000F00AF810BD0000280200200149086088
:100DB000704700002802002010B5FFF793FF04469B
:100DC0000848006840F08070064908600020064925
:100DD00048600846006840F0010008602046FFF7C0
:100DE000E5FF10BDFCED00E0001000E0014948689F
:100DF00070470000001000E010B50A490A4800F0F2
:100E000003F968B10749084800F02EF84021074867
:100E100004F016FC012240F22661044804F058FC5C
:100E200010BD000000802020A0600240004400406F
:100E300010B50A490A4800F0E7F868B107490848C0
:100E400000F012F84021074804F0FAFB012240F2BA
:100E50002661044804F03CFC10BD0000008000281E
:100E6000B8640240001001400246094B9A4201D288
:100E7000084801E00648103801F000531BB1064B4A
:100E80000B40C36002E0044B0B40836070470000DE
:100E900010640240006002407D0F7D0F016821F068
:100EA000010101600021016041608160C160016158
:100EB000212141614A49884204D13D21484A103AE2
:100EC00091608CE046491831884205D14FF4746135
:100ED000434A103A916082E041493031884205D15D
:100EE0004FF474113E4A103A916078E03C49483121
:100EF000884205D14FF07461394A103A91606EE032
:100F000037496031884204D13649354A103AD160B8
:100F100065E033497831884204D13349304A103A88
:100F2000D1605CE02E499031884204D12F492C4A8F
:100F3000103AD16053E02A49A831884205D14FF0D8
:100F40003D51274A103AD16049E02949884204D1ED
:100F50003D21274A083A116041E02549183188426D
:100F600005D14FF47461224A083A116037E02049F4
:100F70003031884205D14FF474111D4A083A11608E
:100F80002DE01B494831884205D14FF07461184A61
:100F9000083A116023E016496031884204D11149B2
:100FA000134A121F11601AE011497831884204D1A6
:100FB0000D490F4A121F116011E00D49903188420E
:100FC00004D10A490A4A121F116008E00849A831F1
:100FD000884204D14FF03D51054A121F11607047FD
:100FE000106002403D000020400F002000003D2026
:100FF00010640240014600200A6802F001020AB1B2
:10100000012000E00020704770B502460020002457
:101010000025124EB24201D2114B01E00F4B103BA2
:10102000104E0E4036B11E2606EAD124166806EA96
:10103000040502E0566906F0800501F000560EB185
:101040005C6800E01C68084E344004EA010616B1F2
:101050000DB1012000E0002070BD000010640240CE
:10106000006002403C0F3C0F7D0F7D0F10B501F07A
:1010700080034BB122B1436943F08003436103E035
:10108000436923F08003436180290BD02AB10368B0
:1010900001F01E042343036004E0036801F01E0412
:1010A000A343036010BD000010B500220268134B7B
:1010B0001A40CC680B6823434C6923438C69234353
:1010C000CC6923430C6A23434C6A23438C6A234331
:1010D0004C6B23438C6B23431A430260426922F01A
:1010E0000702D1E90B3423431A4342610B69436081
:1010F0004B6883608B68C36010BD00003F801CF0AC
:101100007047000000B591B00121880504F086F811
:101110001F48FFF7C3FE00BF1D48FFF76BFF002805
:10112000FAD14FF0006002901A4803901A480490D8
:1011300040200590C0000690002007904FF480608A
:101140000890002009900A900B904FF480300C908A
:1011500000200D9003200E9000200F90109002A907
:101160000B48FFF7A1FF46208DF8040001208DF801
:10117000070003208DF805008DF8060001A800F097
:101180000DFF012210210248FFF770FF11B000BDD2
:10119000B864024004100140644B002001494861DA
:1011A000704700000090024000B50849002000F0A0
:1011B0009DFA05220649074800F078F805220649FD
:1011C000064800F02FF800F0B9FB00BD2000002019
:1011D000942D0020300F0020D00F0020900E002012
:1011E00029B1064AD2690243044BDA6104E0034A9A
:1011F000D2698243014BDA617047000000900240DF
:1012000030B10749896941F00201054A916105E061
:101210000349896921F00201014A91617047000088
:101220000090024070B50C4613460021124D286014
:1012300000BF18E000EB41124FF00045156044F28A
:10124000F4555560C1EBC11505EB450504EB85056B
:1012500095605D1E8D4204D900EB41152035D560A7
:1012600000E0D060491C9942E4D3044DE860044D8D
:10127000044E356070BD0000140000200090024054
:10128000584B00201800002030B10749896941F40B
:101290000051054A916105E00349896921F4005133
:1012A000014A9161704700000090024030B50C4641
:1012B000134600210F4D286000BF15E000EB4112DE
:1012C0004FF480151560C1EBC11505EB450504EB26
:1012D000850595605D1E8D4204D900EB41152035D2
:1012E000D56000E0D060491C9942E7D3024D2861E7
:1012F00030BD0000100000200090024001B581B018
:10130000002000900198009002E00098401E00909C
:1013100000980028F9D10CBD0348806940F4801082
:101320000149886170470000009002403EB50024EA
:10133000684600F045F8009805F02EFA04460CB90E
:1013400000203EBD2046DDE90021FEF767FF4FF09B
:101350000040029908600648406900F0800020B112
:10136000802003494861002088602046E9E70000AA
:101370000090024001460868C0F30D40704700B578
:1013800002460023106800F0004058B9106800F4CD
:10139000004038B9106800F4807018B11046FFF7AB
:1013A000E9FF0346184600BD00200449096801F022
:1013B000010109B1012000E00020704700900240C7
:1013C0001EB500210022009201920292114A126879
:1013D0001268C2F30D42111F00910F4A1268926801
:1013E000012A05D90C4A126812689268019203E03A
:1013F000084A126892680192064A12680292054AE7
:101400001268D268034B1A609DE81C0080E81C003B
:101410001EBD0000140000201800002010B500249C
:1014200007E0FFF783FF04461CB1204605F04EF9A4
:10143000002407480068FFF7A2FF0028F1D14020F0
:10144000FFF7ACFE4FF48030FFF7A8FE10BD0000A0
:10145000140000202DE9F04186B004460F464FF0FD
:101460000008002500200590954E009095480569DC
:1014700025F01C0501A803F011FF029E9248864248
:1014800005D39248864202D245F008051AE08F48FB
:10149000864205D38A48864202D245F00C0511E007
:1014A0008748864203D38A48864200D20AE08848A9
:1014B000864205D38748864202D245F0040501E002
:1014C00045F010057F4805614FF400420021384681
:1014D00000F0A2FA18B9002006B0BDE8F0817E48FD
:1014E000FFF70CFF206800284ED000BF0098401C7A
:1014F00000900121384600F0E1F900F0040018B92D
:10150000764900988842F1D374490098884201D105
:101510000020E1E7002000904FF48052002138467F
:1015200000F07AFA08B90020D6E700BF0098401C06
:1015300000900121384600F0C1F900F0200018B9F0
:10154000664900988842F1D364490098884201D1E5
:101550000020C1E7002000901021384600F0AEF9CD
:10156000804608F0040018B14FF40060206201E0EA
:101570000020206208F0020010B10020606116E037
:101580004FF48040606112E0206AC0F3CF006169CF
:10159000C1F34F0140EA01020021384600F03CFA55
:1015A00008B9002098E76FF07F40FFF7A7FE454895
:1015B00005684B480540D4E901010843E168084348
:1015C0002169084361690843A1690843E169084347
:1015D000216A0843616A0843A16A0843E16A084333
:1015E000216B0843616B0843054336480560D4E925
:1015F0000E010843216C0843616C0843A16C084349
:10160000E16C0843216D0843616D08432D49486032
:10161000A06D8860E06DC860084685694FF641702E
:101620000540B4F86010606E40EA0140A16E0843C6
:10163000E16E0843216F0843616F08430543214869
:101640008561D4E91E0108431E49C86125488569A2
:1016500025480540D4E920010843D4F88810084300
:10166000D4F88C100843D4F890100843D4F89410A0
:101670000843D4F898100843D4F89C100843D4F8D1
:10168000A0100843054317488561D4E929010843A0
:10169000D4F8AC100843D4F8B0100843D4F8B41010
:1016A00040EA8100D4F8B810084340F400000D4926
:1016B00008600846006840F08000086001200BE7E1
:1016C0000087930300800240002D3101C00E1602F6
:1016D00000E1F50580D1F008FFFF0F00FFFF0400D7
:1016E0000F8120FF00900240233FDEF810B50B79F8
:1016F0004C7943EA0422094B03441A64CB781B0655
:101700008C7843EA04434C7843EA04230C7843EA98
:101710000402024B03445A6410BD000000800240E2
:1017200030B10749096841F00401054A116005E03C
:101730000349096821F00401014A11607047000063
:101740000080024030B10749096841F00801054AAC
:10175000116005E00349096821F00801014A1160A0
:10176000704700000080024010B5B0B03D208DF8F9
:10177000BC0001208DF8BF0000208DF8BD008DF861
:10178000BE002FA800F00AFC01214FF0606003F0BA
:1017900045FD00F0C9F800BFFFF706FE0128FBD0A9
:1017A000684600F0DBF800216846FFF753FE044668
:1017B000012C05D1FFF7F8FC01210248FFF710FDCD
:1017C00030B010BD400001001CB502208DF80400AF
:1017D00000208DF806008DF8070003208DF8050025
:1017E00001214D2003F01AFD0121880303F046FD7D
:1017F000012003F043FE8620009069462A4800F04D
:101800003FF90B220121284800F082F90B22022126
:10181000254800F07DF90B220721234800F078F9D4
:10182000322000906946214800F02AF90B2201215C
:101830001E4800F06DF90B2204211C4800F068F9E5
:101840000B220521194800F063F94FF4D0400090B5
:101850006946174800F014F90B221146144800F0AD
:1018600057F90B220D21124800F052F90B220E21DC
:101870000F4800F04DF90820009001208DF8040079
:1018800069460C4800F0FCF808210A4800F067F9A6
:101890000948FFF733FD0821064800F062F90648C1
:1018A000FFF72CFD1CBD00000000024000080240B4
:1018B00000180240000C0240A086010018B5024644
:1018C0000B460021002000901548016901F01C0121
:1018D0004FF4784000EAC22001434FF4F86000EA78
:1018E0008310014321F0020141F001010C48016124
:1018F00000BF0098401C00900948016901F00100F8
:1019000018B1084C0098A042F3D3064C0098A042AE
:1019100001D1002018BD0248406980B2FAE70000FA
:1019200000800240FFFF04000348006840F001000F
:1019300001490860704700000090024000B5012096
:10194000FFF700FFFFF7E8FC0120FFF7E9FE0120A9
:10195000FFF79AFC0120FFF753FC00BD0121016055
:10196000002141608160C16001614FF480414161AB
:1019700000218161C1614FF400610162491041623F
:10198000002181628021C1620021016341634FF027
:10199000004181630021C163402101640021416451
:1019A0008164C164016541658165C165016680210D
:1019B000416600218166C166016741678167C16731
:1019C000C0F880104FF00071C0F884100021C0F8FA
:1019D00088104FF40011C0F88C100021C0F890104E
:1019E000C0F89410C0F89810C0F89C10C0F8A0106F
:1019F0004FF00071C0F8A4104912C0F8A810890176
:101A0000C0F8AC104912C0F8B0100021C0F8B410F2
:101A1000C0F8B8107047000038B503460C460021E6
:101A2000002000901448016901F01C014FF4784037
:101A300000EAC32001434FF4F86000EA8410014338
:101A400041F0020141F001010B484261016100BF18
:101A50000098401C00900848016901F0010018B18D
:101A6000064D0098A842F3D3044D0098A84201D136
:101A7000002038BD0120FCE700800240FFFF040089
:101A8000F0B50A4600210023002400BF3DE00125F7
:101A900005FA01F3156805EA03049C4234D1056890
:101AA0004F000326BE40B543056015794E00B54092
:101AB0000668354305601579012D02D01579022D90
:101AC00016D185684F000326BE40B5438560557921
:101AD0004E00B540866835438560456801268E40D6
:101AE000B5434560456896798E40B6B2354345604A
:101AF000C5684F000326BE40B543C560D5794E008A
:101B0000B540C6683543C560491C1029BFD3F0BD38
:101B1000F0B5002300244D07ED0E02FA05F3CE10B8
:101B200000F1200555F826504E07F70E0F26BE404F
:101B3000B543CF1000F1200646F82750CE1000F133
:101B4000200555F8265045EA0304CE1000F1200583
:101B500045F82640F0BD0146486980B27047418390
:101B600070470183704700BFFEE700001FB50F48B4
:101B700000F05CF80020ADF804004BF6FF70ADF803
:101B80000600A020ADF808004FF48060ADF80A0010
:101B90000001ADF80C00064800906946034800F0CB
:101BA00075F80121014800F035F81FBD00540040D0
:101BB000801A06001CB54FF44070009002208DF88A
:101BC000040001208DF8060003208DF80500012097
:101BD0008DF8070069460748FFF752FF04220821E5
:101BE0000448FFF795FF042209210248FFF790FF00
:101BF0001CBD00000004024010B50121480503F09F
:101C00001DFB0121022003F009FBFFF7D3FFFFF7C3
:101C1000ADFF10BD21B1028842F00102028004E054
:101C200002884FF6FE731A400280704710B50446D2
:101C30001348844209D10121480503F00FFB00211C
:101C40004FF4001003F00AFB18E00E48844209D15B
:101C50000121880503F002FB00214FF4800003F00E
:101C6000FDFA0BE00848844208D10121C80503F0C1
:101C7000F5FA00214FF4000003F0F0FA10BD000067
:101C80000054004000580040005C00402DE9FF4730
:101C900004460D460026B1460427DFF8CC80A6880E
:101CA0004FF6C0700640684603F0F8FADDF8088089
:101CB0002E48B8FBF0F01FFA80F946EA0906A68024
:101CC00020884FF6FE7108402080002628492868A9
:101CD00088420CD828684000B8FBF0F087B2042F87
:101CE00000DA04273E4309F10100208427E0E88858
:101CF0004BF6FF71884206D1286800EB4000B8FB24
:101D0000F0F087B209E0286800EBC00101EB001099
:101D1000B8FBF0F087B247F48047C7F30B0008B96F
:101D200047F0010747F4004006434FF4967009FB63
:101D300000F04FF47A7190FBF1F0401C2084A683F0
:101D4000208840F00100208026884FF6F5300640BC
:101D5000A8886989084306432680A88929890843F9
:101D60002081BDE8FF87000000127A0040420F008A
:101D7000A08601001CB50121202003F04FFA4FF48A
:101D8000C060009001208DF8040000208DF806004E
:101D900001208DF8070003208DF8050069460748EB
:101DA000FFF76EFE4FF400710448FFF7DAFE4FF4C0
:101DB00080610248FFF7D5FE1CBD00000014024000
:101DC00070B5044600250848FFF7C5FE054605EA3C
:101DD000040020B121460448FFF7C1FE03E021467C
:101DE0000148FFF7BEFE70BD0014024010B501208F
:101DF00000F02AF810BD000070B5002600BF00BF3B
:101E0000FEF7F6F9064600BF00BF084805682846F9
:101E100000F00EF804460548046000BF00BF3046DD
:101E2000FEF7EAF900BF00BF204670BD2C0200207B
:101E3000014643F23902034B03FB012222F000402A
:101E4000704700006D4EC64170B50446002500BFC6
:101E500000BFFEF7CDF9054600BF00BF044804608F
:101E600000BF00BF2846FEF7C7F900BF00BF70BD26
:101E70002C02002000BFFEE730B505460C46224686
:101E80000021284600F05EF830BD00003EB500207D
:101E90000C4908600C4C02A801214FF44063224613
:101EA000CDE9001009490AA000F016F8BDF80800B5
:101EB00042F21071884203D000BFFEF76BFF00BFF3
:101EC0003EBD000030020020744D002074590020F7
:101ED00048656170000000002DE9F84F05460E4688
:101EE00017461C46DDE90A894FF0000A00BF00BF13
:101EF000FEF77EF9824600BF00BF43463A463146B0
:101F00002846009400F00EF800BF00BF5046FEF7D0
:101F100073F900BF00BF42F21070A9F80000BDE8DD
:101F2000F88F000030B5039C0A60651E15444D60B3
:101F30008A60034D2D68CD600B61014D296030BD75
:101F4000300200202DE9F04105460B46944600275B
:101F5000002402E03F021F43641C042CFAD36046B5
:101F600005F00306294646B1344603E001F8013B7B
:101F7000401E641C08B1042CF8D30A4601E080C25C
:101F8000001F0428FBD2114602E001F8013B401E6D
:101F90000028FAD1BDE8F0817047000070B500213B
:101FA00000230F22C4781CB3174C246804F4E064A7
:101FB000C4F5E064C4F30721C1F10404E3B20A41AB
:101FC00044789C40E1B28478144021430C07210EF0
:101FD0000E4C05786155047804F01F050124AC40CF
:101FE00005786D11AD0005F1E025C5F8004109E067
:101FF000047804F01F050124AC40054D06787611E5
:1020000045F8264070BD00000CED00E000E400E063
:1020100080E100E002490143024A1160704700007C
:102020000000FA050CED00E07047000010B5034811
:10203000006810B101480068804710BD48020020C8
:1020400070B5044600F0AEF80020414908704149DF
:102050000870414908704149086041490860414998
:102060000870414908704149087041490860414978
:102070000860414908604148006858B14048056817
:1020800045B13E48066803E0761E002028602D1DFD
:10209000002EF9D100203B4908603B4908603B49CC
:1020A00008603B4908603B4908603B4908603B4980
:1020B00008603B49087001F047FF01F081FF2046AE
:1020C00001F03EFC208800B170BD204601F09EFC6E
:1020D000208800B1F8E7204601F0A4FC208800B178
:1020E000F2E7204601F076FD208800B1ECE72046BB
:1020F00001F05AFF208800B1E6E7204602F020F800
:10210000208800B1E0E7204602F0C6FA208800B13E
:10211000DAE7204601F042FC208800B1D4E72046EF
:1021200002F0FAFE208800B1CEE7204602F088F9DE
:10213000208800B1C8E7204602F052FF208800B195
:10214000C2E701F029FBFFF76FFF00BFBCE700000B
:102150005C0200205D02002090020020F8020020B6
:10216000FC02002076020020770200207802002086
:1021700084020020880200208C02002034680008BD
:10218000306800083C020020400200204402002089
:10219000480200204C02002050020020540200207F
:1021A000BE020020064800680649096800EB81006D
:1021B000054908600846006820F00700086070477D
:1021C00030680008346800080003002010B50024BF
:1021D0002D480078012800D010BD00BFFEF708F898
:1021E000044600BF2948007828B900BF2046FEF702
:1021F00003F800BFF0E725480078401E2349087027
:1022000008460078002805DD00BF2046FDF7F4FFF2
:1022100000BFE1E71E480078002805DD00BF20462A
:10222000FDF7EAFF00BFD7E701F07AFE1949087011
:102230000846007800EB4000174951F82000174984
:1022400008600846006816490968884205D100BF41
:102250002046FDF7D1FF00BFBEE710480068D0F868
:102260008C00401C0D490968C1F88C000D480068BD
:10227000401C0C490860FEF75CFB00BF2046FDF7E0
:10228000BBFF00BF00BFA7E75D0200205C0200208B
:102290009002002077020020D4670020FC0200207A
:1022A000F8020020B40200202DE9F04104460E4659
:1022B0001546002724B945F6C3502880BDE8F081B3
:1022C00000BF00BFFDF794FF074600BF00BF1048E6
:1022D0002060666000202062606284F82800E0626E
:1022E00004F1080001F027FD204601F003FC094835
:1022F0000088401C0749088000BF00BF3846FDF732
:102300007BFF00BF00BF0020288000BFD6E7000091
:102310004D555458740200202DE9F04788B0054609
:10232000894617461C46109E4FF0000A2DB945F607
:10233000C350308008B0BDE8F0871FB1B7F5004F3B
:1023400002D100E000BF03E045F625603080F1E7F0
:1023500000BF62492868884203D045F6C4503080E7
:10236000E8E70CB10020206000BF00BFFDF740FF90
:10237000824600BF00BF95F82800B8B958480068E9
:102380006862012085F828000CB1E86A20602946BF
:102390005348006801F0C6FB00BF00BF5046FDF780
:1023A0002BFF00BF00BF00203080C3E74C49686AA4
:1023B0000968884212D195F82800401C85F8280049
:1023C0000CB1E86A206000BF00BF5046FDF714FF63
:1023D00000BF00BF45F282703080ABE707F40040D9
:1023E00050B100BF00BF5046FDF706FF00BF00BF61
:1023F00046F2B01030809DE73A48007800280ADDA8
:1024000000BF00BF5046FDF7F7FE00BF00BF46F615
:10241000635030808EE7D5F8248098F83700304933
:10242000096891F83710884206DD2D48006890F859
:102430003710404602F080F84B4604222946684691
:1024400001F0D4FB00BF00BF5046FDF7D5FE00BF32
:1024500000BF00F00FF900BF00BFFDF7C9FE8246C4
:1024600000BF00BF1E48006890F8350030B1012859
:102470000CD002281AD0032821D110E01CB1184832
:102480000068806C2060002030801CE01CB1144883
:102490000068806C206046F2A910308013E00CB117
:1024A0000020206047F2D92030800CE01CB10C489D
:1024B0000068806C206045F6C250308003E046F62C
:1024C0002E60308000BF00BF00BF00BF5046FDF748
:1024D00093FE00BF00BF00BF2CE700004D555458CD
:1024E000F8020020900200202DE9F84F04468946AA
:1024F00015464FF0000B24B945F6C3502880BDE8BF
:10250000F88FB9F1000F03D0B9F5004F02D100E008
:1025100000BF03E045F625602880F0E700BF524980
:102520002068884203D045F6C4502880E7E700BF02
:1025300000BFFDF75DFE834600BF00BF4B49606AE8
:10254000096888420AD000BF00BF5846FDF754FE14
:1025500000BF00BF45F281702880D0E7FEF746FC3F
:1025600080462834C4F804802078401E207014F877
:10257000280900280ADD00BF00BF5846FDF73CFED1
:1025800000BF00BF45F283702880B8E72146374876
:10259000006801F011FB04F1080ABAF8080068B9F4
:1025A0000020606284F8280000BF00BF5846FDF795
:1025B00023FE00BF00BF00202880A0E72B48006852
:1025C00090F837002949096891F83810884228D0D6
:1025D0002648006801F0DAFA06462448006890F8B8
:1025E0003810B14204DA2148006890F8380000E061
:1025F000304606461D48006890F83700B04210DAB1
:102600001A48006801F042FD1848006880F83760F9
:10261000304601F0A5FC1548006801F019FD14488A
:102620000670DAF8000087686762012084F82800E5
:102630002146384601F076FA00231A4639462046EC
:10264000CDF8008001F0EAFB00BF00BF5846FDF75F
:10265000D3FD00BF00BF09F4004008B900F00AF83C
:102660000020288000BF4AE74D555458F80200204A
:102670007602002010B5002420480078002800DDF4
:1026800010BD1F480078002800DDF9E700BFFDF706
:10269000AFFD044600BF01F043FC1A49087008462C
:1026A000007800EB4000184951F8200017490860F5
:1026B0000846006816490968884205D100BF2046CF
:1026C000FDF79AFD00BFDBE710480068D0F88C00EA
:1026D000401C0E490968C1F88C000E480068401C77
:1026E0000C490860FEF720F900BF2046FDF784FD85
:1026F00000BFBFF36F8F00BFC2E700005C02002085
:102700009002002077020020D4670020FC02002005
:10271000F8020020B402002070B5044600251448D9
:102720000078012803D045F68960208070BD1148EB
:102730000078FA2803DB45F209202080F6E700BF85
:1027400000BFFDF755FD054600BF00BF09480078F2
:10275000401C0849087001F0C7FC00BF00BF2846B4
:10276000FDF74AFD00BF00BF0020208000BFDDE76D
:102770005D0200209002002070B5044600251C4830
:102780000078012803D045F68960208070BD194883
:10279000007818B946F664502080F7E700BF00BF04
:1027A000FDF726FD054600BF00BF12480078401E19
:1027B000104908700846007800280ADD00BF00BFF5
:1027C0002846FDF719FD00BF00BF46F66350208084
:1027D000DCE701F097FC00BF00BF2846FDF70CFDC9
:1027E00000BF00BFFFF746FF0020208000BFCDE7FD
:1027F0005D0200209002002010B5044612480078C7
:10280000E8B901F08DFB11490870084600781049BD
:1028100008700E48007800EB40000E4951F8200087
:102820000D490860084600680C4908600120064907
:102830000870FEF741F843F69920208002E045F643
:102840008A60208010BD00005D0200207702002019
:1028500076020020D4670020FC020020F80200204D
:102860002DE9F04107464FF0000800BF00BFFDF71B
:10287000BFFC804600BF00BF00203B4908803B49A9
:1028800008603B4908603B4908603B4908603B4998
:10289000088100BF00BF4046FDF7AEFC00BF00BF8F
:1028A00000BF00BFFDF7A4FC804600BF00BF344856
:1028B000046800BF00BF4046FDF79EFC00BF00BF9C
:1028C00021E000BF00BFFDF793FC804600BF00BFC2
:1028D00000207434E06320602063A061A082E08265
:1028E0006062A062FEF782FA2062743C04F1600626
:1028F0000020B081D4F8B84000BF00BF4046FDF7CB
:102900007BFC00BF00BF002CDBD100BF00BFFDF788
:102910006FFC804600BF00BF1A48056800BF00BFBB
:102920004046FDF769FC00BF00BF12E000BF00BFDA
:10293000FDF75EFC804600BF00BF05F120060020C9
:10294000B081AD6900BF00BF4046FDF755FC00BF38
:1029500000BF002DEAD102F0D5F902F0E7FB00201C
:102960003880BDE8F08100009E020020B002002007
:10297000C4020020E802002088020020C86700206E
:10298000B80200207C020020F8B504460026694603
:10299000324800F01BFDBDF8000018B1BDF8000082
:1029A0002080F8BD6A460021022000F07DFDBDF8C0
:1029B000000018B1BDF800002080F2E700BF00BFA2
:1029C000FDF716FC064600BF00BF00202449086042
:1029D00000BF00BF3046FDF70FFC00BF00BF002561
:1029E0002048006820490968884205D91D480068C8
:1029F0001D490968B0FBF1F525B91A4800680A219C
:102A0000B0FBF1F56A460021284600F04DFD69460D
:102A1000124800F0DFF9BDF8000018B1BDF8000061
:102A20002080BEE700BF00BFFDF7E2FB064600BF07
:102A300000BF00200D490860094800680C49086083
:102A400001200C49087000BF00BF3046FDF7D4FBE1
:102A500000BF00BF0020208000BFA2E7846C0020E0
:102A6000A0020020646800084C680008B002002042
:102A7000A4020020AC02002010B50348006810B189
:102A800001480068804710BD4C0200202DE9FF4F2F
:102A900087B004469046DDE91BA5DDE91496179F33
:102AA000002003902CB947F2AD1028800BB0BDE890
:102AB000F08FB8F1000F03D147F24F102880F5E7EF
:102AC0001EB946F62F602880F0E75048006887421C
:102AD00003D246F630602880E8E71698B84203D360
:102AE00046F631602880E1E7B9F1400F03D346F2A2
:102AF00073202880DAE7B9F13F0F06D144488442B9
:102B000003D046F273202880D0E7204601F0D4FDA0
:102B1000002028800AF0010090B10AF0020078B18C
:102B200005960020069008E00021059801600598B0
:102B3000001D05900698401C06900698B842F3D3F5
:102B4000169806EB80000490CDE9007A32464046A4
:102B5000049B0A9900F0D8FA0590C4F828800A98D6
:102B6000E0620898206284F8379084F838900598DD
:102B700020600498A0601A98606066622764A4F8D8
:102B800044A04FF0000B08E0002104F1780040F869
:102B90002B100BF1010000F0FF0BBBF1000FF3D085
:102BA00004F16000189900F09DFF204600F036F80F
:102BB00000BF00BFFDF71CFB039000BF00BF94F8EF
:102BC000370001F0CDF9204601F042FA204601F02D
:102BD00029FD10480088401C0E4908800E480078E6
:102BE000012807D000BF00BF0398FDF705FB00BF19
:102BF00000BF5BE700BF00BF0398FDF7FDFA00BF11
:102C000000BFFFF737FD00BF50E700006068000815
:102C100008670020BC0200205D02002010B50446B9
:102C20000348006818B1204601490968884710BD6B
:102C30003C0200202DE9F04104460E464FF000080A
:102C40005B48844204D147F24C103080BDE8F081EB
:102C50007CB900BF00BFFDF7CBFA804600BF00BFC4
:102C60005448046800BF00BF4046FDF7C5FA00BFE6
:102C700000BF00BF00BFFDF7BBFA804600BF00BF2A
:102C800094F83600082860D2DFE800F004090E103E
:102C9000080A0F11204601F0F9F961E060E000BF79
:102CA000204602F003F85BE000BF00BF00BF94F8CD
:102CB000340008283BD2DFE800F0040705080E09BD
:102CC0000A0600BF00BF33E000BF00BF00BF2046C0
:102CD00001F069F82CE0206BC068456A15F8377F71
:102CE000204601F060F828786978373D884212D094
:102CF00095F8370094F8371088420CD1284600F038
:102D000045FF074695F83800B84202DA95F83800D2
:102D100000E038460746002084F8340095F8370074
:102D2000B84203D03946284601F006FC00E000BF57
:102D300000BF94F83600032803D094F83600072823
:102D400002D1204601F0B2FF0AE000BF00BF4046BA
:102D5000FDF752FA00BF00BF46F62D60308075E7E0
:102D600000BFE06B10B1204600F0E0FE04F160000F
:102D700000F096FE204600F021F8204601F06AFCA3
:102D80000D480088401E0C490880204601F094FC44
:102D9000FF2084F8360000BF00BF4046FDF72CFA44
:102DA00000BF00BF00203080FFF764FC00BF4DE78C
:102DB00008670020F8020020BC02002010B504467D
:102DC0000348006818B1204601490968884710BDCA
:102DD0004002002070B504460D46002600BF00BF2B
:102DE000FDF706FA064600BF00BF1CB10D4800689B
:102DF00084420AD100BF00BF3046FDF7FDF900BF95
:102E000000BF47F25710288070BD00BF00BF30469A
:102E1000FDF7F2F900BF00BF2946204601F0AAFCE9
:102E200000BFF1E7F802002010B50446034800682F
:102E300018B1204601490968884710BD44020020A6
:102E40002DE9F04780460E4614461D464FF0000916
:102E50001EB1B6F5004F02D100E000BF05E045F617
:102E6000256028800020BDE8F08700BF0CB100205D
:102E7000206000BF00BFFDF7BBF9814600BF00BF67
:102E80005F480068C06CA8B35D480068C06C401E15
:102E90005B490968C8645A480068C76C1CB1584847
:102EA0000068806C2060FDF7A1FF55490968896CB6
:102EB000401A53490968C1F8A00051480068D0F889
:102EC000A4004F490968D1F8A010884207D24C48A5
:102ED0000068D0F8A0004A490968C1F8A40000BF02
:102EE00000BF4846FDF788F900BF00BF00202880DA
:102EF0003846B8E7FFE706F4004058B100BF00BF0E
:102F00004846FDF779F900BF00BF46F2B0102880AF
:102F10000020A8E73B48007800280BDD00BF00BF79
:102F20004846FDF769F900BF00BF46F663502880A8
:102F3000002098E7434607220021084600F056FE8D
:102F400000BF00BF4846FDF757F900BF00BFFFF7BD
:102F500091FB00BF00BFFDF74BF9814600BF00BFEA
:102F60002748006890F8350020B1012826D00328B2
:102F700034D12CE0FCB122480068806C2060FDF761
:102F800035FF1F490968896C401A1D490968C1F855
:102F9000A0001B480068D0F8A40019490968D1F8BE
:102FA000A010884207D216480068D0F8A000144943
:102FB0000968C1F8A4000020288013E01CB1104863
:102FC0000068806C206046F2A91028800AE00CB1ED
:102FD0000020206047F2D920288003E046F62E60CA
:102FE000288000BF00BF06480068C76C00BF00BF54
:102FF0004846FDF701F900BF00BF384633E700003F
:10300000F8020020900200202DE9F04106460D460E
:1030100014461DB1B5F5004F02D100E000BF05E038
:1030200045F6256020800020BDE8F08100BFFDF757
:10303000DDFE8046234642462946304601F026FC06
:1030400007463846F0E700002DE9F04704460E46F3
:1030500017461D464FF0000A26B946F2D5202880B3
:10306000BDE8F0871FB946F2D5202880F8E700BFF9
:1030700000BFFDF7BDF8824600BF00BF0CB9214874
:103080000468206868B900BF00BF5046FDF7B4F877
:1030900000BF00BF00203060386047F25210288027
:1030A000DEE794F8440000F0010068B900BF00BFFB
:1030B0005046FDF7A1F800BF00BF00203060386027
:1030C00047F254102880CBE700BF00BF5046FDF701
:1030D00093F800BF00BF4FF00008D4F8249003E03D
:1030E00009F1040908F10108D9F800000028F7D017
:1030F000C6F80080206CA0EB080038600020288013
:1031000000BFADE7F8020020F0B50446DDE9055642
:1031100002EB850020F007004FF0807C071F384647
:10312000C7F800C0071F38463C60DFF834C2071FED
:103130003846C7F800C04FF0123C071F3846C7F8A2
:1031400000C04FF0033C071F3846C7F800C04FF0DF
:10315000023C071F3846C7F800C0071F38463B60CF
:10316000071F384639604FF0113C071F3846C7F833
:1031700000C04FF0103C071F3846C7F800C04FF0A2
:10318000093C071F3846C7F800C04FF0083C071F2E
:103190003846C7F800C04FF0073C071F3846C7F84D
:1031A00000C04FF0063C071F3846C7F800C04FF07C
:1031B000053C071F3846C7F800C04FF0043C071F06
:1031C0003846C7F800C006F00407002F7ED04FF045
:1031D000007C071F3846C7F800C0DFF888C1071F0A
:1031E0003846C7F800C0DFF880C1071F3846C7F867
:1031F00000C0DFF878C1071F3846C7F800C0DFF805
:1032000070C1071F3846C7F800C0DFF868C1071F44
:103210003846C7F800C0DFF860C1071F3846C7F856
:1032200000C0DFF858C1071F3846C7F800C0DFF8F4
:1032300050C1071F3846C7F800C0DFF848C1071F54
:103240003846C7F800C0DFF840C1071F3846C7F846
:1032500000C0DFF838C1071F3846C7F800C0DFF8E4
:1032600030C1071F3846C7F800C0DFF828C1071F64
:103270003846C7F800C0DFF820C1071F3846C7F836
:1032800000C0DFF818C1071F3846C7F800C04FF06C
:10329000834C071F3846C7F800C0DFF804C1071F7A
:1032A0003846C7F800C0DFF8FCC0071F3846C7F82B
:1032B00000C0DFF8F4C0071F3846C7F800C0DFF8C9
:1032C000ECC0071F3846C7F800C000E047E0DFF851
:1032D000E0C0071F3846C7F800C0DFF8D8C0071F96
:1032E0003846C7F800C0DFF8D0C0071F3846C7F817
:1032F00000C04FF0824C071F3846C7F800C0DFF807
:10330000BCC0071F3846C7F800C0DFF8B4C0071FAD
:103310003846C7F800C0DFF8ACC0071F3846C7F80A
:1033200000C04FF0814C071F3846C7F800C0DFF8D7
:1033300098C0071F3846C7F800C04FF0804C071FE1
:103340003846C7F800C04FF07E5C071F3846C7F804
:1033500000C04FF0000C071F3846C7F800C0F0BD92
:10336000754800080000F8410000F0410000E84105
:103370000000E0410000D8410000D0410000C841F9
:103380000000C0410000B8410000B0410000A84169
:103390000000A041000098410000904100008841D9
:1033A00000007041000060410000504100004041B9
:1033B0000000304100002041000010410000E040CA
:1033C0000000C0400000A0400000404070B505462D
:1033D0000C460648854203D147F25B10208070BD41
:1033E0002146284601F034FB00BFF8E708670020BB
:1033F00010B52948006890F8440000F0040020B19E
:10340000254909680868FDF741FA2448006890F8E2
:10341000440000F0040020B1204909680868FDF765
:1034200042FA1F48006810B11D4800688047FDF748
:10343000DDFC04461848006818490968884215D020
:1034400015480068D0F89400201A13490968C1F89B
:10345000900011480068D0F898000F490968D1F829
:10346000901008440C490968C1F898000B4800689E
:10347000C0F8944008480068D0F8B00009490968CD
:10348000884205D20748006803490968C1F8B000BE
:1034900000200449086010BDF8020020FC02002052
:1034A000500200208C0200202DE9F04105460E4616
:1034B0001446002723480078002804DD46F66350B0
:1034C0002080BDE8F08136B1022E05D0042E0AD04E
:1034D000082E09D101E000BF00BF1DB947F27E20D0
:1034E0002080EEE704E003E045F625602080E8E771
:1034F00000BF00BF00BFFCF77BFE074600BF00BF58
:103500002346324629461048006801F071FB2088A6
:1035100038B100BF00BF3846FCF76EFE00BF00BFE9
:10352000CFE70948006800F0B1FD00BF00BF384692
:10353000FCF762FE00BF00BFFFF79CF80020208070
:1035400000BFBEE790020020F80200202DE9FF5FD7
:1035500005460E4617469846DDE90EA40020009069
:103560005A480078002804DD46F663502080BDE804
:10357000FF9F0AF00E0BBBF1000F09D0BBF1020F49
:1035800007D0BBF1040F10D0BBF1080F0ED101E042
:1035900000BF00BFB8F1000F06D12FB926B91DB981
:1035A00047F27E202080E2E704E003E045F6256054
:1035B0002080DCE700BF2AF01E0008B1012000E0F7
:1035C000002003900398012803D145F62560208050
:1035D000CDE70AF01000102802D100BF012000E062
:1035E000002002900298012818D0B8F57A7F03D302
:1035F00047F27B202080BAE73B2F03DD47F27A2099
:103600002080B4E73B2E03DD47F279202080AEE72F
:10361000632D12DD47F278202080A8E742F20F7078
:10362000864203DD47F279202080A0E7B5F57A7F56
:1036300003DB47F27820208099E72548D0F80090F6
:103640004FF4FA70B0FBF9F0404400FB09F04FF47E
:103650007A71B0FBF1F14FF461606843C6EB06127A
:1036600000EB8200384400FB09100190019838B348
:1036700000BF00BFFCF7BCFD009000BF00BF2346A9
:103680005A4614480199006801F0B2FA208838B10E
:1036900000BF00BF0098FCF7AFFD00BF00BF66E7AA
:1036A0000C48006800F0F2FC00BF00BF0098FCF777
:1036B000A3FD00BF00BFFEF7DDFF0020208002E079
:1036C00047F27E20208000BF51E7000090020020DA
:1036D00064680008F802002008B500F01FF86A4688
:1036E00000210A48FFF790FC09480068401E08497D
:1036F00008600846006838B90648006808606A46ED
:1037000000210548FFF780FC08BD0000946B0020F5
:10371000F4020020F0020020846C002010B5034861
:10372000006810B101480068804710BD54020020B5
:1037300010B5002400BF00BFFCF75AFD044600BFCF
:1037400000BF08480078401C0649087000BF00BF51
:103750002046FCF751FD00BF00BFFFF7BDFFFEF79D
:1037600035FD10BD5C02002001464A1E4FF0E023EB
:103770005A61084A106820F07F4000BF10601A4666
:10378000126942F005021A611A46126942F00202F9
:103790001A61704720ED00E0244A2549254A264A4F
:1037A0002649274A2748284A284A294A294A2A488E
:1037B0002A482B4A2B482C4A2C482D4A2D482E4863
:1037C0002E482F482F4A304A304A3148314A324A2F
:1037D0003248334833483448344835483548364A07
:1037E000364A374A374A384838483948394A3A4ACF
:1037F0003A4A3B483B483C483C493D483D4A3E4AA2
:103800003E4A3F4A3F4A404A404A4148414A424A6A
:1038100042484348434A444A4448454A454A464840
:10382000464800BF00BF00BF70470000986800080E
:10383000006A0008996800089A6800089C680008F7
:10384000A0680008A4680008A1680008CC68000807
:10385000CD680008CE680008D0680008D26800086B
:10386000D6680008D8680008F8680008FA680008F8
:10387000FC680008FE68000800690008026900088A
:1038800004690008346900083569000836690008D1
:10389000386900083A6900083B6900083C6900087B
:1038A0003E69000840690008426900084469000850
:1038B00046690008486900087869000879690008C5
:1038C0007A6900087B6900087C6900087E69000845
:1038D00080690008A8690008A9690008AA690008A9
:1038E000AB690008AC690008AE690008B06900085F
:1038F000B4690008B5690008B6690008B76900082E
:10390000B8690008B9690008BA690008BB6900080D
:10391000BC690008BE690008BF690008C0690008EA
:10392000C2690008C4690008C5690008C8690008C0
:10393000F8690008F9690008FA690008FC690008DC
:103940000021034A1160034A118001807047000082
:103950006002002064020020002419E000BF00BFC4
:10396000FCF746FC044600BF00BF0A480068401C44
:103970000849086008480068401C0749086000BF03
:1039800000BF2046FCF738FC00BF00BFFEF74EFB2F
:10399000E4E7000058020020A002002010B58AB021
:1039A000044600200E4908600B2000210591CDE956
:1039B0000704069108460B4909680B4A12680B4B2D
:1039C0001B68CDE90132CDE903103F200023084AEE
:1039D00008A100900C48FFF759F80AB010BD00008C
:1039E000580200200C6800080868000804680008F5
:1039F0005939000875432F4F532D494949204964CF
:103A00006C65205461736B00086700200021034A35
:103A10001160034A11800180704700006802002095
:103A20006C02002070B501461A4D2D681DB945F293
:103A30001E750D8070BD184D2D881DB945F21D7580
:103A40000D80F7E7134D28682A681032124D2D8833
:103A50006D1EACB2002308E00260002545600581C0
:103A6000C560103010325D1CABB2A342F4DB002500
:103A7000056045600581C560064D2D68074E3560BF
:103A8000054D2D88B5800025F58035810D8000BF5E
:103A9000D0E70000446800083C680008C8670020C0
:103AA00010B5014648894B89002B17DD0A680C4B7D
:103AB0001B6813600A4C4B6823602346DB884C89E3
:103AC0001B1B074CE38023469B884C892344044CF2
:103AD000A38000234B818B810B604B6010BD0000E5
:103AE000C867002001810022428182810260426019
:103AF0007047000009A1C1610021416108490968BE
:103B000011B90021816105E0054909688161044915
:103B10000968486102490860704700002000000001
:103B200070020020C26B0A62C16370472DE9F8433E
:103B30000546EC6B26E0D4F82090FDF757F90646D1
:103B4000E6622146284600F037F804F10808B8F884
:103B5000080020B9002084F82800606211E0D8F83D
:103B6000000087686562012084F8280021463846F5
:103B7000FFF7D8FF00231A4639462046009600F08A
:103B80004DF94C46002CD6D1BDE8F88330B504463B
:103B90003F2004F13C010BE00D68AB682BB19D6840
:103BA00095F83720824200DA10460D6805F12001B1
:103BB0000D68002DF0D130BD024602F13C0002E05C
:103BC000036803F1200003688B42F9D103681B6A84
:103BD000036070470021034A1160034A118001808D
:103BE0007047000070020020740200202DE9F041AF
:103BF00005460C4616461F461548006880F8346096
:103C000000201349096881F83500394610480068DA
:103C100000F07CFC6CB104F10808EC60012229463C
:103C20000B48006800F016F82946404600F088F876
:103C300007E0002006490968A1F846000449096820
:103C4000086303480168204600F018F8BDE8F081D9
:103C5000F802002010B5A0F84620016300230AE016
:103C600000244C600C600C614C610C83CC6188605A
:103C700020315C1CA3B29342F2DB10BD30B548B1D9
:103C80004568C1F8BC5000F10804226893681D6AB9
:103C9000C56113E091F83450022D02D0072D08D1F0
:103CA00003E007A5C1F8BC5007E007A5C1F8BC5068
:103CB00003E008A5C1F8BC5000BF00BF30BD000044
:103CC0005461736B205100005461736B2053656D18
:103CD000000000002000000030B507A5C1F8BC506E
:103CE00000F1080422681AB193681D6AC56101E0F9
:103CF00001A5C56130BD0000200000002DE9F041A4
:103D00000446256BB4F8467011E0D5F80C8008F134
:103D100008063089012807D92946304600F05DF8A9
:103D20002946304600F00CF82035781E87B2002F67
:103D3000EBD1BDE8F0810021016041600181704755
:103D4000F0B58E6896F8375007893FB9012707818B
:103D500000274F600F600160416023E007897F1CEE
:103D60000781026806E0946894F83770AF4200DD7E
:103D700002E05268002AF6D100BF32B900274F6036
:103D800043680B60596041600CE017682FB91160FF
:103D900000270F604A60016004E013680B604A600E
:103DA00059601160F0BD2DE9F0410446256BB4F86F
:103DB00046600AE0D5F80C8008F108072946384625
:103DC00000F00BF82035701E86B2002EF2DC0020C9
:103DD000A4F846002063BDE8F08110B50489012CE9
:103DE00003D100240460446011E00C6824B94A68DF
:103DF0000024146002600AE04C6824B90B680024B7
:103E00005C60436003E00B684A685A601360048991
:103E1000641E048100244C600C6010BD2DE9F84341
:103E200006460C4617469846089D94F83600082822
:103E30005BD2DFE800F0040508090607323300BF53
:103E400000BF00BF52E000BF94F83400032807D140
:103E500043463A4621463046009500F04AF803E0D2
:103E6000A765A4F85C80A56436B12046FFF79BFFE8
:103E700021463046FFF730FF94F83600032802D180
:103E8000204600F013FF204600F0ACF80020343448
:103E9000A070607004F8340928E000BF94F8340082
:103EA000032807D143463A4621463046009500F0A4
:103EB00020F803E0A765A4F85C80A56436B120462D
:103EC000FFF771FF21463046FFF706FF94F83600F2
:103ED000072802D1204600F0E9FE04203434A07007
:103EE0000020607004F8340900E000BF00BFBDE8A6
:103EF000F883F0B50446059E086BB1F846500AE019
:103F0000C768A74204D1046142610383C66104E02B
:103F100020306F1EBDB2002DF2DC00BFF0BD0000EE
:103F200070B50025074C03E005F12000C5B2241D43
:103F300020680028F8D02068FCF765F92844C5B24D
:103F4000284670BD34020020002004E00021034A0E
:103F500042F82010401C0228F8D370473402002099
:103F600030B5420900F01F030121C3F11F04A14035
:103F7000034C54F822400C43014D45F8224030BD1B
:103F80003402002030B5420900F01F030121C3F1C3
:103F90001F04A140034C54F822408C43014D45F8C6
:103FA000224030BD340200200021034A1160034A40
:103FB00011800180704700007C02002080020020F8
:103FC00000210AE001EB4102054B03EB82000022D5
:103FD0000281026042604A1CD1B24029F2D370478C
:103FE000D467002010B5044694F83700FFF7B8FFF7
:103FF00094F8370005490978884203D1204600F03B
:1040000027F802E0204600F003F810BD76020020F9
:1040100010B590F8373003EB43030C4C04EB8301ED
:104020000B893BB901230B810023C3600361086046
:10403000486009E00B895B1C0B810B68C36000239F
:1040400003610A681061086010BD0000D467002099
:1040500010B590F8373003EB43030B4C04EB8301AE
:104060000B893BB901230B810023C3600361086006
:10407000486008E00B895B1C0B810023C3604A6821
:104080000261D060486010BDD46700202DE9F04186
:10409000054695F8370000EB4000124901EB80041B
:1040A0002F69EE6887B946B90020208120606060E2
:1040B00095F83700FFF766FF0EE02089401E20814B
:1040C00000203061266007E02089401E2081FE60CC
:1040D0000EB9676000E0376100202861E860BDE844
:1040E000F0810000D467002010B504480078012852
:1040F00003D1FCF77BFE0249086010BD900200204E
:104100008402002010B50A48007880B9FCF76EFEE2
:1041100008490968441A08480068A04201D20648C4
:10412000046006480068A04201D20448046010BD43
:104130009002002084020020880200208C020020CF
:104140000021034A1160034A11800180704700007A
:10415000940200209802002086B00020009006E023
:10416000A8490968480001AA0021FFF79DF9A6485F
:1041700000780128F4D101A8FEF772FB0027A348BC
:104180000068A0490968884205D9A04800689D498F
:104190000968B0FBF1F727B99C4800680A21B0FB19
:1041A000F1F72EE1FCF722FE804600BF00BFFCF7CE
:1041B0001FF8009000BF00BF95480068954908604F
:1041C00000209349086000BF00BF0098FCF714F876
:1041D00000BF00BF904800688E490968884248D9EE
:1041E0008D4800688D49884205D242F210700390D4
:1041F0000120029023E0884800688949884205D25E
:104200004FF47A7003900A20029018E08248006808
:104210008449884203D26420039002900FE07E48D4
:1042200000688149884205D20A2003904FF47A70D1
:10423000029004E00120039042F210700290764850
:1042400001680298B1FBF0FA724903980968484383
:10425000B0FBFAF042F21071081A744908807448F1
:1042600000880988884208DA704800887049088008
:1042700003E042F210706D490880FEF7FDFB002557
:1042800000BF00BFFBF7B4FF009000BF00BF69484C
:10429000046800BF00BF0098FBF7AEFF00BF00BF7F
:1042A00026E000BF00BFFBF7A3FF009000BF00BFE8
:1042B00054F8980F6060002044F8980900BF00BFD0
:1042C0000098FBF799FF00BF00BFD4F89C0005449D
:1042D00000BF00BFFBF78CFF009000BF00BFD4F809
:1042E000B84000BF00BF0098FBF786FF00BF00BFCB
:1042F000002CD6D145B34948854205D242F2107010
:1043000005904FF0010B1BE04548854205D24FF464
:104310007A7005904FF00A0B12E04248854203D2B2
:104320006420059083460BE03F48854204D20A2072
:1043300005904FF47A7B03E00120059042F2107B58
:10434000B5FBFBF0049003E00020059001200490F1
:1043500000BF00BFFBF74CFF009000BF00BF354817
:10436000046800BF00BF0098FBF746FF00BF00BF16
:104370002BE0D4F89C00059948430499B0FBF1F078
:1043800086B242F21070864200D90646A4F88860D0
:10439000B4F88A00B04201DAA4F88A6001AB04F1F3
:1043A000A802111D2046FEF74FFE00BF00BFFBF71D
:1043B0001FFF009000BF00BFD4F8B84000BF00BF8F
:1043C0000098FBF719FF00BF00BF002CD1D11A489D
:1043D0000078012805D100201749087001A8FEF7D0
:1043E0003FFAFCF703FDA0EB0809144800684845B4
:1043F00002D21248C0F8009001AA00213846FFF707
:1044000053F8CFE64C680008AC020020646800084E
:10441000A0020020A8020020A4020020801A0600AA
:1044200000093D00005A62020084D7179C02002058
:104430009E020020B80200209A020020B002002054
:1044400010B58AB0044600201F4908601F49086063
:104450001F4908601F4908701F4908701F480068FD
:1044600020B946F62B6020800AB010BD1C480068B9
:104470001C490968884203D246F62C602080F3E785
:10448000194800783F2803D346F62A602080EBE7DE
:10449000032000210591CDE9070406910846104943
:1044A0000968124A12680D4B1B68CDE90132CDE94B
:1044B00003100D48007800230D4A0EA10090124809
:1044C000FEF7E4FA00BFCFE7A0020020A802002018
:1044D000A4020020AC0200209A02002050680008CC
:1044E00058680008606800084868000854680008B8
:1044F0005941000875432F4F532D494949205374A2
:104500006174205461736B00D46A002070B5044656
:104510000D4645B12A462146064800F025FB0320FA
:1045200084F8360002E0022084F836002046FFF7C7
:10453000ADFD70BDD00200202DE9F04104460D46CE
:1045400000BF002694F8377094F8360008285FD230
:10455000DFE800F004191E1F1A1B20212046FFF778
:1045600095FD84F8375094F83700FFF7F9FC2C4894
:104570000068844203D12046FFF74AFD02E020464E
:10458000FFF766FD46E000BF00BF84F8375041E00A
:1045900000BF00BF00BF84F8375094F834000828EB
:1045A00031D2DFE800F0300431050B06073200BFDE
:1045B00000BF00BF2046FFF7A1FB27E02046FFF722
:1045C0009DFB206BC068466AAF4205DD96F8370058
:1045D000A84217DC002615E096F83700B84211D142
:1045E0003046FFF7D3FA054696F83800A84202DABB
:1045F00096F8380000E02846054696F83700A842AD
:1046000000D1002602E000BF00BF00BF00BF01E0F4
:10461000BDE8F08100BF3446002C92D100BFF7E71F
:10462000F80200200021C0F8B4100949096819B93E
:104630000021C0F8B81007E005490968C0F8B810B3
:1046400003490968C1F8B4000149086070470000D7
:10465000B8020020D0F8B420D0F8B8104AB90D4BF9
:10466000196011B10023C1F8B4300023C0F8B8308C
:104670000FE029B90023C2F8B830C0F8B43008E020
:10468000C2F8B810C1F8B4200023C0F8B830C0F8A0
:10469000B4307047B80200200021044A1160044A77
:1046A0001180044A1160018070470000B8020020A8
:1046B000BC020020B402002070B504460020206037
:1046C000A0606060E06020616061A061E06126A0A0
:1046D000206200206062A062E062A064A065A4F88D
:1046E0005C00002104F16000FFF7FCF90020206766
:1046F0006067E067A4F88400C4F88000002506E045
:10470000002104F1780040F82510681CC5B2002D86
:10471000F6D000203434A061E0662067E06084F8C1
:104720005200A06760672082E0612062A4F8540014
:10473000A4F85600A065E065FCF758FB064626661F
:1047400000206066E06720706070A0704020E0701C
:1047500020710020A060C4F88000C4F8840004A088
:10476000C4F88800343C70BD3F5461736B00000096
:104770002000000070B504460D46002600BF00BFB3
:10478000FBF736FD064600BF00BF0020288094F8E6
:10479000360008285ED2DFE800F00405060712277D
:1047A000394B00BF00BF00BF00BF00BF3046FBF762
:1047B00023FD00BF00BF47F25310288055E014F8D6
:1047C000860F401E207014F8860928B9002084F84E
:1047D00036002046FFF706FC00BF00BF3046FBF75F
:1047E0000BFD00BF00BF40E014F8860F401E207094
:1047F00014F8860910B9012084F8360000BF00BF04
:104800003046FBF7F9FC00BF00BF2EE014F8860F1E
:10481000401E207014F8860910B9022084F8360072
:1048200000BF00BF3046FBF7E7FC00BF00BF1CE045
:1048300014F8860F401E207014F8860910B9032062
:1048400084F8360000BF00BF3046FBF7D5FC00BF40
:1048500000BF0AE000BF00BF3046FBF7CDFC00BF41
:1048600000BF46F62D60288070BD00BFFDF702FF37
:1048700000BFF9E708B504480068FEF7D5FA6946B5
:104880000020FEF7D7F908BDF80200202DE9F84313
:104890000446884617461D464FF0000900BF00BF7A
:1048A000FBF7A6FC814600BF00BF0CB9674804684F
:1048B000A7640020288094F83600082876D2DFE824
:1048C00000F0040550510607525300BF00BF00BF5F
:1048D0000420012804D0022813D0042833D122E078
:1048E000E06CFF280CD100BF00BF4846FBF784FCFA
:1048F00000BF00BF46F6C55028800020BDE8F88301
:1049000022E04FF6FF71E06C88420BD100BF00BF80
:104910004846FBF771FC00BF00BF46F6C550288033
:104920000020EBE710E0E06C401C58B900BF00BF6E
:104930004846FBF761FC00BF00BF46F6C550288023
:104940000020DBE700E000BF00BFE06C401CE0643B
:10495000E66C00BF00BF4846FBF74EFC00BF00BF3F
:1049600071E000BF00BF00BF94F83400072815D1E4
:1049700000231A46214618460097FFF74FFAE66CC7
:1049800000BF00BF4846FBF737FC00BF00BF08F47C
:10499000004000284AD1FDF76DFE47E004200128C1
:1049A00005D0022813D0042833D122E03FE0E06C88
:1049B000FF280BD100BF00BF4846FBF71DFC00BF1E
:1049C00000BF46F6C5502880002097E722E04FF64A
:1049D000FF71E06C88420BD100BF00BF4846FBF777
:1049E0000BFC00BF00BF46F6C5502880002085E7BD
:1049F00010E0E06C401C58B900BF00BF4846FBF710
:104A0000FBFB00BF00BF46F6C5502880002075E7BD
:104A100000E000BF00BFE06C401CE064E66C00BF3B
:104A200000BF4846FBF7E8FB00BF00BF0BE000BF3C
:104A300000BF4846FBF7E0FB00BF00BF46F62D6015
:104A40002880002600BF00BF304657E7F80200204C
:104A500070B504460D46002600BF00BFFBF7C8FB3B
:104A6000064600BF00BF0CB93D4804683C480068DA
:104A700084420ED13B48007800280ADD00BF00BF09
:104A80003046FBF7B9FB00BF00BF46F663502880F5
:104A900070BD0020288094F83600082850D2DFE846
:104AA00000F0041523313F404142042084F83600D1
:104AB000012084F886002046FFF7E8FA00BF00BF17
:104AC0003046FBF799FB00BF00BF44E0052084F8A7
:104AD0003600012084F8860000BF00BF3046FBF797
:104AE0008BFB00BF00BF36E0062084F836000120B3
:104AF00084F8860000BF00BF3046FBF77DFB00BF97
:104B000000BF28E0072084F83600012084F88600E2
:104B100000BF00BF3046FBF76FFB00BF00BF1AE0CD
:104B200000BF00BF00BF94F88600401C84F88600D8
:104B300000BF00BF3046FBF75FFB00BF00BF0AE0CD
:104B400000BF00BF3046FBF757FB00BF00BF46F673
:104B50002D6028809CE700BFFDF78CFD00BF97E724
:104B6000F80200209002002070B51546066846B98C
:104B70000D6500264E618E61C86101600126868048
:104B800033E0046802682B4624E0166D9E421DD374
:104B900096696EB90B6500268E614A61C861166D13
:104BA000F61A1665916101608688761C86800CE095
:104BB00094690B658C614A61C861166DF61A1665B9
:104BC000916161618688761C868070BD166D9B1B25
:104BD00014465269002AD8D10B658C6100264E61BB
:104BE000C86161618688761C868000BFEDE70000A1
:104BF0002DE9F04104460D4690461F46B8F1040FDA
:104C00000ED1284800682E1A16F5803F01D8002ED4
:104C10003CD10020206547F27E203880BDE8F0813D
:104C2000B8F1080F29D11F49606D0968081AA84218
:104C300005D92E461B4800682844606526E01949BE
:104C4000606D0968081A2E1A16F5803F00D886B9DB
:104C50001449606D0968081AB0FBF5F005FB0050B7
:104C6000616D084460650020206547F27E20388031
:104C7000D4E7606D2844606508E00DB12E4605E07C
:104C80000020206547F27E203880C7E7012084F8A5
:104C90003600324621460448FFF766FF0020388080
:104CA00000BFBBE7C0020020C802002030B5C269C7
:104CB00083694169ABB929B9002414609480046503
:104CC000C4611EE000248C610C6D056D2C440C65E4
:104CD00011609488641E9480002444610465C4615A
:104CE0000FE0596121B18B610C6D056D2C440C6591
:104CF000002484619488641E9480002444610465C7
:104D0000C46130BD704700002DE9F0474FF0000945
:104D100000BF00BFFBF76CFA814600BF00BFFCF785
:104D200065F8064600271D4D2C683CB3206D401EDB
:104D300020651FE0781C87B294F83600012806D160
:104D4000002084F836002046FFF74CF906E094F87E
:104D50003600052802D1042084F8360060692860F6
:104D60002C6814B90020A88007E0A888401EA880FD
:104D70000020A061206D0028DCD000BFEF80FCF790
:104D800035F8A0EB060800BF00BF4846FBF734FA31
:104D900000BF00BF4046BDE8F0870000C802002009
:104DA0002DE9F05F4FF0000B00BF00BFFBF720FACA
:104DB000834600BF00BFFCF719F807464FF0000814
:104DC0003B4D2C68002C63D0206D401E20655BE0BD
:104DD00008F101001FFA80F8002694F83400042836
:104DE00002D1206BC068466A0020A065A4F85C0070
:104DF000FBF7FCFFA0642046FEF7D5FF94F83600D1
:104E0000032806D12046FFF7EDF8002084F836008D
:104E100006E094F83600072802D1042084F8360012
:104E2000032084F83500002084F8340006B396F897
:104E3000370096F8381088421AD096F8370094F860
:104E40003710884214D13046FEF7A0FE814696F80E
:104E50003800484502DA96F8380000E048468146B6
:104E600096F83700484503D049463046FFF764FBC3
:104E7000606928602C6814B90020A88007E0A88821
:104E8000401EA8800020A061206D0028A0D000BF97
:104E9000A5F80680FBF7AAFFA0EB070A00BF00BF3A
:104EA0005846FBF7A9F900BF00BF5046BDE8F09F88
:104EB000D002002008B5002728E06B4600221146EA
:104EC0001046FDF7BDFFBDF80000F8B900BF00BFF8
:104ED000FBF78EF9074600BF00BF0D480068401C75
:104EE0000B49086000BF00BF3846FBF785F900BFDB
:104EF00000BFFFF709FF0646FFF752FF054674198A
:104F000004480068A04201D202480460D5E70000CE
:104F1000C0020020C402002010B58AB00446002060
:104F20002049086020490860204908601E4988809F
:104F3000C8801E498880C8801D48006820B947F293
:104F4000122020800AB010BD1A4800681A4909686A
:104F5000884203D247F213202080F3E717480078F5
:104F60003F2803D347F211202080EBE70B200021DC
:104F70000591CDE90704069108460E490A681049D3
:104F800009680B4B1B68CDE90131CDE903200B48C3
:104F9000007800230B4A0CA100901048FDF776FD25
:104FA00000BFCFE7C0020020C8020020D0020020CE
:104FB0006C68000874680008606800086868000889
:104FC00070680008B54E000875432F4F532D4949AE
:104FD00049205469636B205461736B00946B00200B
:104FE00010B58AB0044600202F4908602F49086098
:104FF0002F4908802F48006840B12F4800682D498C
:105000000968B0FBF1F02D49086006E02A48006805
:105010000A21B0FBF1F029490860284800682849B6
:10502000086000202749086027490860224627A118
:105030002A48FDF739F9208808B10AB010BD284880
:10504000006818B947F247302080F6E72548006825
:1050500025490968884203D247F248302080ECE7AE
:10506000224800783F2803D347F246302080E4E707
:105070000B20002105910A46CDE907040691194845
:1050800000681B490968164B1B68CDE90131CDE961
:105090000302164800780023164A17A100901C4806
:1050A000FDF7F4FC00BFC8E7D8020020E0020020B2
:1050B000DC0200208068000864680008F00200201C
:1050C000F4020020EC020020E80200204F5320549C
:1050D0006D72204D7574657800000000546C0020DE
:1050E000846800088C680008606800087C68000814
:1050F000886800083151000875432F4F532D4949E6
:10510000492054696D6572205461736B0000000082
:10511000846C00200EB502A801AB0022114600905D
:105120000148FDF7F9F80EBD546C002070470000EF
:105130001CB53FE001AB6A4600210846FDF780FE42
:10514000FFF7E8FFFBF752FE06461B480068401CCD
:1051500019490860194804681FE001A8FDF7DCFA46
:10516000D4F81080A069401EA061A06980B9A08C0D
:10517000022802D1206AA06105E0204600F022F852
:10518000032084F82600A56815B12046E168A847E9
:10519000444601A8FDF7F0FA00BF002CDDD1FBF773
:1051A00025FE871B00F030F805480068B84201D2A0
:1051B00003480760BEE70000EC020020E002002088
:1051C000E802002010B50E4B1B68834206D101692E
:1051D0000B4B196039B100234B6104E0416902694E
:1051E0000A6102B15161012380F826300023036176
:1051F0004361044B1B885B1E024C238010BD0000E2
:10520000E0020020DC02002008B56A4600210248C6
:10521000FDF76AF908BD0000546C002029B1064A68
:1052200012680243044B1A6004E0034A1268824386
:10523000014B1A60704700003038024029B1064A1D
:1052400012680243044B1A6004E0034A1268824366
:10525000014B1A60704700004038024029B1064AED
:1052600012680243044B1A6004E0034A1268824346
:10527000014B1A60704700002038024029B1064AED
:1052800012680243044B1A6004E0034A1268824326
:10529000014B1A607047000044380240F0B500210D
:1052A00000220024022500260223324F3F6807F027
:1052B0000C0121B1042905D0082937D105E02E4F72
:1052C000076036E02D4F076033E02A4F3F1F3F68ED
:1052D000C7F38056274F3F1F3F6807F03F036EB16B
:1052E000264FB7FBF3F7DFF88CC0ACF1040CDCF809
:1052F00000C0CCF3881C07FB0CF40CE01E4FB7FB7E
:10530000F3F7DFF870C0ACF1040CDCF800C0CCF3AC
:10531000881C07FB0CF4174F3F1F3F68C7F301477A
:105320007F1C7D00B4FBF5F7076002E0124F0760B9
:1053300000BF00BF0F4F3F6807F0F0010909104F91
:105340007A5C0768D74047600A4F3F6807F4E0512E
:10535000890A0B4F7A5C4768D7408760054F3F68E2
:1053600007F46041490B064F7A5C4768D740C76035
:10537000F0BD0000083802400024F40000127A005A
:105380000000002010B588B0044601210846FFF750
:1053900045FF01214020FFF741FF01214804FFF7AD
:1053A0004DFF072202213148FCF7B2FB07220321FF
:1053B0002E48FCF7ADFB02208DF81C0000208DF874
:1053C0001E000C20069003208DF81D0001208DF892
:1053D0001F0006A92548FCF753FB01208DF81C008F
:1053E0000002069000208DF81E0001208DF81F009D
:1053F00003208DF81D0006A91D48FCF741FB02940F
:105400000020ADF814000C20ADF812000020ADF81B
:105410001000ADF80E00ADF80C0002A9154800F020
:105420007DF9012240F22551124800F051F9262061
:105430008DF8040001208DF8070003208DF8050089
:105440008DF8060001A8FCF7A9FD4FF4807108480B
:10545000FCF785FB01228021064800F006F90121B6
:10546000044800F0F6F808B010BD0000000002404B
:1054700000180240004400407047000001490860E5
:1054800070470000DC0027420CB50020019000901E
:105490003448006840F480303249086000BF314829
:1054A000006800F4003000900198401C01900098C2
:1054B00018B90198B0F5A04FF1D12A48006800F45E
:1054C000003010B10120009001E000200090009811
:1054D000012846D123484030006840F080502149DF
:1054E000403108602048006840F440401E49086090
:1054F0001C48083000681B490831086008460068ED
:1055000040F4004008600846006840F4A05008607D
:105510001648091F0860081F006840F08070091FC6
:10552000086000BF0F48006800F000700028F9D044
:1055300040F205700E4908600A480830006820F003
:1055400003000849083108600846006840F002007E
:10555000086000BF03480830006800F00C0008280D
:10556000F8D10CBD003802400070004008544007DC
:10557000003C024010B51548006840F47000134923
:1055800008601348006840F00100114908600020DD
:105590000F49083108600E4800680E4908400C4960
:1055A00008600D48091D0860081F006820F480206D
:1055B000091F0860002006490C310860FFF764FFEE
:1055C0004FF0006001498039086010BD88ED00E0AF
:1055D00000380240FFFFF6FE1030002410B540F204
:1055E0002661054800F04AF828B1002240F2266101
:1055F000014800F06DF810BD0010014010B540F2F8
:1056000025510D4800F03AF818B10B4800F0F0F8B9
:10561000C4B240F22661084800F030F850B14FF4AF
:1056200080710648FCF79BFA002240F2266102488E
:1056300000F04EF810BD0000004400400018024089
:1056400001F40072B2F5007F00D100BFCA430280AE
:10565000704721B1828942F40052828104E082893C
:105660004DF6FF731A40828170471AB1838A0B434B
:10567000838202E0838A8B438382704770B502463F
:10568000002400230025002040F66A16B14200D114
:1056900000BFC1F3421501F01F03012606FA03F310
:1056A000012D02D19689334006E0022D02D1168ADF
:1056B000334001E0968A33400C12012606FA04F4C6
:1056C0001688344013B10CB1012000E0002070BDF9
:1056D000F0B50346002400260025002040F66A1796
:1056E000B94200D100BF1846C1F3421401F01F06B1
:1056F000012707FA06F5012C01D10C3004E0022C39
:1057000001D1103000E014301AB107682F43076050
:1057100002E00768AF430760F0BD00002DE9FF47D6
:1057200005460E460024A14600BFA046B08900B140
:1057300000BF2C8A24F44054F08804432C82AC89A6
:1057400041F20C608443B088318908437189084371
:105750000443AC81AC8A24F44074B0890443AC8225
:105760006846FFF79BFD2048854202D01F488542CE
:1057700002D1DDF80C9001E0DDF80890A88900F472
:10578000004040B109EBC90000EB09103168490045
:10579000B0FBF1F707E009EBC90000EB0910316835
:1057A0008900B0FBF1F76420B7FBF0F00401200999
:1057B000642101FB1078A88900F4004040B1322038
:1057C00000EBC800B0FBF1F000F00700044308E074
:1057D000322000EB08106421B0FBF1F000F00F0064
:1057E00004432C81BDE8FF870010014000140140F4
:1057F00001468888C0F30800704700BFFEE700003C
:1058000000B591B001214805FFF708FD1F48FBF7DF
:1058100045FB00BF1D48FBF7EDFB0028FAD14FF018
:10582000006002901A4803901A48049040200590A6
:10583000C0000690002007904FF480600890002080
:1058400009900A900B904FF480300C9000200D903E
:1058500003200E9000200F90109002A90B48FBF738
:1058600023FC11208DF8040001208DF8070003208F
:105870008DF805008DF8060001A8FCF78FFB0122CA
:1058800010210248FBF7F2FB11B000BDA0600240FE
:10589000044400402600002003B401984100009811
:1058A00050EAC12018BF04204A0D18BF40F0010083
:1058B00040F2FF72B2EB515F08BF40F002000128D6
:1058C00008BF052002B0704710B52F499FED2C1B73
:1058D0002DED020B84B0059820F000408842D8BF1F
:1058E0009DED040B2DDD2949884209D1049840B96A
:1058F0004FF0010000F090FE00F04EFE06B010BD2B
:1059000005DB9DED040B00F03BFE06B010BD6846C4
:105910009DED040B00F04CFA10F0030004BF9DED68
:10592000021B9DED000B0CD001280ED09DED021B3B
:105930009DED000B022817D0012000F089FD06B074
:1059400010BD00F051FC06B010BD9DED021B9DED99
:10595000000B012000F07CFD51EC100B81F00041A8
:1059600006B041EC100B10BD00F03EFC51EC100BEA
:1059700081F0004106B041EC100B10BD00000000AA
:105980000000000000000000FB21E93F0000F07F64
:1059900070B52DED020B2DED0A8B82B00D98C40F62
:1059A00020F00045AE48854248D3AE48854219D321
:1059B0000C99C5F31300084309D09DED0C0B02B000
:1059C000BDEC0A8B02B0BDE8704000F0D9BD002CE0
:1059D00014BF9FEDA50B9DED0C0B02B0BDEC0A8B27
:1059E00002B070BD9FEDA20B53EC102B9DED0C0B84
:1059F00051EC100BFAF7E8FE0AD2022000F00CFE80
:105A000002B0BDEC0A8B02B0BDE8704000F0D4BD1E
:105A10009FED990B53EC102B9DED0C0B51EC100BE3
:105A2000FAF7BAFE0AD2022000F0F6FD02B0BDEC91
:105A30000A8B02B0BDE8704000F0CEBD90489FEDEB
:105A400092BBA8425CD29248854219D291487844D0
:105A500000EBC40090ED000B53EC102B9DED0C0BF4
:105A600051EC100BFAF78DFC41EC1A0B8A48784484
:105A700000EBC40090ED009BC4F10100041B36E074
:105A80009FED870B53EC102B9DED0C0B51EC100B85
:105A9000FAF77DFC41EC100B8348784400EBC4001E
:105AA00090ED001B51EC100B53EC112BFAF7C8FBD7
:105AB000FAF753FE0446FAF73FFE41EC180B9FED50
:105AC0007C0B53EC102BFAF762FC9DED0C1B53EC96
:105AD000112BFAF759FC41EC1A0B9FED770B51ECA7
