:020000040800F2
:10000000788200209D0100086D1A00088B160008F8
:100010004919000845070008F754000800000000CF
:100020000000000000000000000000007551000802
:10003000450B00080000000011050008C53300084A
:10004000D7010008D7010008D7010008D701000830
:10005000D7010008D7010008D7010008D701000820
:10006000D7010008D7010008D7010008D701000810
:10007000D7010008D7010008D7010008D701000800
:10008000D7010008F1070008D7010008D7010008D0
:10009000D7010008D7010008D7010008D7010008E0
:1000A000D7010008D7010008D7010008D7010008D0
:1000B000D7010008D7010008D7010008D7010008C0
:1000C000D7010008D7010008D7010008D7010008B0
:1000D000D7010008D9520008F9520008D7010008DA
:1000E000D7010008D7010008D7010008D701000890
:1000F000D7010008D7010008D7010008D701000880
:10010000D7010008D7010008D7010008D70100086F
:10011000D7010008D7010008D7010008D70100085F
:10012000D7010008D7010008D7010008D70100084F
:10013000D7010008490F0008D7010008D7010008BF
:10014000D7010008D7010008D7010008D70100082F
:10015000D7010008D701000829080008D7010008C6
:10016000D7010008D7010008D7010008D70100080F
:10017000D7010008D7010008D7010008D7010008FF
:10018000D7010008D7010008DFF80CD000F056F9BD
:10019000004800479556000878820020DFF83800B4
:1001A000016841F470010160BFF34F8FDFF82C004C
:1001B000016821F040410160BFF36F8F084880471C
:1001C00008480047FEE7FEE7FEE7FEE7FEE7FEE73A
:1001D000FEE7FEE7FEE7FEE788ED00E034EF00E033
:1001E000715200088901000872B6704762B6704704
:1001F000EFF3108072B6704780F31088704730BFFD
:10020000704720BF7047B0FA80F0704790FAA0F0B6
:10021000B0FA80F0704790FAA0F07047002800D143
:100220007047002900D17047002A00D170472DE99E
:10023000F81F00F0030301F00304A34211D1C3F13E
:10024000040303F00303012B1DD3012A00D2F2E0C3
:1002500011F8014B00F8014BA3F10103A2F10102D7
:10026000F1E700F0010301F00104A34200D094E0A3
:10027000012B44D311F8014B00F8014BA3F101030A
:10028000A2F10102F4E7B2F5B47F26D3B1E8F81F7A
:10029000A0E8F81FB1E8F81FA0E8F81FB1E8F81FC0
:1002A000A0E8F81FB1E8F81FA0E8F81FB1E8F81FB0
:1002B000A0E8F81FB1E8F81FA0E8F81FB1E8F81FA0
:1002C000A0E8F81FB1E8F81FA0E8F81FB1E8F81F90
:1002D000A0E8F81FA2F5B472D5E7282A06D3B1E842
:1002E000F81FA0E8F81FA2F12802F6E7042A06D3B7
:1002F00051F8043B40F8043BA2F10402F6E7202A3F
:1003000042D331F8023B20F8023B31F8023B20F89F
:10031000023B31F8023B20F8023B31F8023B20F867
:10032000023B31F8023B20F8023B31F8023B20F857
:10033000023B31F8023B20F8023B31F8023B20F847
:10034000023B31F8023B20F8023B31F8023B20F837
:10035000023B31F8023B20F8023B31F8023B20F827
:10036000023B31F8023B20F8023B31F8023B20F817
:10037000023B31F8023B20F8023B31F8023B20F807
:10038000023BA2F12002BAE7022A06D331F8023B6F
:1003900020F8023BA2F10202F6E7102A42D311F83C
:1003A000013B00F8013B11F8013B00F8013B11F85B
:1003B000013B00F8013B11F8013B00F8013B11F84B
:1003C000013B00F8013B11F8013B00F8013B11F83B
:1003D000013B00F8013B11F8013B00F8013B11F82B
:1003E000013B00F8013B11F8013B00F8013B11F81B
:1003F000013B00F8013B11F8013B00F8013B11F80B
:10040000013B00F8013B11F8013B00F8013B11F8FA
:10041000013B00F8013B11F8013B00F8013BA2F160
:100420001002BAE7012A06D311F8013B00F8013B9C
:10043000A2F10102F6E7BDE8F81F7047064C074D30
:1004400006E0E06840F0010394E8070098471034A4
:10045000AC42F6D3FFF79CFE7C5900089C5900087B
:10046000EFF3098141B1F1EE101A40F8041D20EDBF
:10047000200A3B490A6810607047B0EC200A02C8A5
:10048000E1EE101A37490A681060704772B64EF6EE
:100490002250CEF2000040F2FF01C0F200010170D4
:1004A00040F20010C2F20000016881F3088840F2B7
:1004B0007600C2F2000040F27701C2F200010A7831
:1004C000027040F2F805C2F2000540F2FC01C2F2EF
:1004D00000010A682A60106880F30988EFF314802D
:1004E00040F0020080F31488BFF36F8FBDE8F00F77
:1004F0000FBCBDE8005006BC62B608471A484FF072
:1005000080510160704718484FF08051016070477A
:1005100072B6EFF3098020E9F00F40F2F805C2F25D
:1005200000052E683060744602F0ACFD40F27600A3
:10053000C2F2000040F27701C2F200010A780270B4
:1005400040F2FC01C2F200010A682A6044F0F40E95
:100550001068B0E8F00F80F3098862B670470000B9
:10056000F8000020FC00002004ED00E000B58BB096
:100570000AA8072100220592CDE90621089011461C
:100580004FF400721548D0F8CC00144BCDE901307F
:10059000CDE9032104200023114A12A10090144840
:1005A00001F0DEFF0AA8002105910691CDE90710B0
:1005B00007214FF400720F48D0F8CC000D4BCDE965
:1005C0000130CDE90321032000230B4A0BA1009049
:1005D0000D4801F0C5FF0BB000BD00008C040020E9
:1005E000550600084650204571756174696F6E00AC
:1005F000CC0300204C0D00206D0600084C6F6720D6
:100600005072696E740000008C0C00200EB502A8B8
:1006100001F024FFFFF7AAFF1BE04FF4007001F088
:1006200061F902A800214FF4FA730A46CDE90010DF
:10063000084602F0D5FD4FF4806001F053F902A89E
:1006400000214FF4FA730A46CDE90010084602F083
:10065000C7FDE2E70EB508E002A800210B46012223
:10066000CDE90010084602F0BBFDF5E71FB50024F8
:1006700000BF30E003A8002302AA194600901846E4
:1006800002F012F90446BDF80C0048B9BDF8082084
:1006900021461148FFF7C2FDBDF8080000F0E0F860
:1006A0001CB1204604F0CEFF0024BDF808004FF432
:1006B0007A71484300EB800040004FF4E13190FB39
:1006C000F1F0451C03A800212B460A46CDE9001095
:1006D000084602F085FDCDE7145A00201FB5684694
:1006E00004F05AFC019804B010BD10B54FF4A0609E
:1006F00001F0FAF901F012F801F0CEF84FF41650BB
:1007000004F0BEFC04F0FAFE00F0F0FD00F0BEFDC7
:100710004FF4E13004F04EFF00F016FA10BD10B5B2
:10072000FFF762FD10BD000070B5FFF7D7FF04466C
:1007300003480068B4FBF0F5284602F05FFE70BD88
:10074000DC57000800BFFEE710B500F021F800F00C
:1007500019F810BD10B5002400BF00BFFFF748FD19
:10076000044600BF00BF1021054801F0EFF800BFAC
:1007700000BF2046FFF740FD00BF00BF10BD0000D6
:10078000945A002010B5FFF7E5FF10BD00BFFEE74B
:1007900010B500200249086000F00AF810BD000002
:1007A0002800002001490860704700002800002050
:1007B00010B5FFF793FF04460848006840F08070CA
:1007C000064908600020064948600846006840F075
:1007D000010008602046FFF7E5FF10BDFCED00E0DA
:1007E000001000E00149486870470000001000E078
:1007F00010B50A490A4800F027F968B107490848C6
:1008000000F046F84021074804F098FD012240F22C
:100810002661044804F0DAFD10BD000000802020AD
:10082000A06002400044004010B50A490A4800F0A8
:100830000BF968B10749084800F02AF84021074839
:1008400004F07CFD012240F22661044804F0BEFD64
:1008500010BD000000800028B86402400010014074
:1008600010B504460021094800F02CF800BF0748E5
:1008700000F0E0F80028FAD12146044800F060F9C1
:100880000121024800F01EF810BD0000B8640240CB
:100890000246094B9A4201D2084801E00648103846
:1008A00001F000531BB1064B0B40C36002E0044B48
:1008B0000B408360704700001064024000600240FB
:1008C0007D0F7D0F21B1026842F00102026003E05A
:1008D000026822F00102026070470000016821F006
:1008E000010101600021016041608160C16001611E
:1008F000212141614A49884204D13D21484A103AA8
:1009000091608CE046491831884205D14FF47461FA
:10091000434A103A916082E041493031884205D122
:100920004FF474113E4A103A916078E03C494831E6
:10093000884205D14FF07461394A103A91606EE0F7
:1009400037496031884204D13649354A103AD1607E
:1009500065E033497831884204D13349304A103A4E
:10096000D1605CE02E499031884204D12F492C4A55
:10097000103AD16053E02A49A831884205D14FF09E
:100980003D51274A103AD16049E02949884204D1B3
:100990003D21274A083A116041E025491831884233
:1009A00005D14FF47461224A083A116037E02049BA
:1009B0003031884205D14FF474111D4A083A116054
:1009C0002DE01B494831884205D14FF07461184A27
:1009D000083A116023E016496031884204D1114978
:1009E000134A121F11601AE011497831884204D16C
:1009F0000D490F4A121F116011E00D4990318842D4
:100A000004D10A490A4A121F116008E00849A831B6
:100A1000884204D14FF03D51054A121F11607047C2
:100A2000106002403D000020400F002000003D20EB
:100A300010640240014600200A6802F001020AB177
:100A4000012000E00020704770B50246002000241D
:100A50000025124EB24201D2114B01E00F4B103B68
:100A6000104E0E4036B11E2606EAD124166806EA5C
:100A7000040502E0566906F0800501F000560EB14B
:100A80005C6800E01C68084E344004EA010616B1B8
:100A90000DB1012000E0002070BD00001064024094
:100AA000006002403C0F3C0F7D0F7D0F10B501F040
:100AB00080034BB122B1436943F08003436103E0FB
:100AC000436923F08003436180290BD02AB1036876
:100AD00001F01E042343036004E0036801F01E04D8
:100AE000A343036010BD000010B500220268134B41
:100AF0001A40CC680B6823434C6923438C69234319
:100B0000CC6923430C6A23434C6A23438C6A2343F6
:100B10004C6B23438C6B23431A430260426922F0DF
:100B20000702D1E90B3423431A4342610B69436046
:100B30004B6883608B68C36010BD00003F801CF071
:100B4000416070477047000000B591B001218805F1
:100B500004F0E2F91F48FFF7C1FE00BF1D48FFF790
:100B600069FF0028FAD14FF0006002901A48039004
:100B70001A4804904020059080200690002007909D
:100B80004FF480600890002009900A900B904FF479
:100B900080300C9000200D9003200E9000200F90CC
:100BA000109002A90B48FFF79FFF46208DF8040024
:100BB00001208DF8070003208DF805008DF8060050
:100BC00001A800F055FF012210210248FFF76EFF37
:100BD00011B000BDB864024004100140145A002056
:100BE0002A48016848E0086800F4007088B1086885
:100BF00000F4807068B126480068016024480068ED
:100C00000068234A126850600120214A12689060EF
:100C10007047086800F4007060B1086800F48070E4
:100C200040B91B48006801600120194A12689060B1
:100C3000C96821E0086800F4007060B9086800F431
:100C4000807040B9124800688068401C104A1268E1
:100C50009060C96810E0086800F4807060B10C48CA
:100C6000006841600A4800688068401C084A1268B1
:100C70009060C9680120CBE7086800F000400028B8
:100C8000B1D0034800688068C2E70000140000206B
:100C900018000020014948617047000000900240A0
:100CA00000B50849002000F0B3FA052206490748BC
:100CB00000F078F805220649064800F02FF800F009
:100CC000CFFB00BD2000002050340020EC15002098
:100CD0008C1600204C15002029B1064AD269024327
:100CE000044BDA6104E0034AD2698243014BDA61C2
:100CF000704700000090024030B10749896941F017
:100D00000201054A916105E00349896921F0020168
:100D1000014A9161704700000090024070B50C4696
:100D200013460021124D286000BF18E000EB41126D
:100D30004FF00045156044F2F4555560C1EBC11504
:100D400005EB450504EB850595605D1E8D4204D9D4
:100D500000EB41152035D56000E0D060491C994278
:100D6000E4D3044DE860044D044E356070BD0000CE
:100D700014000020009002401452002018000020AF
:100D800030B10749896941F40051054A916105E094
:100D90000349896921F40051014A916170470000BB
:100DA0000090024030B50C46134600210F4D2860DC
:100DB00000BF15E000EB41124FF480151560C1EB48
:100DC000C11505EB450504EB850595605D1E8D425B
:100DD00004D900EB41152035D56000E0D060491CF6
:100DE0009942E7D3024D286130BD00001000002079
:100DF0000090024001B581B0002000900198009061
:100E000002E00098401E009000980028F9D10CBD27
:100E10000348806940F480100149886170470000F0
:100E2000009002403EB50024684600F027F8009884
:100E300004F06EFC04460CB900203EBD2046DDE9FE
:100E40000021FFF7EBF90648406900F0800020B16F
:100E5000802003494861002088602046EDE70000BB
:100E60000090024000200449096801F0010109B125
:100E7000012000E00020704700900240FEB50546CA
:100E800000200090019002902C48006880680028A3
:100E900045D02A480068006800282ED027480068FE
:100EA000406850B3002400261EE040F2F450844213
:100EB0000FD2234800680068C0F30D40071F204A86
:100EC000126891681F4A10193A46FFF7A7F93C4487
:100ED00000BF4FF000401A490968086018480068D0
:100EE000C06817490860761C144800688068B042E2
:100EF000DBD814480190009411E000200AE04FF084
:100F000000410F4A126811600D490968C9680C4A0E
:100F10001160401C0949096889688142EFD80020A6
:100F20000649096888600549096808600349096835
:100F300048609DE8070085E80700FEBD1800002016
:100F4000140000202052002010B5002407E0FFF715
:100F500069FF04461CB1204604F074FB0024FFF72F
:100F60003FFE0028F3D14020FFF794FE4FF480307D
:100F7000FFF790FE10BD00002DE9F04186B0044659
:100F80000F464FF00008002500200590954E009078
:100F90009548056925F01C0501A803F0FDFF029E98
:100FA0009248864205D39248864202D245F008050F
:100FB0001AE08F48864205D38A48864202D245F01D
:100FC0000C0511E08748864203D38A48864200D246
:100FD0000AE08848864205D38748864202D245F017
:100FE000040501E045F010057F4805614FF400421B
:100FF0000021384600F0A2FA18B9002006B0BDE87A
:10100000F0817E48FFF7F6FE206800284ED000BF32
:101010000098401C00900121384600F0E1F900F0F2
:10102000040018B9764900988842F1D374490098B1
:10103000884201D10020E1E7002000904FF4805267
:101040000021384600F07AFA08B90020D6E700BF40
:101050000098401C00900121384600F0C1F900F0D2
:10106000200018B9664900988842F1D36449009875
:10107000884201D10020C1E70020009010213846AD
:1010800000F0AEF9804608F0040018B14FF400609B
:10109000206201E00020206208F0020010B1002070
:1010A000606116E04FF48040606112E0206AC0F396
:1010B000CF006169C1F34F0140EA010200213846C7
:1010C00000F03CFA08B9002098E76FF07F40FFF786
:1010D00091FE454805684B480540D4E901010843A5
:1010E000E16808432169084361690843A16908432D
:1010F000E1690843216A0843616A0843A16A084319
:10110000E16A0843216B0843616B08430543364895
:101110000560D4E90E010843216C0843616C084363
:10112000A16C0843E16C0843216D0843616D0843DD
:101130002D494860A06D8860E06DC86008468569EB
:101140004FF641700540B4F86010606E40EA01400F
:10115000A16E0843E16E0843216F0843616F0843A5
:10116000054321488561D4E91E0108431E49C86131
:101170002548856925480540D4E920010843D4F86D
:1011800088100843D4F88C100843D4F89010084312
:10119000D4F894100843D4F898100843D4F89C105D
:1011A0000843D4F8A0100843054317488561D4E9E3
:1011B00029010843D4F8AC100843D4F8B010084310
:1011C000D4F8B41040EA8100D4F8B810084340F4D1
:1011D00000000D4908600846006840F08000086083
:1011E00001200BE70087930300800240002D3101AE
:1011F000C00E160200E1F50580D1F008FFFF0F00D8
:10120000FFFF04000F8120FF00900240233FDEF823
:1012100010B50B794C7943EA0422094B03441A6454
:10122000CB781B068C7843EA04434C7843EA0423CA
:101230000C7843EA0402024B03445A6410BD0000D8
:101240000080024030B10749096841F00401054AB5
:10125000116005E00349096821F00401014A1160A9
:10126000704700000080024030B10749096841F032
:101270000801054A116005E00349096821F00801E9
:10128000014A1160704700000080024010B5B0B004
:101290003D208DF8BC0001208DF8BF0000208DF8A6
:1012A000BD008DF8BE002FA800F0E2FB01214FF039
:1012B000606003F031FE00F0C9F800BFFFF7D2FD17
:1012C0000128FBD0684600F0DBF800216846FFF7F4
:1012D00053FE0446012C05D1FFF7E2FC0121024830
:1012E000FFF7FAFC30B010BD400001001CB5022031
:1012F0008DF8040000208DF806008DF8070003200B
:101300008DF8050001214D2003F006FE0121880320
:1013100003F032FE012003F02FFF86200090694683
:101320002A4800F03FF90B220121284800F082F9F9
:101330000B220221254800F07DF90B2207212348CA
:1013400000F078F9322000906946214800F02AF92F
:101350000B2201211E4800F06DF90B2204211C48CC
:1013600000F068F90B220521194800F063F94FF4E9
:10137000D04000906946174800F014F90B2211463E
:10138000144800F057F90B220D21124800F052F9D1
:101390000B220E210F4800F04DF90820009001208B
:1013A0008DF8040069460C4800F0FCF808210A4852
:1013B00000F067F90948FFF71DFD0821064800F015
:1013C00062F90648FFF716FD1CBD00000000024050
:1013D0000008024000180240000C0240A0860100F4
:1013E00018B502460B4600210020009015480169FF
:1013F00001F01C014FF4784000EAC22001434FF491
:10140000F86000EA8310014321F0020141F001017C
:101410000C48016100BF0098401C00900948016918
:1014200001F0010018B1084C0098A042F3D3064C1B
:101430000098A04201D1002018BD0248406980B246
:10144000FAE7000000800240FFFF04000348006844
:1014500040F0010001490860704700000090024020
:1014600000B50120FFF700FFFFF7D2FC0120FFF7D6
:10147000E9FE0120FFF784FC0120FFF73DFC00BDE1
:1014800001210160002141608160C16001614FF470
:101490008041416100218161C1614FF400610162BD
:1014A00049104162002181628021C16200210163F3
:1014B00041634FF0004181630021C1634021016419
:1014C000002141648164C164016541658165C16534
:1014D00001668021416600218166C166016741671E
:1014E0008167C167C0F880104FF00071C0F88410A8
:1014F0000021C0F888104FF40011C0F88C100021B2
:10150000C0F89010C0F89410C0F89810C0F89C1063
:10151000C0F8A0104FF00071C0F8A4104912C0F834
:10152000A8108901C0F8AC104912C0F8B010002111
:10153000C0F8B410C0F8B8107047000038B50346C2
:101540000C460021002000901448016901F01C01A4
:101550004FF4784000EAC32001434FF4F86000EAFA
:101560008410014341F0020141F001010B48426146
:10157000016100BF0098401C00900848016901F01B
:10158000010018B1064D0098A842F3D3044D00980D
:10159000A84201D1002038BD0120FCE700800240B4
:1015A000FFFF0400F0B50A4600210023002400BF1D
:1015B0003DE0012505FA01F3156805EA03049C42A4
:1015C00034D105684F000326BE40B5430560157948
:1015D0004E00B5400668354305601579012D02D0EF
:1015E0001579022D16D185684F000326BE40B543FC
:1015F000856055794E00B5408668354385604568FD
:1016000001268E40B5434560456896798E40B6B256
:1016100035434560C5684F000326BE40B543C560ED
:10162000D5794E00B540C6683543C560491C1029C0
:10163000BFD3F0BDF0B5002300244D07ED0E02FA34
:1016400005F3CE1000F1200555F826504E07F70E91
:101650000F26BE40B543CF1000F1200646F82750B4
:10166000CE1000F1200555F8265045EA0304CE10AF
:1016700000F1200545F82640F0BD0146486980B2DA
:101680007047418370470183704700BFFEE7000049
:101690001FB50F4800F05CF80020ADF804004BF6D1
:1016A000FF70ADF80600A020ADF808004FF4806090
:1016B000ADF80A000001ADF80C000648009069463C
:1016C000034800F075F80121014800F035F81FBD0E
:1016D00000540040801A06001CB54FF44070009082
:1016E00002208DF8040001208DF8060003208DF8FB
:1016F000050001208DF8070069460748FFF752FFF3
:10170000042208210448FFF795FF0422092102481A
:10171000FFF790FF1CBD00000004024010B501213E
:10172000480503F009FC0121022003F0F5FBFFF757
:10173000D3FFFFF7ADFF10BD21B1028842F00102D7
:10174000028004E002884FF6FE731A400280704760
:1017500010B504461348844209D10121480503F01D
:10176000FBFB00214FF4001003F0F6FB18E00E48DD
:10177000844209D10121880503F0EEFB00214FF4DA
:10178000800003F0E9FB0BE00848844208D1012106
:10179000C80503F0E1FB00214FF4000003F0DCFB7F
:1017A00010BD00000054004000580040005C0040A4
:1017B0002DE9FF4704460D460026B1460427DFF811
:1017C000CC80A6884FF6C0700640684603F0E4FB64
:1017D000DDF808802E48B8FBF0F01FFA80F946EAE1
:1017E0000906A68020884FF6FE710840208000265A
:1017F0002849286888420CD828684000B8FBF0F0D7
:1018000087B2042F00DA04273E4309F10100208447
:1018100027E0E8884BF6FF71884206D1286800EB84
:101820004000B8FBF0F087B209E0286800EBC00187
:1018300001EB0010B8FBF0F087B247F48047C7F324
:101840000B0008B947F0010747F4004006434FF486
:10185000967009FB00F04FF47A7190FBF1F0401C98
:101860002084A683208840F00100208026884FF63F
:10187000F5300640A8886989084306432680A88970
:10188000298908432081BDE8FF87000000127A0003
:1018900040420F00A08601001CB50121202003F06A
:1018A0003BFB4FF4C060009001208DF80400002045
:1018B0008DF8060001208DF8070003208DF8050043
:1018C00069460748FFF76EFE4FF400710448FFF7C2
:1018D000DAFE4FF480610248FFF7D5FE1CBD000020
:1018E0000014024070B5044600250848FFF7C5FE05
:1018F000054605EA040020B121460448FFF7C1FE71
:1019000003E021460148FFF7BEFE70BD001402400F
:1019100010B5012000F002F810BD000070B50446BB
:10192000002500BF00BFFEF763FC054600BF00BFF7
:101930000448046000BF00BF2846FEF75DFC00BFFE
:1019400000BF70BD2C00002000BFFEE730B505468B
:101950000C4622460021284600F05EF830BD00000B
:101960003EB500200C4908600C4C02A801214FF440
:1019700040632246CDE9001009490AA000F016F89C
:10198000BDF8080042F21071884203D000BFFEF794
:10199000FDFE00BF3EBD000030000020A45A002024
:1019A000A466002048656170000000002DE9F84F32
:1019B00005460E4617461C46DDE90A894FF0000A27
:1019C00000BF00BFFEF714FC824600BF00BF4346C5
:1019D0003A4631462846009400F00EF800BF00BF9A
:1019E0005046FEF709FC00BF00BF42F21070A9F894
:1019F0000000BDE8F88F000030B5039C0A60651E4A
:101A000015444D608A60034D2D68CD600B61014D1A
:101A1000296030BD300000202DE9F04105460B461D
:101A200094460027002402E03F021F43641C042C5C
:101A3000FAD3604605F00306294646B1344603E072
:101A400001F8013B401E641C08B1042CF8D30A467F
:101A500001E080C2001F0428FBD2114602E001F819
:101A6000013B401E0028FAD1BDE8F081704700001C
:101A700070B5002100230F22C4781CB3174C2468D2
:101A800004F4E064C4F5E064C4F30721C1F1040484
:101A9000E3B20A4144789C40E1B284781440214387
:101AA0000C07210E0E4C05786155047804F01F05D3
:101AB0000124AC4005786D11AD0005F1E025C5F8B5
:101AC000004109E0047804F01F050124AC40054DF5
:101AD0000678761145F8264070BD00000CED00E058
:101AE00000E400E080E100E002490143024A1160A5
:101AF000704700000000FA050CED00E070470000A0
:101B000010B50348006810B101480068804710BD57
:101B10004800002070B5044600F0AEF800204149AE
:101B200008704149087041490870414908604149BD
:101B300008604149087041490870414908704149AD
:101B4000086041490860414908604148006858B14F
:101B50004048056845B13E48066803E0761E00200F
:101B600028602D1D002EF9D100203B4908603B491B
:101B700008603B4908603B4908603B4908603B49B5
:101B800008603B4908603B49087002F05BF802F0CE
:101B900095F8204601F01EFD208800B170BD20465A
:101BA00001F07EFD208800B1F8E7204601F084FDB9
:101BB000208800B1F2E7204601F08AFE208800B1BB
:101BC000ECE7204602F06EF8208800B1E6E72046F8
:101BD00002F034F9208800B1E0E7204602F0DAFB99
:101BE000208800B1DAE7204601F022FD208800B10C
:101BF000D4E7204603F00EF8208800B1CEE7204657
:101C000002F09CFA208800B1C8E7204603F066F88D
:101C1000208800B1C2E701F009FCFFF76FFF00BFA9
:101C2000BCE700005C0000205D0000209000002068
:101C3000F8000020FC000020760000207700002043
:101C40007800002084000020880000208C00002004
:101C5000AC570008A85700083C00002040000020B6
:101C600044000020480000204C00002050000020CC
:101C700054000020BE00002006480068064909689C
:101C800000EB8100054908600846006820F0070065
:101C900008607047A8570008AC57000800010020F2
:101CA00010B500242D480078012800D010BD00BFD9
:101CB000FEF79EFA044600BF2948007828B900BF05
:101CC0002046FEF799FA00BFF0E725480078401E4D
:101CD0002349087008460078002805DD00BF20462B
:101CE000FEF78AFA00BFE1E71E480078002805DD0C
:101CF00000BF2046FEF780FA00BFD7E701F08EFF55
:101D0000194908700846007800EB4000174951F85F
:101D1000200017490860084600681649096888428B
:101D200005D100BF2046FEF767FA00BFBEE71048A6
:101D30000068D0F88C00401C0D490968C1F88C007F
:101D40000D480068401C0C490860FEF7DCFB00BF32
:101D50002046FEF751FA00BF00BFA7E75D00002054
:101D60005C00002090000020770000200475002017
:101D7000FC000020F8000020B40000202DE9F04114
:101D800004460E461546002724B945F6C350288060
:101D9000BDE8F08100BF00BFFEF72AFA074600BF8A
:101DA00000BF10482060666000202062606284F8F6
:101DB0002800E06204F1080001F03BFE204601F03B
:101DC00017FD09480088401C0749088000BF00BF74
:101DD0003846FEF711FA00BF00BF0020288000BF80
:101DE000D6E700004D555458740000202DE9F04707
:101DF00088B00546894617461C46109E4FF0000ADB
:101E00002DB945F6C350308008B0BDE8F0871FB14A
:101E1000B7F5004F02D100E000BF03E045F62560B2
:101E20003080F1E700BF62492868884203D045F658
:101E3000C4503080E8E70CB10020206000BF00BF34
:101E4000FEF7D6F9824600BF00BF95F82800B8B962
:101E5000584800686862012085F828000CB1E86ADB
:101E6000206029465348006801F0DAFC00BF00BF3B
:101E70005046FEF7C1F900BF00BF00203080C3E725
:101E80004C49686A0968884212D195F82800401CBC
:101E900085F828000CB1E86A206000BF00BF5046FA
:101EA000FEF7AAF900BF00BF45F282703080ABE7B1
:101EB00007F4004050B100BF00BF5046FEF79CF948
:101EC00000BF00BF46F2B01030809DE73A4800786E
:101ED00000280ADD00BF00BF5046FEF78DF900BFA5
:101EE00000BF46F6635030808EE7D5F8248098F81E
:101EF00037003049096891F83710884206DD2D48CF
:101F0000006890F83710404602F094F94B460422DE
:101F10002946684601F0E8FC00BF00BF5046FEF7C6
:101F20006BF900BF00BF00F00FF900BF00BFFEF764
:101F30005FF9824600BF00BF1E48006890F8350078
:101F400030B101280CD002281AD0032821D110E08A
:101F50001CB118480068806C2060002030801CE0B4
:101F60001CB114480068806C206046F2A9103080D3
:101F700013E00CB10020206047F2D92030800CE043
:101F80001CB10C480068806C206045F6C25030805F
:101F900003E046F62E60308000BF00BF00BF00BFE8
:101FA0005046FEF729F900BF00BF00BF2CE7000034
:101FB0004D555458F8000020900000202DE9F84FAE
:101FC0000446894615464FF0000B24B945F6C35028
:101FD0002880BDE8F88FB9F1000F03D0B9F5004FA4
:101FE00002D100E000BF03E045F625602880F0E75D
:101FF00000BF52492068884203D045F6C45028806B
:10200000E7E700BF00BFFEF7F3F8834600BF00BF5D
:102010004B49606A096888420AD000BF00BF584631
:10202000FEF7EAF800BF00BF45F281702880D0E7D4
:10203000FEF7D8FB80462834C4F804802078401E80
:10204000207014F8280900280ADD00BF00BF584698
:10205000FEF7D2F800BF00BF45F283702880B8E7D2
:1020600021463748006801F025FC04F1080ABAF857
:10207000080068B90020606284F8280000BF00BF33
:102080005846FEF7B9F800BF00BF00202880A0E73F
:102090002B48006890F837002949096891F83810F2
:1020A000884228D02648006801F0EEFB0646244806
:1020B000006890F83810B14204DA2148006890F8BE
:1020C000380000E0304606461D48006890F83700AA
:1020D000B04210DA1A48006801F056FE184800684D
:1020E00080F83760304601F0B9FD1548006801F00E
:1020F0002DFE14480670DAF8000087686762012038
:1021000084F828002146384601F08AFB00231A464D
:1021100039462046CDF8008001F0FEFC00BF00BF2C
:102120005846FEF769F800BF00BF09F4004008B93F
:1021300000F00AF80020288000BF4AE74D555458A7
:10214000F80000207600002010B500242048007818
:10215000002800DD10BD1F480078002800DDF9E7E9
:1021600000BFFEF745F8044600BF01F057FD1A49CD
:1021700008700846007800EB4000184951F820002C
:10218000174908600846006816490968884205D161
:1021900000BF2046FEF730F800BFDBE710480068BC
:1021A000D0F88C00401C0E490968C1F88C000E481C
:1021B0000068401C0C490860FEF7A0F900BF2046EB
:1021C000FEF71AF800BFBFF36F8F00BFC2E7000031
:1021D0005C000020900000207700002004750020A3
:1021E000FC000020F8000020B400002070B5044678
:1021F000002514480078012803D045F68960208026
:1022000070BD11480078FA2803DB45F209202080D0
:10221000F6E700BF00BFFDF7EBFF054600BF00BFBC
:1022200009480078401C0849087001F0DBFD00BF38
:1022300000BF2846FDF7E0FF00BF00BF0020208060
:1022400000BFDDE75D0000209000002070B504466F
:1022500000251C480078012803D045F689602080BD
:1022600070BD1948007818B946F664502080F7E729
:1022700000BF00BFFDF7BCFF054600BF00BF12480E
:102280000078401E104908700846007800280ADDD2
:1022900000BF00BF2846FDF7AFFF00BF00BF46F6F6
:1022A00063502080DCE701F0ABFD00BF00BF284693
:1022B000FDF7A2FF00BF00BFFFF746FF0020208010
:1022C00000BFCDE75D0000209000002010B504465F
:1022D00012480078E8B901F0A1FC114908700846DD
:1022E0000078104908700E48007800EB40000E4955
:1022F00051F820000D490860084600680C49086044
:10230000012006490870FEF7C1F843F699202080A5
:1023100002E045F68A60208010BD00005D000020CC
:10232000770000207600002004750020FC000020CB
:10233000F80000202DE9F04107464FF0000800BFEB
:1023400000BFFDF755FF804600BF00BF00203B499E
:1023500008803B4908603B4908603B4908603B49AD
:1023600008603B49088100BF00BF4046FDF744FFBD
:1023700000BF00BF00BF00BFFDF73AFF804600BFAF
:1023800000BF3448046800BF00BF4046FDF734FF7B
:1023900000BF00BF21E000BF00BFFDF729FF80465E
:1023A00000BF00BF00207434E06320602063A061A0
:1023B000A082E0826062A062FEF714FA2062743CA0
:1023C00004F160060020B081D4F8B84000BF00BF1F
:1023D0004046FDF711FF00BF00BF002CDBD100BF5E
:1023E00000BFFDF705FF804600BF00BF1A48056823
:1023F00000BF00BF4046FDF7FFFE00BF00BF12E078
:1024000000BF00BFFDF7F4FE804600BF00BF05F12E
:1024100020060020B081AD6900BF00BF4046FDF737
:10242000EBFE00BF00BF002DEAD102F0E9FA02F096
:10243000FBFC00203880BDE8F08100009E000020F9
:10244000B0000020C4000020E80000208800002028
:10245000F8740020B80000207C000020F8B5044685
:1024600000266946324800F0FBFDBDF8000018B1B7
:10247000BDF800002080F8BD6A460021022000F06F
:102480005DFEBDF8000018B1BDF800002080F2E745
:1024900000BF00BFFDF7ACFE064600BF00BF002036
:1024A0002449086000BF00BF3046FDF7A5FE00BF0D
:1024B00000BF00252048006820490968884205D9E6
:1024C0001D4800681D490968B0FBF1F525B91A4897
:1024D00000680A21B0FBF1F56A460021284600F0A9
:1024E0002DFE6946124800F0BFFABDF8000018B191
:1024F000BDF800002080BEE700BF00BFFDF778FEFA
:10250000064600BF00BF00200D490860094800686A
:102510000C49086001200C49087000BF00BF30461C
:10252000FDF76AFE00BF00BF0020208000BFA2E7C9
:10253000B4790020A0000020DC570008C457000830
:10254000B0000020A4000020AC00002010B503481B
:10255000006810B101480068804710BD4C000020A1
:102560002DE9FF4F87B004469046DDE91BA5DDE964
:102570001496179F002003902CB947F2AD102880C5
:102580000BB0BDE8F08FB8F1000F03D147F24F1048
:102590002880F5E71EB946F62F602880F0E75048FE
:1025A0000068874203D246F630602880E8E7169834
:1025B000B84203D346F631602880E1E7B9F1400F15
:1025C00003D346F273202880DAE7B9F13F0F06D132
:1025D0004448844203D046F273202880D0E7204646
:1025E00001F0E8FE002028800AF0010090B10AF016
:1025F000020078B105960020069008E000210598B9
:1026000001600598001D05900698401C06900698EC
:10261000B842F3D3169806EB80000490CDE9007A17
:1026200032464046049B0A9900F0B8FB0590C4F876
:1026300028800A98E0620898206284F8379084F82D
:102640003890059820600498A0601A9860606662CF
:102650002764A4F844A04FF0000B08E0002104F127
:10266000780040F82B100BF1010000F0FF0BBBF1DC
:10267000000FF3D004F16000189901F0B1F8204682
:1026800000F036F800BF00BFFDF7B2FD039000BFB9
:1026900000BF94F8370001F0E1FA204601F056FB44
:1026A000204601F03DFE10480088401C0E4908807D
:1026B0000E480078012807D000BF00BF0398FDF73F
:1026C0009BFD00BF00BF5BE700BF00BF0398FDF7A5
:1026D00093FD00BF00BFFFF737FD00BF50E70000CC
:1026E000D857000838740020BC0000205D0000208E
:1026F00010B504460348006818B12046014909682E
:10270000884710BD3C0000202DE9F04104460E46EC
:102710004FF000085B48844204D147F24C103080EF
:10272000BDE8F0817CB900BF00BFFDF761FD8046C8
:1027300000BF00BF5448046800BF00BF4046FDF71B
:102740005BFD00BF00BF00BF00BFFDF751FD80462D
:1027500000BF00BF94F83600082860D2DFE800F020
:1027600004090E10080A0F11204601F00DFB61E06C
:1027700060E000BF204602F017F95BE000BF00BF39
:1027800000BF94F8340008283BD2DFE800F00407CB
:1027900005080E090A0600BF00BF33E000BF00BFF6
:1027A00000BF204601F07DF92CE0206BC068456A2F
:1027B00015F8377F204601F074F928786978373D9D
:1027C000884212D095F8370094F8371088420CD11F
:1027D000284601F059F8074695F83800B84202DA61
:1027E00095F8380000E038460746002084F83400A9
:1027F00095F83700B84203D03946284601F01AFD53
:1028000000E000BF00BF94F83600032803D094F81E
:102810003600072802D1204602F0C6F80AE000BFC1
:1028200000BF4046FDF7E8FC00BF00BF46F62D6044
:10283000308075E700BFE06B10B1204600F0F4FF78
:1028400004F1600000F076FF204600F021F82046F9
:1028500001F07EFD0D480088401E0C49088020468E
:1028600001F0A8FDFF2084F8360000BF00BF4046FD
:10287000FDF7C2FC00BF00BF00203080FFF764FC02
:1028800000BF4DE738740020F8000020BC00002095
:1028900010B504460348006818B12046014909688C
:1028A000884710BD400000202DE9F05F80460F46AC
:1028B00016461C460A9D4FF0000B2EB946F2D52055
:1028C00028800020BDE8F09F1FB1B7F5004F02D16E
:1028D00000E000BF04E045F6256028800020F1E715
:1028E00000BF0CB10020206000BF00BFFDF780FCDE
:1028F000834600BF00BF5A48006800F160092B46BC
:1029000022463146484600F037FF82462888F0B913
:10291000A4B1FDF767FF2168401A514909680867AB
:102920004F480068406F4E490968096F884205D2D8
:102930004B480068006F4A490968486700BF00BFFC
:102940005846FDF759FC00BF00BF5046BAE707F4F0
:10295000004058B146F2B010288000BF00BF584672
:10296000FDF74AFC00BF00BF0020ABE73D48007800
:1029700000280BDD00BF00BF5846FDF73DFC00BF3F
:1029800000BF46F66350288000209BE743460222A2
:102990000021084600F0A8FF00BF00BF5846FDF721
:1029A0002BFC00BF00BFFFF7CFFB00BF00BFFDF750
:1029B0001FFC834600BF00BF2948006890F835001F
:1029C00020B101282AD0032832D132E024480068FF
:1029D000D0F858A022480068B0F85C003080D4B12C
:1029E0001F480068806C2060FDF7FCFE1C490968E8
:1029F000896C401A1A490968086719480068406FCD
:102A000017490968096F884205D215480068006FA8
:102A10001349096848670020288017E04FF0000A32
:102A20000020308004B1206046F2A91028800DE01B
:102A300000BF4FF0000A002030801CB10848006839
:102A4000806C206047F2D920288000BF00BF00BF03
:102A500000BF5846FDF7D0FB00BF00BF504631E72E
:102A6000F80000209000002070B504460D460026B6
:102A700000BF00BFFDF7BCFB064600BF00BF1CB196
:102A80000D48006884420AD100BF00BF3046FDF700
:102A9000B3FB00BF00BF47F25710288070BD00BFD6
:102AA00000BF3046FDF7A8FB00BF00BF2946204607
:102AB00001F0DEFC00BFF1E7F800002010B504468D
:102AC0000348006818B1204601490968884710BDCD
:102AD000440000202DE9F04780460E4614461D466E
:102AE0004FF000091EB1B6F5004F02D100E000BF63
:102AF00005E045F6256028800020BDE8F08700BF8E
:102B00000CB10020206000BF00BFFDF771FB8146C3
:102B100000BF00BF5F480068C06CA8B35D48006894
:102B2000C06C401E5B490968C8645A480068C76C9D
:102B30001CB158480068806C2060FDF753FE554971
:102B40000968896C401A53490968C1F8A0005148C6
:102B50000068D0F8A4004F490968D1F8A010884255
:102B600007D24C480068D0F8A0004A490968C1F86B
:102B7000A40000BF00BF4846FDF73EFB00BF00BFFA
:102B8000002028803846B8E7FFE706F4004058B137
:102B900000BF00BF4846FDF72FFB00BF00BF46F255
:102BA000B01028800020A8E73B48007800280BDD03
:102BB00000BF00BF4846FDF71FFB00BF00BF46F641
:102BC00063502880002098E74346072200210846EA
:102BD00000F08AFE00BF00BF4846FDF70DFB00BFB6
:102BE00000BFFFF7B1FA00BF00BFFDF701FB814650
:102BF00000BF00BF2748006890F8350020B10128C9
:102C000026D0032834D12CE0FCB122480068806C27
:102C10002060FDF7E7FD1F490968896C401A1D49CE
:102C20000968C1F8A0001B480068D0F8A400194941
:102C30000968D1F8A010884207D216480068D0F879
:102C4000A00014490968C1F8A4000020288013E0FE
:102C50001CB110480068806C206046F2A9102880E2
:102C60000AE00CB10020206047F2D920288003E060
:102C700046F62E60288000BF00BF06480068C76C7B
:102C800000BF00BF4846FDF7B7FA00BF00BF384697
:102C900033E70000F8000020900000202DE9F0410B
:102CA00006460D4614461DB1B5F5004F02D100E0B1
:102CB00000BF05E045F6256020800020BDE8F081DA
:102CC00000BFFDF78FFD8046234642462946304629
:102CD00001F05AFC07463846F0E700002DE9F047BE
:102CE00004460E4617461D464FF0000A26B946F226
:102CF000D5202880BDE8F0871FB946F2D52028806E
:102D0000F8E700BF00BFFDF773FA824600BF00BFBF
:102D10000CB921480468206868B900BF00BF50465C
:102D2000FDF76AFA00BF00BF00203060386047F24C
:102D300052102880DEE794F8440000F0010068B9E2
:102D400000BF00BF5046FDF757FA00BF00BF00208C
:102D50003060386047F254102880CBE700BF00BFD6
:102D60005046FDF749FA00BF00BF4FF00008D4F805
:102D7000249003E009F1040908F10108D9F80000E2
:102D80000028F7D0C6F80080206CA0EB080038605F
:102D90000020288000BFADE7F8000020F0B5044611
:102DA000DDE9055602EB850020F007004FF0807C3E
:102DB000071F3846C7F800C0071F38463C60DFF8D9
:102DC00034C2071F3846C7F800C04FF0123C071F37
:102DD0003846C7F800C04FF0033C071F3846C7F815
:102DE00000C04FF0023C071F3846C7F800C0071F5D
:102DF00038463B60071F384639604FF0113C071FCB
:102E00003846C7F800C04FF0103C071F3846C7F8D7
:102E100000C04FF0093C071F3846C7F800C04FF00C
:102E2000083C071F3846C7F800C04FF0073C071F93
:102E30003846C7F800C04FF0063C071F3846C7F8B1
:102E400000C04FF0053C071F3846C7F800C04FF0E0
:102E5000043C071F3846C7F800C006F00407002FDF
:102E60007ED04FF0007C071F3846C7F800C0DFF85F
:102E700088C1071F3846C7F800C0DFF880C1071FA8
:102E80003846C7F800C0DFF878C1071F3846C7F8D2
:102E900000C0DFF870C1071F3846C7F800C0DFF870
:102EA00068C1071F3846C7F800C0DFF860C1071FB8
:102EB0003846C7F800C0DFF858C1071F3846C7F8C2
:102EC00000C0DFF850C1071F3846C7F800C0DFF860
:102ED00048C1071F3846C7F800C0DFF840C1071FC8
:102EE0003846C7F800C0DFF838C1071F3846C7F8B2
:102EF00000C0DFF830C1071F3846C7F800C0DFF850
:102F000028C1071F3846C7F800C0DFF820C1071FD7
:102F10003846C7F800C0DFF818C1071F3846C7F8A1
:102F200000C04FF0834C071F3846C7F800C0DFF8D9
:102F300004C1071F3846C7F800C0DFF8FCC0071FF0
:102F40003846C7F800C0DFF8F4C0071F3846C7F896
:102F500000C0DFF8ECC0071F3846C7F800C000E02B
:102F600047E0DFF8E0C0071F3846C7F800C0DFF8C9
:102F7000D8C0071F3846C7F800C0DFF8D0C0071F09
:102F80003846C7F800C04FF0824C071F3846C7F8D4
:102F900000C0DFF8BCC0071F3846C7F800C0DFF824
:102FA000B4C0071F3846C7F800C0DFF8ACC0071F21
:102FB0003846C7F800C04FF0814C071F3846C7F8A5
:102FC00000C0DFF898C0071F3846C7F800C04FF0B0
:102FD000804C071F3846C7F800C04FF07E5C071FC3
:102FE0003846C7F800C04FF0000C071F3846C7F836
:102FF00000C0F0BD714500080000F8410000F0413C
:103000000000E8410000E0410000D8410000D0414C
:103010000000C8410000C0410000B8410000B041BC
:103020000000A8410000A04100009841000090412C
:1030300000008841000070410000604100005041E4
:1030400000004041000030410000204100001041DC
:103050000000E0400000C0400000A04000004040F0
:1030600070B505460C460648854203D147F25B1011
:10307000208070BD2146284601F068FB00BFF8E7BC
:103080003874002010B52948006890F8440000F01A
:10309000040020B1254909680868FDF7E1F92448D2
:1030A000006890F8440000F0040020B1204909684D
:1030B0000868FDF7E2F91F48006810B11D48006874
:1030C0008047FDF78FFB04461848006818490968D7
:1030D000884215D015480068D0F89400201A13498A
:1030E0000968C1F8900011480068D0F898000F49AD
:1030F0000968D1F8901008440C490968C1F8980093
:103100000B480068C0F8944008480068D0F8B00048
:1031100009490968884205D20748006803490968D7
:10312000C1F8B00000200449086010BDF80000207C
:10313000FC000020500000208C0000202DE9F04110
:1031400005460E461446002723480078002804DD73
:1031500046F663502080BDE8F08136B1022E05D0DE
:10316000042E0AD0082E09D101E000BF00BF1DB90E
:1031700047F27E202080EEE704E003E045F625607C
:103180002080E8E700BF00BF00BFFDF731F8074629
:1031900000BF00BF2346324629461048006801F0B0
:1031A000A5FB208838B100BF00BF3846FDF724F8E2
:1031B00000BF00BFCFE70948006800F0E5FD00BF91
:1031C00000BF3846FDF718F800BF00BFFEF7BCFF90
:1031D0000020208000BFBEE790000020F800002003
:1031E0002DE9FF5F05460E4617469846DDE90EA419
:1031F000002000905A480078002804DD46F663500D
:103200002080BDE8FF9F0AF00E0BBBF1000F09D034
:10321000BBF1020F07D0BBF1040F10D0BBF1080FB8
:103220000ED101E000BF00BFB8F1000F06D12FB9E9
:1032300026B91DB947F27E202080E2E704E003E0D2
:1032400045F625602080DCE700BF2AF01E0008B1AB
:10325000012000E0002003900398012803D145F6E7
:1032600025602080CDE70AF01000102802D100BFB1
:10327000012000E0002002900298012818D0B8F543
:103280007A7F03D347F27B202080BAE73B2F03DD10
:1032900047F27A202080B4E73B2E03DD47F2792005
:1032A0002080AEE7632D12DD47F278202080A8E76A
:1032B00042F20F70864203DD47F279202080A0E7BA
:1032C000B5F57A7F03DB47F27820208099E725481F
:1032D000D0F800904FF4FA70B0FBF9F0404400FBD6
:1032E00009F04FF47A71B0FBF1F14FF4616068437B
:1032F000C6EB061200EB8200384400FB0910019077
:10330000019838B300BF00BFFCF772FF009000BF08
:1033100000BF23465A4614480199006801F0E6FAB6
:10332000208838B100BF00BF0098FCF765FF00BFE0
:1033300000BF66E70C48006800F026FD00BF00BF34
:103340000098FCF759FF00BF00BFFEF7FDFE00200C
:10335000208002E047F27E20208000BF51E700007D
:1033600090000020DC570008F800002008B500F0AD
:103370001FF86A4600210A48FFF790FC09480068D8
:10338000401E084908600846006838B906480068C9
:1033900008606A4600210548FFF780FC08BD000070
:1033A000C4780020F4000020F0000020B479002050
:1033B00010B50348006810B101480068804710BD8F
:1033C0005400002010B5002400BF00BFFCF710FF20
:1033D000044600BF00BF08480078401C064908703A
:1033E00000BF00BF2046FCF707FF00BF00BFFFF78C
:1033F000BDFFFEF755FC10BD5C00002001464A1ED3
:103400004FF0E0235A61084A106820F07F4000BF67
:1034100010601A46126942F005021A611A461269D2
:1034200042F002021A61704720ED00E0244A25496B
:10343000254A264A2649274A2748284A284A294A07
:10344000294A2A482A482B4A2B482C4A2C482D4ADC
:103450002D482E482E482F482F4A304A304A3148AE
:10346000314A324A32483348334834483448354880
:103470003548364A364A374A374A3848384839484C
:10348000394A3A4A3A4A3B483B483C483C493D481D
:103490003D4A3E4A3E4A3F4A3F4A404A404A4148E6
:1034A000414A424A42484348434A444A4448454ABA
:1034B000454A4648464800BF00BF00BF704700006D
:1034C00010580008785900081158000812580008D0
:1034D00014580008185800081C580008195800080B
:1034E0004458000845580008465800084858000845
:1034F0004A5800084E5800085058000870580008F4
:103500007258000874580008765800087858000867
:103510007A5800087C580008AC580008AD580008DC
:10352000AE580008B0580008B2580008B358000858
:10353000B4580008B6580008B8580008BA5800082F
:10354000BC580008BE580008C0580008F0580008D1
:10355000F1580008F2580008F3580008F458000821
:10356000F6580008F85800082059000821590008AA
:103570002259000823590008245900082659000838
:10358000285900082C5900082D5900082E59000808
:103590002F590008305900083159000832590008E5
:1035A00033590008345900083659000837590008C3
:1035B000385900083A5900083C5900083D5900089C
:1035C00040590008705900087159000872590008E4
:1035D000745900080021034A1160034A11800180D8
:1035E000704700006000002064000020002419E003
:1035F00000BF00BFFCF7FCFD044600BF00BF0A4847
:103600000068401C0849086008480068401C0749D9
:10361000086000BF00BF2046FCF7EEFD00BF00BF02
:10362000FEF76EFAE4E7000058000020A00000203A
:1036300010B58AB0044600200E4908600B20002116
:103640000591CDE90704069108460B4909680B4A24
:1036500012680B4B1B68CDE90132CDE903103F2006
:103660000023084A08A100900C48FEF779FF0AB031
:1036700010BD000058000020845700088057000843
:103680007C570008ED35000875432F4F532D4949ED
:10369000492049646C65205461736B0038740020C4
:1036A0000021034A1160034A118001807047000025
:1036B000680000206C00002070B501461A4D2D688E
:1036C0001DB945F21E750D8070BD184D2D881DB9B0
:1036D00045F21D750D80F7E7134D28682A681032F2
:1036E000124D2D886D1EACB2002308E0026000254B
:1036F00045600581C560103010325D1CABB2A3423D
:10370000F4DB0025056045600581C560064D2D6828
:10371000074E3560054D2D88B5800025F580358133
:103720000D8000BFD0E70000BC570008B457000868
:10373000F874002010B5014648894B89002B17DD2D
:103740000A680C4B1B6813600A4C4B6823602346C5
:10375000DB884C891B1B074CE38023469B884C89E4
:103760002344044CA38000234B818B810B604B606E
:1037700010BD0000F8740020F0B504460D466089C5
:1037800040B90020288002B1106046F292501880A3
:103790000020F0BD61684E68088928800AB1C868B9
:1037A000106008686060606818B90020206060815F
:1037B00002E06089401E6081084800680860074890
:1037C00001608088401C054FB8803846C088401E84
:1037D000F880002018803046DBE70000F8740020F5
:1037E00001810022428182810260426070470000B4
:1037F00009A1C161002141610849096811B900218D
:10380000816105E0054909688161044909684861E9
:10381000024908607047000020000000700000208E
:10382000C26B0A62C16370472DE9F8430546EC6B31
:1038300026E0D4F82090FCF7D5FF0646E662214644
:10384000284600F037F804F10808B8F8080020B955
:10385000002084F82800606211E0D8F80000876832
:103860006562012084F8280021463846FFF7D8FF1A
:1038700000231A4639462046009600F04DF94C4682
:10388000002CD6D1BDE8F88330B504463F2004F1C2
:103890003C010BE00D68AB682BB19D6895F83720B3
:1038A000824200DA10460D6805F120010D68002DF6
:1038B000F0D130BD024602F13C0002E0036803F1A2
:1038C000200003688B42F9D103681B6A03607047CC
:1038D0000021034A1160034A1180018070470000F3
:1038E00070000020740000202DE9F04105460C46D0
:1038F00016461F461548006880F8346000201349BA
:10390000096881F8350039461048006800F07CFCF1
:103910006CB104F10808EC60012229460B480068EC
:1039200000F016F82946404600F088F807E000202D
:1039300006490968A1F84600044909680863034874
:103940000168204600F018F8BDE8F081F80000207A
:1039500010B5A0F84620016300230AE000244C6063
:103960000C600C614C610C83CC61886020315C1C64
:10397000A3B29342F2DB10BD30B548B14568C1F83F
:10398000BC5000F10804226893681D6AC56113E009
:1039900091F83450022D02D0072D08D103E007A57D
:1039A000C1F8BC5007E007A5C1F8BC5003E008A56A
:1039B000C1F8BC5000BF00BF30BD00005461736B44
:1039C000205100005461736B2053656D00000000AE
:1039D0002000000030B507A5C1F8BC5000F1080474
:1039E00022681AB193681D6AC56101E001A5C5612D
:1039F00030BD0000200000002DE9F0410446256B99
:103A0000B4F8467011E0D5F80C8008F1080630894A
:103A1000012807D92946304600F05DF8294630468E
:103A200000F00CF82035781E87B2002FEBD1BDE8EE
:103A3000F08100210160416001817047F0B58E681E
:103A400096F8375007893FB90127078100274F6053
:103A50000F600160416023E007897F1C07810268D5
:103A600006E0946894F83770AF4200DD02E05268D7
:103A7000002AF6D100BF32B900274F6043680B60BF
:103A8000596041600CE017682FB9116000270F6082
:103A90004A60016004E013680B604A60596011607D
:103AA000F0BD2DE9F0410446256BB4F846600AE00C
:103AB000D5F80C8008F108072946384600F00BF8C5
:103AC0002035701E86B2002EF2DC0020A4F84600DD
:103AD0002063BDE8F08110B50489012C03D10024D6
:103AE0000460446011E00C6824B94A680024146042
:103AF00002600AE04C6824B90B6800245C604360F3
:103B000003E00B684A685A6013600489641E0481EC
:103B100000244C600C6010BD2DE9F84306460C46AD
:103B200017469846089D94F8360008285BD2DFE8CF
:103B300000F0040508090607323300BF00BF00BFCC
:103B400052E000BF94F83400032807D143463A46B8
:103B500021463046009500F04AF803E0A765A4F836
:103B60005C80A56436B12046FFF79BFF21463046B6
:103B7000FFF730FF94F83600032802D1204600F00A
:103B800013FF204600F0ACF800203434A0706070C1
:103B900004F8340928E000BF94F83400032807D162
:103BA00043463A4621463046009500F020F803E0AF
:103BB000A765A4F85C80A56436B12046FFF771FFC5
:103BC00021463046FFF706FF94F83600072802D159
:103BD000204600F0E9FE04203434A070002060701C
:103BE00004F8340900E000BF00BFBDE8F883F0B579
:103BF0000446059E086BB1F846500AE0C768A74224
:103C000004D1046142610383C66104E020306F1E69
:103C1000BDB2002DF2DC00BFF0BD000070B5002584
:103C2000074C03E005F12000C5B2241D20680028E0
:103C3000F8D02068FCF7E7FA2844C5B2284670BDE2
:103C400034000020002004E00021034A42F8201044
:103C5000401C0228F8D370473400002030B54209D8
:103C600000F01F030121C3F11F04A140034C54F8CD
:103C700022400C43014D45F8224030BD3400002065
:103C800030B5420900F01F030121C3F11F04A14018
:103C9000034C54F822408C43014D45F8224030BD7E
:103CA000340000200021034A1160034A1180018082
:103CB000704700007C0000208000002000210AE006
:103CC00001EB4102054B03EB8200002202810260FE
:103CD00042604A1CD1B24029F2D3704704750020DB
:103CE00010B5044694F83700FFF7B8FF94F8370092
:103CF00005490978884203D1204600F027F802E000
:103D0000204600F003F810BD7600002010B590F8B2
:103D1000373003EB43030C4C04EB83010B893BB9B5
:103D200001230B810023C36003610860486009E040
:103D30000B895B1C0B810B68C360002303610A685D
:103D40001061086010BD00000475002010B590F8E7
:103D5000373003EB43030B4C04EB83010B893BB976
:103D600001230B810023C36003610860486008E001
:103D70000B895B1C0B810023C3604A680261D06021
:103D8000486010BD047500202DE9F041054695F806
:103D9000370000EB4000124901EB80042F69EE6808
:103DA00087B946B9002020812060606095F837000F
:103DB000FFF766FF0EE02089401E20810020306161
:103DC000266007E02089401E2081FE600EB96760F2
:103DD00000E0376100202861E860BDE8F081000064
:103DE0000475002010B504480078012803D1FCF7C1
:103DF000F9FC0249086010BD9000002084000020FA
:103E000010B50A48007880B9FCF7ECFC084909684D
:103E1000441A08480068A04201D2064804600648D7
:103E20000068A04201D20448046010BD9000002048
:103E300084000020880000208C0000200021034A1C
:103E40001160034A11800180704700009400002037
:103E50009800002086B00020009006E0A84909687C
:103E6000480001AA0021FFF769F9A6480078012857
:103E7000F4D101A8FEF75EFA0027A3480068A04924
:103E80000968884205D9A04800689D490968B0FBC7
:103E9000F1F727B99C4800680A21B0FBF1F72EE141
:103EA000FCF7A0FC804600BF00BFFCF7A1F9009022
:103EB00000BF00BF954800689549086000209349FD
:103EC000086000BF00BF0098FCF796F900BF00BF74
:103ED000904800688E490968884248D98D48006832
:103EE0008D49884205D242F2107003900120029061
:103EF00023E0884800688949884205D24FF47A70E7
:103F000003900A20029018E08248006884498842A1
:103F100003D26420039002900FE07E48006881493C
:103F2000884205D20A2003904FF47A70029004E090
:103F30000120039042F210700290764801680298C6
:103F4000B1FBF0FA7249039809684843B0FBFAF0F4
:103F500042F21071081A7449088074480088098870
:103F6000884208DA704800887049088003E042F20D
:103F700010706D490880FEF7E9FA002500BF00BF08
:103F8000FCF736F9009000BF00BF6948046800BF25
:103F900000BF0098FCF730F900BF00BF26E000BF6B
:103FA00000BFFCF725F9009000BF00BF54F8980F40
:103FB0006060002044F8980900BF00BF0098FCF73B
:103FC0001BF900BF00BFD4F89C00054400BF00BF30
:103FD000FCF70EF9009000BF00BFD4F8B84000BF56
:103FE00000BF0098FCF708F900BF00BF002CD6D135
:103FF00045B34948854205D242F2107005904FF012
:10400000010B1BE04548854205D24FF47A700590BC
:104010004FF00A0B12E04248854203D2642005901B
:1040200083460BE03F48854204D20A2005904FF4B6
:104030007A7B03E00120059042F2107BB5FBFBF098
:10404000049003E0002005900120049000BF00BF11
:10405000FCF7CEF8009000BF00BF3548046800BFF1
:1040600000BF0098FCF7C8F800BF00BF2BE0D4F8F1
:104070009C00059948430499B0FBF1F086B242F2E6
:104080001070864200D90646A4F88860B4F88A0009
:10409000B04201DAA4F88A6001AB04F1A802111D54
:1040A0002046FEF71BFE00BF00BFFCF7A1F8009002
:1040B00000BF00BFD4F8B84000BF00BF0098FCF7B5
:1040C0009BF800BF00BF002CD1D11A48007801280E
:1040D00005D100201749087001A8FEF72BF9FCF75D
:1040E00081FBA0EB080914480068484502D2124839
:1040F000C0F8009001AA00213846FFF71FF8CFE66C
:10410000C4570008AC000020DC570008A0000020C5
:10411000A8000020A4000020801A060000093D002D
:10412000005A62020084D7179C0000209E000020E5
:10413000B80000209A000020B000002010B58AB01E
:10414000044600201F4908601F4908601F49086095
:104150001F4908701F4908701F48006820B946F6BB
:104160002B6020800AB010BD1C4800681C490968FB
:10417000884203D246F62C602080F3E71948007885
:104180003F2803D346F62A602080EBE70320002176
:104190000591CDE907040691084610490968124ABD
:1041A00012680D4B1B68CDE90132CDE903100D48B3
:1041B000007800230D4A0EA100901248FEF7D0F9B6
:1041C00000BFCFE7A0000020A8000020A40000202E
:1041D000AC0000209A000020C8570008D057000803
:1041E000D8570008C0570008CC570008553E0008B3
:1041F00075432F4F532D49494920537461742054FE
:1042000061736B000478002070B504460D4645B11B
:104210002A462146064800F025FB032084F8360094
:1042200002E0022084F836002046FFF7ADFD70BDA5
:10423000D00000202DE9F04104460D4600BF0026C5
:1042400094F8377094F8360008285FD2DFE800F061
:1042500004191E1F1A1B20212046FFF795FD84F824
:10426000375094F83700FFF7F9FC2C480068844277
:1042700003D12046FFF74AFD02E02046FFF766FD26
:1042800046E000BF00BF84F8375041E000BF00BFE8
:1042900000BF84F8375094F83400082831D2DFE8A2
:1042A00000F0300431050B06073200BF00BF00BF2D
:1042B0002046FFF7A1FB27E02046FFF79DFB206B80
:1042C000C068466AAF4205DD96F83700A84217DCA1
:1042D000002615E096F83700B84211D13046FFF7B6
:1042E000D3FA054696F83800A84202DA96F8380064
:1042F00000E02846054696F83700A84200D100267F
:1043000002E000BF00BF00BF00BF01E0BDE8F081D8
:1043100000BF3446002C92D100BFF7E7F800002020
:104320000021C0F8B4100949096819B90021C0F882
:10433000B81007E005490968C0F8B81003490968D2
:10434000C1F8B4000149086070470000B8000020BF
:10435000D0F8B420D0F8B8104AB90D4B196011B19B
:104360000023C1F8B4300023C0F8B8300FE029B9F9
:104370000023C2F8B830C0F8B43008E0C2F8B81072
:10438000C1F8B4200023C0F8B830C0F8B43070478A
:10439000B80000200021044A1160044A1180044A38
:1043A0001160018070470000B8000020BC000020B0
:1043B000B400002070B5044600202060A06060605A
:1043C000E06020616061A061E06126A020620020C1
:1043D0006062A062E062A064A065A4F85C000021B5
:1043E00004F16000FFF7FCF9002020676067E067D8
:1043F000A4F88400C4F88000002506E0002104F140
:10440000780040F82510681CC5B2002DF6D00020B9
:104410003434A061E0662067E06084F85200A06751
:1044200060672082E0612062A4F85400A4F856007E
:10443000A065E065FCF7D6F90646266600206066B2
:10444000E06720706070A0704020E0702071002054
:10445000A060C4F88000C4F8840004A0C4F88800F8
:10446000343C70BD3F5461736B00000020000000BD
:1044700070B504460D46002600BF00BFFBF7B8FE2E
:10448000064600BF00BF0020288094F836000828A8
:104490005ED2DFE800F0040506071227394B00BFA3
:1044A00000BF00BF00BF00BF3046FBF7A5FE00BF46
:1044B00000BF47F25310288055E014F8860F401EC5
:1044C000207014F8860928B9002084F836002046A8
:1044D000FFF706FC00BF00BF3046FBF78DFE00BFB4
:1044E00000BF40E014F8860F401E207014F88609C3
:1044F00010B9012084F8360000BF00BF3046FBF73A
:104500007BFE00BF00BF2EE014F8860F401E207017
:1045100014F8860910B9022084F8360000BF00BFE5
:104520003046FBF769FE00BF00BF1CE014F8860FA1
:10453000401E207014F8860910B9032084F8360054
:1045400000BF00BF3046FBF757FE00BF00BF0AE0C8
:1045500000BF00BF3046FBF74FFE00BF00BF46F66E
:104560002D60288070BD00BFFDF7EEFD00BFF9E7AC
:1045700008B504480068FEF7A1FA69460020FEF776
:10458000C3F808BDF80000202DE9F843044688462A
:1045900017461D464FF0000900BF00BFFBF728FE7D
:1045A000814600BF00BF0CB967480468A7640020BB
:1045B000288094F83600082876D2DFE800F0040559
:1045C00050510607525300BF00BF00BF042001280E
:1045D00004D0022813D0042833D122E0E06CFF2855
:1045E0000CD100BF00BF4846FBF706FE00BF00BF6E
:1045F00046F6C55028800020BDE8F88322E04FF63B
:10460000FF71E06C88420BD100BF00BF4846FBF74A
:10461000F3FD00BF00BF46F6C55028800020EBE741
:1046200010E0E06C401C58B900BF00BF4846FBF7E3
:10463000E3FD00BF00BF46F6C55028800020DBE741
:1046400000E000BF00BFE06C401CE064E66C00BF0F
:1046500000BF4846FBF7D0FD00BF00BF71E000BFC0
:1046600000BF00BF94F83400072815D100231A4674
:10467000214618460097FFF74FFAE66C00BF00BFCF
:104680004846FBF7B9FD00BF00BF08F40040002812
:104690004AD1FDF759FD47E00420012805D0022842
:1046A00013D0042833D122E03FE0E06CFF280BD187
:1046B00000BF00BF4846FBF79FFD00BF00BF46F6A6
:1046C000C5502880002097E722E04FF6FF71E06C8C
:1046D00088420BD100BF00BF4846FBF78DFD00BFED
:1046E00000BF46F6C5502880002085E710E0E06C4A
:1046F000401C58B900BF00BF4846FBF77DFD00BF16
:1047000000BF46F6C5502880002075E700E000BFD6
:1047100000BFE06C401CE064E66C00BF00BF484690
:10472000FBF76AFD00BF00BF0BE000BF00BF4846BB
:10473000FBF762FD00BF00BF46F62D602880002613
:1047400000BF00BF304657E7F800002070B50446B0
:104750000D46002600BF00BFFBF74AFD064600BF1E
:1047600000BF0CB93D4804683C48006884420ED143
:104770003B48007800280ADD00BF00BF3046FBF749
:104780003BFD00BF00BF46F66350288070BD00208F
:10479000288094F83600082850D2DFE800F004158D
:1047A00023313F404142042084F83600012084F840
:1047B00086002046FFF7E8FA00BF00BF3046FBF74F
:1047C0001BFD00BF00BF44E0052084F83600012037
:1047D00084F8860000BF00BF3046FBF70DFD00BF28
:1047E00000BF36E0062084F83600012084F88600F9
:1047F00000BF00BF3046FBF7FFFC00BF00BF28E052
:10480000072084F83600012084F8860000BF00BF2E
:104810003046FBF7F1FC00BF00BF1AE000BF00BF4D
:1048200000BF94F88600401C84F8860000BF00BFDB
:104830003046FBF7E1FC00BF00BF0AE000BF00BF4D
:104840003046FBF7D9FC00BF00BF46F62D6028803C
:104850009CE700BFFDF778FC00BF97E7F800002059
:104860009000002070B51546066846B90D65002613
:104870004E618E61C86101600126868033E0046864
:1048800002682B4624E0166D9E421DD396696EB9D0
:104890000B6500268E614A61C861166DF61A1665B1
:1048A000916101608688761C86800CE094690B65B6
:1048B0008C614A61C861166DF61A16659161616175
:1048C0008688761C868070BD166D9B1B14465269C7
:1048D000002AD8D10B658C6100264E61C8616161E8
:1048E0008688761C868000BFEDE700002DE9F04148
:1048F00004460D4690461F46B8F1040F0ED12848D5
:1049000000682E1A16F5803F01D8002E3CD10020F9
:10491000206547F27E203880BDE8F081B8F1080FAD
:1049200029D11F49606D0968081AA84205D92E4689
:104930001B4800682844606526E01949606D0968D5
:10494000081A2E1A16F5803F00D886B91449606DF2
:104950000968081AB0FBF5F005FB0050616D0844CA
:1049600060650020206547F27E203880D4E7606DC6
:104970002844606508E00DB12E4605E00020206562
:1049800047F27E203880C7E7012084F8360032469F
:1049900021460448FFF766FF0020388000BFBBE7D0
:1049A000C0000020C800002030B5C2698369416999
:1049B000ABB929B90024146094800465C4611EE079
:1049C00000248C610C6D056D2C440C65116094887D
:1049D000641E9480002444610465C4610FE0596141
:1049E00021B18B610C6D056D2C440C650024846134
:1049F0009488641E9480002444610465C46130BDC1
:104A0000704700002DE9F0474FF0000900BF00BFDC
:104A1000FBF7EEFB814600BF00BFFBF7E3FE064657
:104A200000271D4D2C683CB3206D401E20651FE003
:104A3000781C87B294F83600012806D1002084F84B
:104A400036002046FFF74CF906E094F836000528BA
:104A500002D1042084F83600606928602C6814B9FB
:104A60000020A88007E0A888401EA8800020A06140
:104A7000206D0028DCD000BFEF80FBF7B3FEA0EB79
:104A8000060800BF00BF4846FBF7B6FB00BF00BFEB
:104A90004046BDE8F0870000C80000202DE9F05F27
:104AA0004FF0000B00BF00BFFBF7A2FB834600BF27
:104AB00000BFFBF797FE07464FF000083B4D2C6800
:104AC000002C63D0206D401E20655BE008F10100E2
:104AD0001FFA80F8002694F83400042802D1206BD5
:104AE000C068466A0020A065A4F85C00FBF77AFE67
:104AF000A0642046FEF7D5FF94F83600032806D1BF
:104B00002046FFF7EDF8002084F8360006E094F820
:104B10003600072802D1042084F83600032084F8E8
:104B20003500002084F8340006B396F8370096F874
:104B3000381088421AD096F8370094F83710884217
:104B400014D13046FEF7A0FE814696F8380048455D
:104B500002DA96F8380000E04846814696F83700B9
:104B6000484503D049463046FFF764FB606928603A
:104B70002C6814B90020A88007E0A888401EA880EF
:104B80000020A061206D0028A0D000BFA5F80680FD
:104B9000FBF728FEA0EB070A00BF00BF5846FBF753
:104BA0002BFB00BF00BF5046BDE8F09FD0000020A7
:104BB00008B5002728E06B46002211461046FDF795
:104BC00089FFBDF80000F8B900BF00BFFBF710FB7C
:104BD000074600BF00BF0D480068401C0B49086035
:104BE00000BF00BF3846FBF707FB00BF00BFFFF761
:104BF00009FF0646FFF752FF05467419044800688E
:104C0000A04201D202480460D5E70000C0000020A5
:104C1000C400002010B58AB0044600202049086076
:104C200020490860204908601E498880C8801E49C4
:104C30008880C8801D48006820B947F21220208073
:104C40000AB010BD1A4800681A490968884203D2A0
:104C500047F213202080F3E7174800783F2803D35A
:104C600047F211202080EBE70B2000210591CDE9D0
:104C70000704069108460E490A68104909680B4B5B
:104C80001B68CDE90131CDE903200B4800780023F2
:104C90000B4A0CA100901048FDF762FC00BFCFE763
:104CA000C0000020C8000020D0000020E457000809
:104CB000EC570008D8570008E0570008E8570008EC
:104CC000B14B000875432F4F532D49494920546972
:104CD000636B205461736B00C478002010B58AB0F8
:104CE000044600202F4908602F4908602F4908809A
:104CF0002F48006840B12F4800682D490968B0FB73
:104D0000F1F02D49086006E02A4800680A21B0FB4E
:104D1000F1F0294908602848006828490860002007
:104D20002749086027490860224627A12A48FDF73D
:104D300025F8208808B10AB010BD2848006818B9C5
:104D400047F247302080F6E7254800682549096882
:104D5000884203D247F248302080ECE722480078AE
:104D60003F2803D347F246302080E4E70B200021A0
:104D700005910A46CDE907040691194800681B49C8
:104D80000968164B1B68CDE90131CDE903021648CD
:104D900000780023164A17A100901C48FDF7E0FB9D
:104DA00000BFC8E7D8000020E0000020DC000020A1
:104DB000F8570008DC570008F0000020F40000203D
:104DC000EC000020E80000204F5320546D72204D6D
:104DD000757465780000000084790020FC57000895
:104DE00004580008D8570008F45700080058000875
:104DF0002D4E000875432F4F532D494949205469C2
:104E00006D6572205461736B00000000B47900205E
:104E10000EB502A801AB0022114600900148FCF734
:104E2000E5FF0EBD84790020704700001CB53FE00F
:104E300001AB6A4600210846FDF74CFEFFF7E8FF8C
:104E4000FBF7D0FC06461B480068401C1949086067
:104E5000194804681FE001A8FDF7C8F9D4F81080CC
:104E6000A069401EA061A06980B9A08C022802D16F
:104E7000206AA06105E0204600F022F8032084F8B3
:104E80002600A56815B12046E168A847444601A858
:104E9000FDF7DCF900BF002CDDD1FBF7A3FC871B7D
:104EA00000F030F805480068B84201D203480760B6
:104EB000BEE70000EC000020E0000020E800002039
:104EC00010B50E4B1B68834206D101690B4B19606C
:104ED00039B100234B6104E0416902690A6102B102
:104EE0005161012380F82630002303614361044BA4
:104EF0001B885B1E024C238010BD0000E0000020D8
:104F0000DC00002008B56A4600210248FDF756F88B
:104F100008BD00008479002029B1064A12680243C6
:104F2000044B1A6004E0034A12688243014B1A6082
:104F3000704700003038024029B1064A1268024327
:104F4000044B1A6004E0034A12688243014B1A6062
:104F5000704700004038024029B1064A12680243F7
:104F6000044B1A6004E0034A12688243014B1A6042
:104F7000704700002038024029B1064A12680243F7
:104F8000044B1A6004E0034A12688243014B1A6022
:104F90007047000044380240F0B500210022002490
:104FA000022500260223324F3F6807F00C0121B191
:104FB000042905D0082937D105E02E4F076036E0D7
:104FC0002D4F076033E02A4F3F1F3F68C7F38056DD
:104FD000274F3F1F3F6807F03F036EB1264FB7FBD7
:104FE000F3F7DFF88CC0ACF1040CDCF800C0CCF3B4
:104FF000881C07FB0CF40CE01E4FB7FBF3F7DFF83F
:1050000070C0ACF1040CDCF800C0CCF3881C07FBCA
:105010000CF4174F3F1F3F68C7F301477F1C7D000B
:10502000B4FBF5F7076002E0124F076000BF00BF56
:105030000F4F3F6807F0F0010909104F7A5C0768CD
:10504000D74047600A4F3F6807F4E051890A0B4F89
:105050007A5C4768D7408760054F3F6807F4604136
:10506000490B064F7A5C4768D740C760F0BD000027
:10507000083802400024F40000127A0000000020EA
:1050800010B588B0044601210846FFF745FF01210D
:105090004020FFF741FF01214804FFF74DFF0722A1
:1050A00002213148FCF7C6FA072203212E48FCF7FB
:1050B000C1FA02208DF81C0000208DF81E000C2083
:1050C000069003208DF81D0001208DF81F0006A911
:1050D0002548FCF767FA01208DF81C0000020690B5
:1050E00000208DF81E0001208DF81F0003208DF890
:1050F0001D0006A91D48FCF755FA02940020ADF8E2
:1051000014000C20ADF812000020ADF81000ADF82E
:105110000E00ADF80C0002A9154800F07DF901223F
:1051200040F22551124800F051F926208DF8040074
:1051300001208DF8070003208DF805008DF806008A
:1051400001A8FCF795FC4FF480710848FCF799FA28
:1051500001228021064800F006F90121044800F0F0
:10516000F6F808B010BD0000000002400018024030
:10517000004400407047000001490860704700008B
:10518000DC0027420CB500200190009034480068F4
:1051900040F480303249086000BF3148006800F4B4
:1051A000003000900198401C0190009818B90198B7
:1051B000B0F5A04FF1D12A48006800F4003010B1DA
:1051C0000120009001E0002000900098012846D1C5
:1051D00023484030006840F0805021494031086049
:1051E0002048006840F440401E4908601C480830D0
:1051F00000681B49083108600846006840F4004018
:1052000008600846006840F4A05008601648091F6E
:105210000860081F006840F08070091F086000BF28
:105220000F48006800F000700028F9D040F20570C7
:105230000E4908600A480830006820F00300084959
:10524000083108600846006840F00200086000BFAE
:1052500003480830006800F00C000828F8D10CBDA5
:10526000003802400070004008544007003C0240F3
:1052700010B51548006840F47000134908601348E1
:10528000006840F001001149086000200F49083112
:1052900008600E4800680E4908400C4908600D4837
:1052A000091D0860081F006820F48020091F08609D
:1052B000002006490C310860FFF764FF4FF00060E2
:1052C00001498039086010BD88ED00E000380240D7
:1052D000FFFFF6FE1030002410B540F226610548AD
:1052E00000F04AF828B1002240F22661014800F09F
:1052F0006DF810BD0010014010B540F225510D4869
:1053000000F03AF818B10B4800F0F0F8C4B240F2DF
:105310002661084800F030F850B14FF4807106481B
:10532000FCF7AFF9002240F22661024800F04EF887
:1053300010BD0000004400400018024001F400725B
:10534000B2F5007F00D100BFCA430280704721B18F
:10535000828942F40052828104E082894DF6FF7313
:105360001A40828170471AB1838A0B43838202E01C
:10537000838A8B438382704770B5024600240023E2
:105380000025002040F66A16B14200D100BFC1F3EB
:10539000421501F01F03012606FA03F3012D02D185
:1053A0009689334006E0022D02D1168A334001E08F
:1053B000968A33400C12012606FA04F4168834400B
:1053C00013B10CB1012000E0002070BDF0B5034620
:1053D000002400260025002040F66A17B94200D1BB
:1053E00000BF1846C1F3421401F01F06012707FA57
:1053F00006F5012C01D10C3004E0022C01D1103053
:1054000000E014301AB107682F43076002E0076814
:10541000AF430760F0BD00002DE9FF4705460E468B
:105420000024A14600BFA046B08900B100BF2C8A6D
:1054300024F44054F08804432C82AC8941F20C607F
:105440008443B08831890843718908430443AC819F
:10545000AC8A24F44074B0890443AC826846FFF7F8
:105460009BFD2048854202D01F48854202D1DDF8CD
:105470000C9001E0DDF80890A88900F4004040B1EC
:1054800009EBC90000EB091031684900B0FBF1F7E6
:1054900007E009EBC90000EB091031688900B0FB97
:1054A000F1F76420B7FBF0F004012009642101FB4F
:1054B0001078A88900F4004040B1322000EBC80009
:1054C000B0FBF1F000F00700044308E0322000EBED
:1054D00008106421B0FBF1F000F00F0004432C81B0
:1054E000BDE8FF8700100140001401400146888894
:1054F000C0F30800704700BFFEE7000000B591B0A0
:1055000001214805FFF708FD1F48FBF7E7F900BF39
:105510001D48FBF78FFA0028FAD14FF00060029087
:105520001A4803901A48049040200590C000069045
:10553000002007904FF480600890002009900A90A6
:105540000B904FF480300C9000200D9003200E90B3
:1055500000200F90109002A90B48FBF7C5FA11200C
:105560008DF8040001208DF8070003208DF8050058
:105570008DF8060001A8FCF77BFA012210210248F1
:10558000FBF794FA11B000BDA06002400444004053
:105590001458002002E008C8121F08C1002AFAD1DE
:1055A00070477047002001E001C1121F002AFBD1A3
:1055B0007047000010B586B0044601210846FFF789
:1055C000ABFC01211020FFF7D7FC072209211B4863
:1055D000FCF730F807220A211848FCF72BF84FF4A3
:1055E000C060049002208DF8140003208DF815008F
:1055F00000208DF8160001208DF8170004A90F482F
:10560000FBF7D0FF00940020ADF80400ADF80600D1
:10561000ADF80800ADF80C000C20ADF80A006946A2
:105620000748FFF7F9FE012280210548FFF79BFE9E
:1056300001210348FFF78BFE06B010BD00000240B9
:105640000010014010B5002821D0114B0022001F8E
:10565000196803E0814203D80A4649680029F9D154
:1056600052B11368841A9C4204D100681844106037
:10567000104602E0506000E0186039B102680B1A71
:10568000934203D10B681A4402604968416010BD1F
:105690000401002000B58BB0FBF741F8FBF725F8BB
:1056A000FBF742F8FBF750F8FCF75AF9FCF730F932
:1056B0000AA8FCF72FFA0AA8032100220592CDE9D7
:1056C00006210890114680220A48006B094BCDE95B
:1056D0000130CDE9032102200023074A07A10090F1
:1056E0000A48FCF73DFF0AA8FCF7F0FD00200BB0CC
:1056F00000BD0000CC0100200D06000841707020A4
:105700005461736B20537461727400000C010020AB
:10571000F0B50B30154D20F007010024144A0FE0BE
:1057200003688B420BD38B4205D95E1A4318476836
:10573000C3E9006700E04368136002C004E0021D93
:1057400010680028ECD12046002802D1286808B152
:105750000020F0BD064A07481060074A121A22F0DE
:105760000702C0E9002401202860D7E708010020D3
:10577000040100207C7A0020787E0020B86600209A
:1057800006000000400000000001000000000000D2
:105790000000000000000000000000000000000009
:1057A0000000000000000000B86700206400000056
:1057B00090010000640000004006000048690020DD
:1057C0000B0000000A000000886F00200A000000A3
:1057D000640000009001000040000000E8030000A9
:1057E00001000000187100200A00000064000000A1
:1057F000900100000B0000000A000000A8720020C9
:105800000A0000006400000090010000800D00000C
:105810000101010078563412000100000000000070
:105820000000000000000000000000000000000078
:105830000000000000000000000000000000000068
:105840000000000001010100280004000000000029
:105850000000000000000000000000000000000048
:105860000000000000000000000000000000000038
:1058700001002000010010000C00100000000000DA
:105880000000000000000000000000000000000018
:105890000000000000000000000000000000000008
:1058A00000000000000000000000000001010100F5
:1058B0003000010020000C0020004000080004001F
:1058C00000000000000000000000000000000000D8
:1058D00000000000000000000000000000000000C8
:1058E00000000000000000000000000000000000B8
:1058F0000101010130000000000000000000000074
:105900000000000000000000000000000000000097
:105910000000000000000000000000000000000087
:105920000101010128000C00000300000401010135
:105930000101010101000101C00008000101000096
:105940000000000000000000000000000000000057
:105950000000000000000000000000000000000047
:105960000000000000000000000000000000000037
:1059700001013000C4760000F10600009C590008C7
:10598000000000200C01000094550008A85A0008EF
:105990000C0100206C810000A455000800000000EC
:1059A00001020304010203040607080900000000C5
:1059B00000000000000000000000000000010203E1
:1059C00004050000000000000000000000000000CE
:1059D00000000000000000000000000000000000C7
:1059E00000000000000000000000000000000000B7
:1059F00000000000000000000000000000000000A7
:105A00000000000000000000000000000000000096
:105A10000000000000000000000000000000000086
:105A20000000000000000000000000000000000076
:105A30000000000000000000000000000000000066
:105A40000000000000000000000000000000000056
:105A50000000000000000000000000000000000046
:105A60000000000000000000000000000000000036
:105A70000000000000000000000000000000000026
:105A80000000000000000000000000000000000016
:105A90000000000000000000000000000000000006
:085AA0000000000000000000FE
:040000050800018965
:00000001FF
